:020000040800F2
:100000000050002089220008AD1C0008B31C000825
:10001000B91C0008BF1C0008C51C00080000000037
:10002000000000000000000000000000CB1C0008E1
:10003000D71C000800000000E31C0008EF1C0008AB
:10004000D1220008D1220008D1220008D1220008C4
:10005000D1220008D1220008D1220008D1220008B4
:10006000D1220008D1220008D1220008D1220008A4
:10007000D1220008D1220008D1220008D122000894
:10008000D1220008D1220008D1220008D122000884
:10009000D1220008D1220008D1220008D122000874
:1000A000D1220008D1220008D1220008D122000864
:1000B000FD1C0008111D0008D1220008D1220008F3
:1000C000D1220008D1220008D1220008D122000844
:1000D000D1220008D1220008251D0008D1220008E5
:1000E000391D0008D1220008D122000800000000BC
:1000F0000000000000000000000000000000000000
:0C01000000000000000000005FF808F1A3
:10010C0010B5054C237833B9044B13B10448AFF345
:10011C0000800123237010BDBC00002000000000F3
:10012C003458000808B5034B1BB103490348AFF31F
:10013C00008008BD00000000C000002034580008FA
:10014C0090B583B000AF0023FB716BE0FA79FB79BB
:10015C003849895C384AD154FA79FB793749895C3A
:10016C00344AD154FB79364A52F82320FB7935496D
:10017C0031F81330FC791946104602F04BFC03465B
:10018C001A462E4B1A55FB792C4AD25CFB7929491D
:10019C00CB5C9A4243D1FB79284AD25CFB79264945
:1001AC00CB5C9A423BD1FB79274AD25CFB79234941
:1001BC00CB5C9A4214D0FA79FB792049895C224AAB
:1001CC00D154FB79204AD35C002B28D1FB791F4AF0
:1001DC000121D154FB791E4AC82122F813101EE0CC
:1001EC00FB79194AD35C002B19D1FB79184A32F9E7
:1001FC00132092B2013A92B211B2154A22F813109E
:10020C00FB79134A32F91330002B08DCFB790F4AC7
:10021C000121D154FB790E4A142122F81310FB79D9
:10022C000133FB71FB79032B90D900BF00BF0C3756
:10023C00BD4690BDE0000020E4000020DC00002062
:10024C000000002010000020D8000020E800002052
:10025C00EC00002080B483B000AF0346FB71FB7947
:10026C00032B01D900230BE0FB79084AD35C012B4B
:10027C0005D1FB79054A0021D154012300E000236C
:10028C0018460C37BD4680BC704700BFE800002004
:10029C0080B485B000AF0346FB71FB79642B01D9A8
:1002AC006423FB71FB79C3F16403FB710C4BDB68BA
:1002BC00642202FB03F30B4AA2FB03235B09FA79CA
:1002CC0002FB03F3074AA2FB03235B09FB60044B0D
:1002DC001B68FA685A6300BF1437BD4680BC704770
:1002EC005C0100201F85EB5180B485B000AF034644
:1002FC00FB71FB79642B01D96423FB71FB79C3F18E
:10030C006403FB710C4BDB68642202FB03F30B4AA6
:10031C00A2FB03235B09FA7902FB03F3074AA2FB56
:10032C0003235B09FB60044B1B68FA689A6300BFEC
:10033C001437BD4680BC70475C0100201F85EB5113
:10034C0080B500AF0E4B1B68B3F5FA6F03D90020D4
:10035C00FFF79EFF11E00A4B1B686FF0630202FB74
:10036C0003F303F5433303F5A073064AA2FB0323FF
:10037C00DB09DBB21846FFF78BFF00BF80BD00BF67
:10038C00F4010020D34D621080B500AF0020FFF7C0
:10039C007FFF00BF80BD000080B500AF0E4B5B68D7
:1003AC00B3F5FA6F03D90020FFF79EFF11E00A4B5B
:1003BC005B686FF0630202FB03F303F5433303F551
:1003CC00A073064AA2FB0323DB09DBB21846FFF736
:1003DC008BFF00BF80BD00BFF4010020D34D621025
:1003EC0080B500AF0020FFF77FFF00BF80BD00008D
:1003FC0080B400AF1B4B1B680A2B05D9194B1B682B
:10040C000A3B184A136002E0164B00221A60154B87
:10041C005B680A2B05D9134B5B680A3B114A536086
:10042C0002E0104B00225A600F4B1B680A2B05D9B7
:10043C000D4B1B680A3B0C4A136002E00A4B00226E
:10044C001A60094B5B680A2B05D9074B5B680A3BA2
:10045C00054A536002E0044B00225A6000BFBD46BF
:10046C0080BC704794030020F401002080B400AFDE
:10047C00074B00221A60064B00225A60054B0022E3
:10048C001A60044B00225A6000BFBD4680BC704706
:10049C0094030020F401002080B500AF002200215D
:1004AC00024801F03DF800BF80BD00BF7904000890
:1004BC0080B500AF0120FFF7CDFE0346002B0CD01A
:1004CC00254B5B7A002B08D10A220021234801F02E
:1004DC0027F803461A46204B5A72214B1B78022BE5
:1004EC0010D1204B1B68142B0CD81B4B5B7A184675
:1004FC0001F01CF9184B00225A72002214211A48E0
:10050C0001F00EF80220FFF7A5FE0346002B0CD0DD
:10051C00114B9B7A002B08D10A220021134800F0C2
:10052C00FFFF03461A460C4B9A720D4B5B78022B5D
:10053C0010D10C4B5B68142B0CD8074B9B7A1846CC
:10054C0001F0F4F8044B00229A720022142108489E
:10055C0000F0E6FF00BF80BDFC0000207113000816
:10056C00F0010020F4010020F1130008B113000881
:10057C000514000880B500AF002200214A4800F0A5
:10058C00CFFF00220021494800F0CAFF0A220A21AD
:10059C00474800F0C5FF03461A46464B1A700A221C
:1005AC000021454800F0BCFF03461A46414B5A70E7
:1005BC004FF47A723221414800F0B2FF03461A46DA
:1005CC003C4B9A703E4B1A683E4B1B681A443E4B90
:1005DC001B6813441A4600213C4800F0A1FF034657
:1005EC001A46344BDA70364B1968354B1A68354B52
:1005FC001B681A44344B1B6813441A46344800F0E9
:10060C008FFF03461A462B4B1A712D4B1A682E4B33
:10061C001B68D1182A4B1A682A4B1B681A442A4BA0
:10062C001B6813441A462B4800F07AFF03461A46FF
:10063C00204B5A71224B1A68224B1B681A44224BCE
:10064C001B6813441A460021234800F069FF034637
:10065C001A46184B9A711C4B1968194B1A68194B8E
:10066C001B681A44184B1B6813441A461B4800F0AD
:10067C0057FF03461A460F4BDA71134B1A68114B8E
:10068C001B68D1180E4B1A680E4B1B681A440E4B84
:10069C001B6813441A46124800F042FF03461A46E0
:1006AC00044B1A7200BF80BDF1130008051400083A
:1006BC00BD040008FC000020FD03000845220008D2
:1006CC00340000203C0000203800002009210008E4
:1006DC001921000829210008592100086921000866
:1006EC004921000880B500AF00220021094800F024
:1006FC0017FF00220021084800F012FF0022002101
:10070C00064800F00DFF00220021054800F008FF0C
:10071C0000BF80BDF920000839210008F113000842
:10072C000514000880B500AF0120FFF793FD0346C8
:10073C00002B1DD0214B1B78032B12D0032B16DC66
:10074C00012B02D0022B06D011E0002200211C4804
:10075C0000F0E6FE0CE0002200211A4800F0E0FE5A
:10076C0006E000220021184800F0DAFE00E000BF8D
:10077C000220FFF76FFD0346002B1DD00F4B5B785B
:10078C00032B12D0032B16DC012B02D0022B06D02C
:10079C0011E0002200210D4800F0C2FE0CE0002206
:1007AC0000210B4800F0BCFE06E0002200210948A5
:1007BC0000F0B6FE00E000BF00BF80BD900300203B
:1007CC0019210008292100080921000859210008D5
:1007DC00692100084921000880B500AF0A220A21CE
:1007EC00124800F09DFE03461A46114B1A700A225D
:1007FC000A21104800F094FE03461A460C4B5A701E
:10080C000A220A210C4800F08BFE03461A46084BBC
:10081C009A7000220021094800F082FE002200217B
:10082C00074800F07DFE00BF80BD00BF3107000807
:10083C000801002071130008B113000809210008F9
:10084C005921000880B400AF00BFBD4680BC704782
:10085C0080B500AF0120FFF7FDFC0346002B00F034
:10086C00CB80AD4B5B78184600F060FFAA4B9B78B1
:10087C00184600F05BFFA84BDB78184600F056FFDB
:10088C00A54B1B79184600F051FFA34B5B7918461A
:10089C0000F04CFFA14B1B78032B75D0032B00F3FE
:1008AC00AA80012B02D0022B37D0A4E06422322183
:1008BC009B4800F035FE03461A46974B5A704FF48E
:1008CC007A720021974800F02BFE03461A46924B91
:1008DC009A704FF47A720021934800F021FE03467F
:1008EC001A468D4BDA704FF47A724FF4FA718F48C6
:1008FC0000F016FE03461A46874B1A714FF47A72B3
:10090C004FF4FA718A4800F00BFE03461A46824BEC
:10091C005A71824B02221A706EE064223221854891
:10092C0000F0FEFD03461A467B4B5A704FF47A7268
:10093C000021814800F0F4FD03461A46764B9A706C
:10094C004FF47A7200217D4800F0EAFD03461A4606
:10095C00714BDA704FF47A724FF4FA71734800F0FD
:10096C00DFFD03461A466C4B1A714FF47A724FF442
:10097C00FA716F4800F0D4FD03461A46664B5A7163
:10098C00664B03221A7037E0642232216C4800F067
:10099C00C7FD03461A46604B5A704FF47A72002119
:1009AC00684800F0BDFD03461A465B4B9A704FF445
:1009BC007A720021644800F0B3FD03461A46564B88
:1009CC00DA704FF47A724FF4FA71584800F0A8FDBF
:1009DC0003461A46504B1A714FF47A724FF4FA715F
:1009EC00534800F09DFD03461A464B4B5A714B4B36
:1009FC0001221A7000E000BF0220FFF72BFC034617
:100A0C00002B41D0454B1B78032B2AD0032B3ADC0F
:100A1C00012B02D0022B12D035E04C4B1B6844F654
:100A2C003722934206D8494B1B6803F57A73474A21
:100A3C00136029E0454B44F620621A6024E0444BD5
:100A4C001B6844F63722934206D8414B1B6803F5CA
:100A5C007A733F4A136017E03D4B44F620621A60EC
:100A6C0012E03C4B1B6844F63722934206D8394BB4
:100A7C001B6803F57A73374A136005E0354B44F66F
:100A8C0020621A6000E000BF0320FFF7E3FB03467F
:100A9C00002B3ED0214B1B78032B28D0032B37DCAB
:100AAC00012B02D0022B11D032E0284B1B68B3F57E
:100ABC00FA6F06D9254B1B68A3F57A73234A13608A
:100ACC0027E0224B4FF47A721A6022E0204B1B680D
:100ADC00B3F5FA6F06D91E4B1B68A3F57A731C4A43
:100AEC00136016E01A4B4FF47A721A6011E0194B2E
:100AFC001B68B3F5FA6F06D9164B1B68A3F57A730E
:100B0C00144A136005E0134B4FF47A721A6000E03C
:100B1C0000BF00BF80BD00BF0C010020F50000200D
:100B2C00BD2100081921000859210008F9200008EE
:100B3C003921000801220008292100086921000838
:100B4C0079210008092100084921000834000020FF
:100B5C00380000203C00002080B500AF0A220A219A
:100B6C001F4800F0DDFC03461A461E4B1A701E4B44
:100B7C0001221A70642232211C4800F0D1FC034679
:100B8C001A46184B5A704FF47A720021184800F02C
:100B9C00C7FC03461A46134B9A704FF47A72002125
:100BAC00144800F0BDFC03461A460E4BDA704FF4A5
:100BBC007A724FF4FA71104800F0B2FC03461A46F0
:100BCC00084B1A714FF47A724FF4FA710B4800F01B
:100BDC00A7FC03461A46034B5A7100BF80BD00BFE9
:100BEC005D0800080C010020F500002079210008A8
:100BFC000921000849210008F920000839210008C2
:100C0C0080B500AF0B4B00221A700A2200210A4853
:100C1C0000F086FC03461A46084B1A70002200218D
:100C2C00074800F07DFC00220021064800F078FC0B
:100C3C0000BF80BDF4000020D51D0008F800002086
:100C4C00611E0008811E000880B582B000AF002034
:100C5C00FFF700FB0346002B7ED0414B1B78032B88
:100C6C0079D801A252F823F0850C0008B50C0008C5
:100C7C00EF0C0008290D00080023FB7108E0FB793C
:100C8C00384AD35C184600F051FDFB790133FB71F7
:100C9C00FB79002BF3D000220A21334800F040FCF2
:100CAC002F4B01221A7057E00023BB7108E0BB796F
:100CBC002E4AD35C184600F039FDBB790133BB7169
:100CCC00BB790A2BF3D900220021294800F028FC1B
:100CDC0000220A21274800F023FC214B02221A7023
:100CEC003AE000237B7108E07B79234AD35C1846F9
:100CFC0000F01CFD7B7901337B717B79022BF3D9DE
:100D0C00002200211D4800F00BFC00220A211C4887
:100D1C0000F006FC124B03221A701DE000233B71FD
:100D2C0008E03B79174AD35C184600F0FFFC3B798E
:100D3C0001333B713B79052BF3D90022002112487A
:100D4C0000F0EEFB00220A21074800F0E9FB044BFF
:100D5C0001221A7000E000BF00BF0837BD4680BDFD
:100D6C00F4000020F800002081050008FC000020A1
:100D7C00A5040008E507000808010020F10600089A
:100D8C00650B00080C0100205108000880B582B0EA
:100D9C0000AF78607B681B68084A93420AD1012235
:100DAC000749084803F0E9FA3223012204490548AF
:100DBC0003F060FA00BF0837BD4680BD0044004018
:100DCC00EC010020A401002080B500AF01F07CFAFA
:100DDC0000F042F800F07AF900F04EF900F07EF8DD
:100DEC0000F0C8F8144802F0DFFA0021134802F0B2
:100DFC0085FB0421114802F081FB012210491148A6
:100E0C0003F0BBFA00F002FB4FF4FA7200210E481B
:100E1C0000F086FB0A2200210C4800F081FB002226
:100E2C0000210B4800F07CFB0A220A21094800F043
:100E3C0077FB00F05BFBFCE7140100205C01002059
:100E4C00EC010020A4010020C11D00084D01000888
:100E5C000D0C0008550C000880B590B000AF07F1E0
:100E6C00180328220021184604F04CF83B1D0022E0
:100E7C001A605A609A60DA601A610223BB6101231E
:100E8C00BB621023FB6202237B630023BB634FF422
:100E9C006013FB6307F11803184601F025FE0346A7
:100EAC00002B01D000F0B3F90F237B600223BB6051
:100EBC000023FB604FF480633B6100237B613B1D8F
:100ECC000221184602F092F80346002B01D000F0E4
:100EDC009EF900BF4037BD4680BD000080B586B08E
:100EEC0000AF07F1080300221A605A609A60DA60BA
:100EFC003B4600221A605A601D4B4FF080421A602C
:100F0C001B4B09225A601A4B00229A60184B4FF661
:100F1C00FF12DA60164B00221A61154B00229A61FF
:100F2C00134802F0F1F90346002B01D000F06FF9E1
:100F3C004FF48053BB6007F1080319460C4802F0CC
:100F4C0049FD0346002B01D000F061F900233B6002
:100F5C0000237B603B461946054803F0CBF803465B
:100F6C00002B01D000F053F900BF1837BD4680BDEF
:100F7C001401002080B58EB000AF07F128030022C9
:100F8C001A605A609A60DA6007F1200300221A6036
:100F9C005A603B1D00221A605A609A60DA601A612E
:100FAC005A619A61324B334A1A60314B00225A60B3
:100FBC002F4B00229A602E4B4FF6FF12DA602C4B0F
:100FCC0000221A612A4B00229A61294802F09CF9EE
:100FDC000346002B01D000F01AF94FF48053BB628A
:100FEC0007F128031946224802F0F4FC0346002BB3
:100FFC0001D000F00CF91E4802F028FA0346002B31
:10100C0001D000F004F900233B6200237B6207F15E
:10101C0020031946164803F06DF80346002B01D047
:10102C0000F0F5F860237B600023BB600023FB60BD
:10103C0000237B613B1D002219460D4802F008FC81
:10104C000346002B01D000F0E2F83B1D04221946A8
:10105C00074802F0FDFB0346002B01D000F0D7F847
:10106C00034800F0A5FD00BF3837BD4680BD00BF6A
:10107C005C0100200004004080B500AF114B124A07
:10108C001A60104B4FF416525A600E4B00229A60A5
:10109C000C4B0022DA600B4B00221A61094B0C221C
:1010AC005A61084B00229A61064B0022DA6105480E
:1010BC0003F090F80346002B01D000F0A8F800BF15
:1010CC0080BD00BFA40100200044004080B588B062
:1010DC0000AF07F1100300221A605A609A60DA60C0
:1010EC003E4B9B693D4A43F0100393613B4B9B691C
:1010FC0003F01003FB60FB68384B9B69374A43F0E5
:10110C0020039361354B9B6903F02003BB60BB68E4
:10111C00324B9B69314A43F0040393612F4B9B691B
:10112C0003F004037B607B682C4B9B692B4A43F0D8
:10113C0008039361294B9B6903F008033B603B68F0
:10114C0000222021264801F07CFC002247F273315A
:10115C00244801F076FC4FF400533B61224B7B6139
:10116C000023BB6107F110031946204801F0CEFAA9
:10117C0020233B6101237B610123BB610223FB61C3
:10118C0007F110031946164801F0C0FA47F2733301
:10119C003B6101237B610123BB610223FB6107F1EE
:1011AC00100319460F4801F0B1FA4FF470633B611C
:1011BC0000237B610123BB6107F11003194608482A
:1011CC0001F0A4FA00220021282001F0B6F9282011
:1011DC0001F0CFF900BF2037BD4680BD00100240A2
:1011EC0000080140000C01400000111000100140EB
:1011FC0080B582B000AF78607B681B68B3F1804F1C
:10120C0001D100F04DF900BF0837BD4680BD80B458
:10121C0000AF72B600BFFEE780B582B000AF0346E8
:10122C000A46FB711346BB71BB79022B5ED0022BB5
:10123C0000F38180002B02D0012B1DD07BE0FB79C9
:10124C003F4A52F82300FB793E4A32F81330012210
:10125C00194601F0F6FBFB793B4A52F82300FB7967
:10126C003A4A32F813300122194601F0EAFBFB79B5
:10127C00374A0021D1545FE0FB79314A52F8230000
:10128C00FB79304A32F813300022194601F0D9FBB1
:10129C00FB792D4A52F82300FB792C4A32F8133093
:1012AC000122194601F0CDFBFB79294A0121D154C9
:1012BC00FB79284AD35C022B02D0032B0CD014E010
:1012CC00FB79254A52F82310244B1A68FB790A44FF
:1012DC00234941F8232008E0FA79FB791E4951F89B
:1012EC0022201F4941F8232000BF25E0FB79144A36
:1012FC0052F82300FB79134A32F8133001221946B5
:10130C0001F09FFBFB79104A52F82300FB790F4A3E
:10131C0032F813300022194601F093FBFB790C4A8A
:10132C000221D154FA79FB790B4951F822200C494E
:10133C0041F8232000E000BF00BF0837BD4680BD48
:10134C001800002028000020200000202C00002085
:10135C00F001002090030020940300203C000020AA
:10136C00F401002080B500AF0D4B1B78012B05D08C
:10137C00002B11DD023B012B0ED806E002210020D0
:10138C00FFF74AFFFEF7DCFF07E001210020FFF723
:10139C0043FFFEF7F9FF00E000BF00BF80BD00BFB8
:1013AC009003002080B500AF0D4B5B78012B05D06E
:1013BC00002B11DD023B012B0ED806E0022101208F
:1013CC00FFF72AFFFEF7E8FF07E001210120FFF7F6
:1013DC0023FFFFF705F800E000BF00BF80BD00BF92
:1013EC009003002080B500AF00210020FFF714FF10
:1013FC00FEF7CAFF00BF80BD80B500AF0021012001
:10140C00FFF70AFFFEF7ECFF00BF80BD80B483B08E
:10141C0000AF0023FB7137E0FA79204913469B009B
:10142C0013449B000B4400221A60FA79FB79C3F138
:10143C001403D8B2194913469B0013449B000B4468
:10144C00043302461A70FA79144913469B0013446C
:10145C009B000B44083300221A60FA790F4913469B
:10146C009B0013449B000B440C3300221A60FA7946
:10147C000A4913469B0013449B000B441033002273
:10148C001A70FB790133FB71FB79132BC4D900BFA4
:10149C0000BF0C37BD4680BC704700BFFC0100206C
:1014AC0080B400AF104B1B68002B18D00E4B9B6800
:1014BC00002B0CD00C4B9B680A2B05D90A4B9B6854
:1014CC000A3B094A936002E0074B00229A60064BE4
:1014DC009B68002B04D1044B01221A7400E000BF5E
:1014EC00BD4680BC704700BFFC01002080B500AF3A
:1014FC000A4B1B7C002B0FD0084B1B689847074BE3
:10150C00DB68002B02D000F0AFF906E0034B1B792F
:10151C00184600F00BF900E000BF80BDFC01002074
:10152C00B0B489B000AFF860B9607A607E4BD3F884
:10153C007C31002B01D00023F1E07B4B93F8803100
:10154C007B760023FB610023FB76E3E0FA7E764991
:10155C0013469B0013449B000B4408331B68FA6929
:10156C001344FB61FA69BB689A420AD8FA7E6E4949
:10157C0013469B0013449B000B441B68002B40F04C
:10158C00C6801323BB7617E0BB7E5A1EB97E664815
:10159C000B469B000B449B001844634913469B006D
:1015AC0013449B000B4404461D460FCD0FC42B68FF
:1015BC002360BB7E013BBB76BA7EFB7E9A42E3D8AE
:1015CC00FA7E594913469B0013449B000B44FA685E
:1015DC001A60FA7E544913469B0013449B000B443B
:1015EC0004337A7E1A70FA7E4F4913469B001344DB
:1015FC009B000B440C337A681A60FA7E4A491346F6
:10160C009B0013449B000B44103300221A70FA69A0
:10161C00BB689A4250D9FA69BB68D31A7B61FB7ECE
:10162C005A1C414913469B0013449B000B4408333E
:10163C0019687B69FA7EC91A3B4813469B00134410
:10164C009B00034408331960FA7E374913469B000C
:10165C0013449B000B4408331B68002B09D1FA7E02
:10166C00314913469B0013449B000B441033012259
:10167C001A70FB7E5A1C79692B4813469B00134445
:10168C009B00034408331960FB7E5A1C2649134601
:10169C009B0013449B000B4408331B68002B2CD17C
:1016AC00FB7E5A1C204913469B0013449B000B44A1
:1016BC00103301221A7020E0FA7EB968FB69C91A4E
:1016CC00194813469B0013449B00034408331960CC
:1016DC00FA7E154913469B0013449B000B440833B8
:1016EC001B68002B09D1FA7E0F4913469B0013444B
:1016FC009B000B44103301221A70FA7E0A491346E0
:10170C009B0013449B000B4404331B7807E0FB7EC7
:10171C000133FB76FB7E132B7FF618AF00231846A4
:10172C002437BD46B0BC7047FC010020B0B485B076
:10173C0000AF0346FB710023FB7388E0FA7B494939
:10174C0013469B0013449B000B441B68002B01D1D8
:10175C00002381E0FA7B434913469B0013449B0012
:10176C000B4404331B78FA799A426DD1FA7B3D49CC
:10177C0013469B0013449B000B4404331B787B7370
:10178C00FB7B5A1C374913469B0013449B000B44AC
:10179C001B68002B1DD0FB7B5A1C324913469B0047
:1017AC0013449B000B4408331968FA7B2D481346ED
:1017BC009B0013449B00034408331B68FA7B0132E3
:1017CC001944284813469B0013449B0003440833D8
:1017DC001960FB7BBB7317E0BB7B5A1CB97B2148A0
:1017EC000B469B000B449B0018441E4913469B0060
:1017FC0013449B000B4404461D460FCD0FC42B68AD
:10180C002360BB7B0133BB73BB7B122BE4D9154B21
:10181C000022C3F87C21134A7B7B82F88031114B68
:10182C000022C3F884210F4B0022C3F888210D4BF2
:10183C00002283F88C210B4BD3F87C31002B0CBF8E
:10184C0001230023DBB207E0FB7B0133FB73FB7B43
:10185C00132B7FF673AF002318461437BD46B0BC6C
:10186C00704700BFFC010020B0B489B000AF964BAC
:10187C001B68002B01D1002320E1934B3C461D46F5
:10188C000FCD0FC42B6823600023FB610023FB7674
:10189C000FE1FB7E132B0AD0FB7E5A1C8A491346A0
:1018AC009B0013449B000B441B68002B4AD1FA7E0F
:1018BC003968854813469B0013449B000344196008
:1018CC00FA7E3879804913469B0013449B000B44E5
:1018DC00043302461A70FA7EF9687B4813469B0063
:1018EC0013449B0003440C331960FA7E764913466B
:1018FC009B0013449B000B44103300221A70F968B0
:10190C00FA7EFB69C91A704813469B0013449B006E
:10191C00034408331960FA7E6B4913469B00134449
:10192C009B000B4408331B68002B09D1FA7E6649D7
:10193C0013469B0013449B000B44103301221A7076
:10194C000123BBE0FB7E5A1C5F4913469B001344EA
:10195C009B000B4408331B68FA691344FB61FB685A
:10196C00FA699A4240F28D80FA7E396856481346DD
:10197C009B0013449B0003441960FA7E387952494A
:10198C0013469B0013449B000B44043302461A700D
:10199C00FA7EF9684C4813469B0013449B000344A1
:1019AC000C331960FA7E484913469B0013449B0084
:1019BC000B44103300221A70FB68FA69D31A7B614E
:1019CC00FB7E5A1C404913469B0013449B000B445E
:1019DC00083319687B69FA7EC91A3B4813469B0089
:1019EC0013449B00034408331960FA7E36491346AE
:1019FC009B0013449B000B4408331B68002B09D13C
:101A0C00FA7E314913469B0013449B000B44103360
:101A1C0001221A70FB7E5A1C2B4913469B0013445F
:101A2C009B000B4408331968FA7E274813469B0029
:101A3C0013449B00034408331B68FA7E0132C91A15
:101A4C00214813469B0013449B0003440833196040
:101A5C00FB7E5A1C1C4913469B0013449B000B44F1
:101A6C0008331B68002B0AD1FB7E5A1C16491346FF
:101A7C009B0013449B000B44103301221A7001236A
:101A8C001CE0FB7E5A1CF97E0F480B469B000B4456
:101A9C009B0018440C4913469B0013449B000B44B9
:101AAC0004461D460FCD0FC42B682360FB7E01330B
:101ABC00FB76FB7E132B7FF6ECAE00231846243707
:101ACC00BD46B0BC704700BFFC01002080B485B09F
:101ADC0000AF154B9B69144A43F001039361124B01
:101AEC009B6903F00103BB60BB680F4BDB690E4ABB
:101AFC0043F08053D3610C4BDB6903F080537B6064
:101B0C007B680A4B5B68FB60FB6823F0E063FB605F
:101B1C00FB6843F00073FB60044AFB68536000BF32
:101B2C001437BD4680BC70470010024000000140D5
:101B3C0080B584B000AF78607B681B68B3F1804FD0
:101B4C0014D1194BDB69184A43F00103D361164BCE
:101B5C00DB6903F00103FB60FB68002200211C2001
:101B6C0000F0EBFC1C2000F004FD18E07B681B6807
:101B7C000E4A934213D10C4BDB690B4A43F0020320
:101B8C00D361094BDB6903F00203BB60BB68002225
:101B9C0000211D2000F0D1FC1D2000F0EAFC00BF4C
:101BAC001037BD4680BD00BF00100240000400404D
:101BBC0080B588B000AF786007F1100300221A607E
:101BCC005A609A60DA607B681B680F4A934217D19F
:101BDC000E4B9B690D4A43F0040393610B4B9B69BD
:101BEC0003F00403FB60FB68C0233B6102237B61B1
:101BFC000223FB6107F110031946054800F086FD2E
:101C0C0000BF2037BD4680BD0004004000100240DC
:101C1C000008014080B588B000AF786007F1100370
:101C2C0000221A605A609A60DA607B681B68194A55
:101C3C0093422BD1184BDB69174A43F40033D36121
:101C4C00154BDB6903F40033FB60FB68124B9B699B
:101C5C00114A43F0040393610F4B9B6903F0040397
:101C6C00BB60BB680C233B6102237B610223FB61DD
:101C7C0007F110031946094800F048FD0022002125
:101C8C00262000F05AFC262000F073FC00BF203701
:101C9C00BD4680BD004400400010024000080140D9
:101CAC0080B400AFFEE780B400AFFEE780B400AFB5
:101CBC00FEE780B400AFFEE780B400AFFEE780B46F
:101CCC0000AF00BFBD4680BC704780B400AF00BF02
:101CDC00BD4680BC704780B400AF00BFBD4680BC21
:101CEC00704780B500AF00F035FB00BF80BD000031
:101CFC0080B500AF024801F0A3FC00BF80BD00BF5F
:101D0C001401002080B500AF024801F099FC00BF1F
:101D1C0080BD00BF5C01002080B500AF024802F01E
:101D2C0051FB00BF80BD00BFA401002080B500AFF7
:101D3C004FF4005000F0B6FE00BF80BD80B586B0F9
:101D4C0000AF7860144A154BD31A7B617B693B61F9
:101D5C00134B1B68002B02D1114B124A1A60104B0B
:101D6C001A687B6813443A699A4207D203F0D2F896
:101D7C0003460C221A604FF0FF3309E0084B1B6836
:101D8C00FB60074B1A687B681344054A1360FB68B9
:101D9C0018461837BD4680BD0050002000040000D6
:101DAC008C030020E804002080B400AF00BFBD46C7
:101DBC0080BC704780B500AF2021024800F059FE6E
:101DCC0000BF80BD0008014080B500AF0120FEF7C8
:101DDC0041FA0346002B0BD10220FEF73BFA0346D7
:101DEC00002B05D10320FEF735FA0346002B2CD02F
:101DFC001021174800F03DFE4021154800F039FE37
:101E0C002021134800F035FE4FF48051104800F0AB
:101E1C0030FE4FF480410E4800F02BFE4FF4005181
:101E2C000B4800F026FE0121094800F022FE022199
:101E3C00074800F01EFE4FF48071054800F019FEB3
:101E4C004FF40071024800F014FE00BF80BD00BFCB
:101E5C00000C014080B400AF054B1B6800225A6394
:101E6C00034B1B6800229A6300BFBD4680BC7047C1
:101E7C005C01002080B500AF002210211B4800F04F
:101E8C00E0FD00224021194800F0DBFD002220215A
:101E9C00164800F0D6FD00224FF48051134800F094
:101EAC00D0FD00224FF48041104800F0CAFD002202
:101EBC004FF400510D4800F0C4FD002201210B48E5
:101ECC0000F0BFFD00220221084800F0BAFD0022FC
:101EDC004FF48071054800F0B4FD00224FF40071FE
:101EEC00024800F0AEFD00BF80BD00BF000C0140F9
:101EFC0080B582B000AF03460A46FB711346BB7136
:101F0C00BB79032B00F2CE8001A252F823F000BF64
:101F1C002D1F00087F1F0008E51F00084B2000083C
:101F2C00FB79664A52F82300FB79654A32F8133084
:101F3C000122194600F085FDFB79624A52F8230014
:101F4C00FB79614A32F813300122194600F079FD11
:101F5C00FB795E4A52F82300FB795D4A32F8133064
:101F6C000122194600F06DFDFB795A4A0021D1542B
:101F7C009FE0FB79514A52F82300FB79504A32F822
:101F8C0013300022194600F05CFDFB794D4A52F8E3
:101F9C002300FB794C4A32F813300122194600F029
:101FAC0050FDFB79494A52F82300FB79484A32F834
:101FBC0013300122194600F044FDFB79454A0121FA
:101FCC00D154454B1B78012B6ED1FB79434A1268D7
:101FDC00434941F8232067E0FB79384A52F8230043
:101FEC00FB79374A32F813300122194600F029FDEB
:101FFC00FB79344A52F82300FB79334A32F8133018
:10200C000122194600F01DFDFB79304A52F82300DD
:10201C00FB792F4A32F813300022194600F011FDDB
:10202C00FB792C4A0221D1542B4B1B78012B3DD12F
:10203C00FB792C4A12682A4941F8232036E0FB79B7
:10204C001E4A52F82300FB791D4A32F81330012244
:10205C00194600F0F6FCFB791A4A52F82300FB797A
:10206C00194A32F813300022194600F0EAFCFB79C9
:10207C00164A52F82300FB79154A32F81330012224
:10208C00194600F0DEFCFB79124A0321D154124BA5
:10209C001B78012B0CD1FB79134A1268104941F8BB
:1020AC00232005E000BF04E000BF02E000BF00E019
:1020BC0000BF00BF0837BD4680BD00BF40000020F8
:1020CC005800002050000020600000204800002034
:1020DC005C00002090030020F4000020340000205D
:1020EC0094030020380000203C00002080B500AF95
:1020FC0000210020FFF7FCFE00BF80BD80B500AFC3
:10210C0001210020FFF7F4FE00BF80BD80B500AFB9
:10211C0002210020FFF7ECFE00BF80BD80B500AFB0
:10212C0003210020FFF7E4FE00BF80BD80B500AFA7
:10213C0000210120FFF7DCFE00BF80BD80B500AFA1
:10214C0001210120FFF7D4FE00BF80BD80B500AF98
:10215C0002210120FFF7CCFE00BF80BD80B500AF8F
:10216C0003210120FFF7C4FE00BF80BD80B586B0FF
:10217C0000AF0B4B1B680B4AA2FB03239A093B1DB8
:10218C000949184602F09EFE03469AB2391D642393
:10219C00064802F06FF800BF1837BD4680BD00BF7F
:1021AC0034000020D34D621064580008A4010020B4
:1021BC0080B586B000AF0B4B1B680B4AA2FB032308
:1021CC009A093B1D0949184602F07CFE03469AB257
:1021DC00391D6423064802F04DF800BF1837BD4680
:1021EC0080BD00BF38000020D34D62106458000839
:1021FC00A401002080B586B000AF0B4B1B680B4AC6
:10220C00A2FB03239A093B1D0949184602F05AFE0A
:10221C0003469AB2391D6423064802F02BF800BF1E
:10222C001837BD4680BD00BF3C000020D34D621066
:10223C0064580008A401002080B586B000AF0B4B99
:10224C001B680B4AA2FB03239A093B1D094918463C
:10225C0002F038FE03469AB2391D6423064802F098
:10226C0009F800BF1837BD4680BD00BF940300209D
:10227C00D34D621064580008A4010020FFF794FDB0
:10228C000B480C490C4A002302E0D458C4500433C8
:10229C00C4188C42F9D3094A094C002301E013609D
:1022AC000432A242FBD302F03BFEFEF78DFD7047D9
:1022BC0000000020BC000020DC580008BC000020FE
:1022CC00E8040020FEE7000080B500AF084B1B6857
:1022DC00074A43F010031360032000F023F9002099
:1022EC0000F008F8FFF7F2FB0023184680BD00BF92
:1022FC000020024080B582B000AF7860124B1A68A3
:10230C00124B1B7819464FF47A73B3FBF1F3B2FB03
:10231C00F3F3184600F03BF90346002B01D00123E0
:10232C000EE07B680F2B0AD8002279684FF0FF3043
:10233C0000F003F9064A7B681360002300E00123D8
:10234C0018460837BD4680BD3000002068000020CC
:10235C006400002080B400AF054B1B781A46054B77
:10236C001B681344034A136000BFBD4680BC704712
:10237C00680000209C03002080B400AF024B1B6857
:10238C001846BD4680BC70479C03002080B485B0C5
:10239C0000AF78607B6803F00703FB600C4BDB68D5
:1023AC00BB60BA684FF6FF031340BB60FB681A02B0
:1023BC00BB68134343F0BF6343F40033BB60044A70
:1023CC00BB68D36000BF1437BD4680BC704700BFEC
:1023DC0000ED00E080B400AF044BDB681B0A03F097
:1023EC0007031846BD4680BC704700BF00ED00E0F7
:1023FC0080B483B000AF0346FB7197F90730002B14
:10240C000BDBFB7903F01F02064997F907305B09D8
:10241C00012000FA02F241F8232000BF0C37BD4620
:10242C0080BC704700E100E080B483B000AF03468D
:10243C003960FB7197F90730002B0ADB3B68DAB285
:10244C000C4997F907301201D2B20B4483F80023E0
:10245C000AE03B68DAB20849FB7903F00F03043B4E
:10246C001201D2B20B441A7600BF0C37BD4680BCA9
:10247C00704700BF00E100E000ED00E080B489B0DF
:10248C0000AFF860B9607A60FB6803F00703FB618A
:10249C00FB69C3F10703042B28BF0423BB61FB6951
:1024AC000433062B02D9FB69033B00E000237B615C
:1024BC004FF0FF32BB6902FA03F3DA43BB681A40F0
:1024CC007B699A404FF0FF317B6901FA03F3D943E2
:1024DC007B680B40134318462437BD4680BC7047BD
:1024EC0080B582B000AF78607B68013BB3F1807F30
:1024FC0001D301230FE00A4A7B68013B53600F2193
:10250C004FF0FF30FFF790FF054B00229A60044B11
:10251C0007221A60002318460837BD4680BD00BF4D
:10252C0010E000E080B582B000AF78607868FFF70B
:10253C002DFF00BF0837BD4680BD80B586B000AF0B
:10254C000346B9607A60FB7300237B61FFF742FF9F
:10255C0078617A68B9687869FFF790FF024697F955
:10256C000F3011461846FFF75FFF00BF1837BD4606
:10257C0080BD80B582B000AF0346FB7197F9073080
:10258C001846FFF735FF00BF0837BD4680BD80B544
:10259C0082B000AF78607868FFF7A2FF0346184658
:1025AC000837BD4680BD80B485B000AF786000238D
:1025BC00FB737B6893F82130DBB2022B08D07B686D
:1025CC0004229A637B68002283F82020012320E0F8
:1025DC007B681B681A687B681B6822F00E021A6005
:1025EC007B681B681A687B681B6822F001021A6002
:1025FC007B681A6C7B68DB6B012101FA02F25A6072
:10260C007B68012283F821207B68002283F820203C
:10261C00FB7B18461437BD4680BC704780B584B030
:10262C0000AF78600023FB737B6893F82130DBB23A
:10263C00022B05D07B6804229A630123FB7351E0C3
:10264C007B681B681A687B681B6822F00E021A6094
:10265C007B681B681A687B681B6822F001021A6091
:10266C007B681B68224A934229D07B681B68214AED
:10267C00934222D07B681B681F4A93421AD07B6816
:10268C001B681E4A934212D07B681B681C4A9342FB
:10269C000AD07B681B681B4A934202D14FF480130B
:1026AC000EE04FF080730BE04FF4803308E04FF4F2
:1026BC00805305E04FF4807302E0102300E0012307
:1026CC00114A53607B68012283F821207B68002229
:1026DC0083F820207B685B6B002B03D07B685B6BE3
:1026EC0078689847FB7B18461037BD4680BD00BF05
:1026FC00080002401C00024030000240440002402E
:10270C00580002406C0002400000024080B48BB0C4
:10271C0000AF7860396000237B6200233B6269E183
:10272C0001227B6A02FA03F3FB613B681B68FA69BE
:10273C001340BB61BA69FB699A4240F058813B680F
:10274C005B689A4A93425ED0984A934275D8984AED
:10275C00934258D0964A93426FD8964A934252D09D
:10276C00944A934269D8944A93424CD0924A9342E9
:10277C0063D8924A934246D0904A93425DD8122B2A
:10278C002AD8122B59D801A252F823F0132800088A
:10279C00ED270008FF2700084128000847280008FB
:1027AC004728000847280008472800084728000841
:1027BC004728000847280008472800084728000831
:1027CC004728000847280008472800084728000821
:1027DC00F527000809280008794A934213D02CE009
:1027EC003B68DB683B6229E03B68DB6804333B6297
:1027FC0024E03B68DB6808333B621FE03B68DB6826
:10280C000C333B621AE03B689B68002B02D104231B
:10281C003B6213E03B689B68012B05D108233B62AC
:10282C007B68FA691A6109E008233B627B68FA69E4
:10283C005A6103E000233B6200E000BFBB69FF2B41
:10284C0001D87B6801E07B6804337B61BB69FF2B9B
:10285C0002D87B6A9B0002E07B6A083B9B003B61D1
:10286C007B691A680F213B6901FA03F3DB431A40B9
:10287C00396A3B6901FA03F31A437B691A603B68B6
:10288C005B6803F08053002B00F0B1804D4B9B69CB
:10289C004C4A43F0010393614A4B9B6903F00103DB
:1028AC00BB60BB68484A7B6A9B08023352F82330F2
:1028BC00FB607B6A03F003039B000F2202FA03F315
:1028CC00DB43FA681340FB607B68404A934213D0A9
:1028DC007B683F4A93420DD07B683E4A934207D0B7
:1028EC007B683D4A934201D1032306E0042304E0B4
:1028FC00022302E0012300E000237A6A02F00302C3
:10290C0092009340FA681343FB602F497B6A9B0843
:10291C000233FA6841F823203B685B6803F48013A8
:10292C00002B06D02D4B9A682C49BB6913438B6046
:10293C0006E02A4B9A68BB69DB43284913408B603D
:10294C003B685B6803F40013002B06D0234BDA685A
:10295C002249BB691343CB6006E0204BDA68BB69A4
:10296C00DB431E491340CB603B685B6803F40033C8
:10297C00002B06D0194B5A681849BB6913434B609E
:10298C0006E0164B5A68BB69DB43144913404B6095
:10299C003B685B6803F48033002B21D00F4B1A6823
:1029AC000E49BB6913430B6021E000BF00003210DD
:1029BC000000311000002210000021100000121045
:1029CC0000001110001002400000014000080140FE
:1029DC00000C0140001001400014014000040140B3
:1029EC000B4B1A68BB69DB43094913400B607B6ACC
:1029FC0001337B623B681A687B6A22FA03F3002B73
:102A0C007FF48EAE00BF00BF2C37BD4680BC704734
:102A1C000004014080B485B000AF78600B467B8029
:102A2C007B689A687B881340002B02D00123FB73D0
:102A3C0001E00023FB73FB7B18461437BD4680BCBA
:102A4C00704780B483B000AF78600B467B80134630
:102A5C007B707B78002B03D07A887B681A6103E04B
:102A6C007B881A047B681A6100BF0C37BD4680BC9A
:102A7C00704780B485B000AF78600B467B807B6874
:102A8C00DB68FB607A88FB6813401A04FB68D94347
:102A9C007B880B401A437B681A6100BF1437BD4614
:102AAC0080BC704780B582B000AF0346FB80084BFA
:102ABC005A69FB881340002B06D0054AFB885361EA
:102ACC00FB88184600F006F800BF0837BD4680BDED
:102ADC000004014080B483B000AF0346FB8000BF0C
:102AEC000C37BD4680BC704780B586B000AF7860AF
:102AFC007B68002B01D1012372E27B681B6803F019
:102B0C000103002B00F08780924B5B6803F00C03F1
:102B1C00042B0CD08F4B5B6803F00C03082B12D1E9
:102B2C008C4B5B6803F48033B3F5803F0BD1894B3E
:102B3C001B6803F40033002B6CD07B685B68002BA4
:102B4C0068D101234CE27B685B68B3F5803F06D10A
:102B5C00804B1B687F4A43F4803313602EE07B6804
:102B6C005B68002B0CD17B4B1B687A4A23F48033B7
:102B7C001360784B1B68774A23F4802313601DE0A5
:102B8C007B685B68B3F5A02F0CD1724B1B68714A44
:102B9C0043F4802313606F4B1B686E4A43F48033FD
:102BAC0013600BE06B4B1B686A4A23F48033136091
:102BBC00684B1B68674A23F4802313607B685B684F
:102BCC00002B13D0FFF7D8FB386108E0FFF7D4FBDC
:102BDC0002463B69D31A642B01D9032300E25D4BF7
:102BEC001B6803F40033002BF0D014E0FFF7C4FB98
:102BFC00386108E0FFF7C0FB02463B69D31A642B2F
:102C0C0001D90323ECE1534B1B6803F40033002B75
:102C1C00F0D100E000BF7B681B6803F00203002BBF
:102C2C0063D04C4B5B6803F00C03002B0BD0494B6F
:102C3C005B6803F00C03082B1CD1464B5B6803F458
:102C4C008033002B16D1434B1B6803F00203002B7F
:102C5C0005D07B681B69012B01D00123C0E13D4BE2
:102C6C001B6823F0F8027B685B69DB00394913436E
:102C7C000B603AE07B681B69002B20D0364B01229D
:102C8C001A60FFF779FB386108E0FFF775FB024625
:102C9C003B69D31A022B01D90323A1E12D4B1B68ED
:102CAC0003F00203002BF0D02A4B1B6823F0F80230
:102CBC007B685B69DB00274913430B6015E0264BEF
:102CCC0000221A60FFF758FB386108E0FFF754FB4D
:102CDC0002463B69D31A022B01D9032380E11D4B19
:102CEC001B6803F00203002BF0D17B681B6803F018
:102CFC000803002B3AD07B689B69002B19D0174B2B
:102D0C0001221A60FFF738FB386108E0FFF734FB4B
:102D1C0002463B69D31A022B01D9032360E10D4B08
:102D2C005B6A03F00203002BF0D0012000F0CEFA16
:102D3C001CE00A4B00221A60FFF71EFB38610FE003
:102D4C00FFF71AFB02463B69D31A022B08D903235F
:102D5C0046E100BF001002400000424280044242A3
:102D6C00924B5B6A03F00203002BE9D17B681B6872
:102D7C0003F00403002B00F0A6800023FB758B4BA3
:102D8C00DB6903F08053002B0DD1884BDB69874A3C
:102D9C0043F08053D361854BDB6903F08053BB60F8
:102DAC00BB680123FB75824B1B6803F48073002BFB
:102DBC0018D17F4B1B687E4A43F480731360FFF776
:102DCC00DBFA386108E0FFF7D7FA02463B69D31A01
:102DDC00642B01D9032303E1754B1B6803F4807347
:102DEC00002BF0D07B68DB68012B06D16F4B1B6A84
:102DFC006E4A43F0010313622DE07B68DB68002B05
:102E0C000CD16A4B1B6A694A23F001031362674BAE
:102E1C001B6A664A23F0040313621CE07B68DB68C0
:102E2C00052B0CD1614B1B6A604A43F004031362FF
:102E3C005E4B1B6A5D4A43F0010313620BE05B4B74
:102E4C001B6A5A4A23F001031362584B1B6A574AF8
:102E5C0023F0040313627B68DB68002B15D0FFF7AB
:102E6C008BFA38610AE0FFF787FA02463B69D31AFE
:102E7C0041F28832934201D90323B1E04B4B1B6AD8
:102E8C0003F00203002BEED014E0FFF775FA386163
:102E9C000AE0FFF771FA02463B69D31A41F2883215
:102EAC00934201D903239BE0404B1B6A03F00203BE
:102EBC00002BEED1FB7D012B05D13C4BDB693B4A52
:102ECC0023F08053D3617B68DB69002B00F0878093
:102EDC00364B5B6803F00C03082B61D07B68DB6915
:102EEC00022B46D1334B00221A60FFF745FA3861AA
:102EFC0008E0FFF741FA02463B69D31A022B01D9CD
:102F0C0003236DE0294B1B6803F00073002BF0D1F9
:102F1C007B681B6AB3F5803F08D1244B5B6823F4B4
:102F2C0000327B689B68214913434B601F4B5B68E5
:102F3C0023F474127B68196A7B685B6A0B431B4928
:102F4C0013434B601B4B01221A60FFF715FA3861D3
:102F5C0008E0FFF711FA02463B69D31A022B01D99C
:102F6C0003233DE0114B1B6803F00073002BF0D0E2
:102F7C0035E0104B00221A60FFF7FEF9386108E0CB
:102F8C00FFF7FAF902463B69D31A022B01D9032346
:102F9C0026E0064B1B6803F00073002BF0D11EE0FB
:102FAC007B68DB69012B07D1012319E0001002407B
:102FBC0000700040600042420B4B5B68FB60FB689A
:102FCC0003F480327B681B6A9A4206D1FB6803F4D7
:102FDC0070127B685B6A9A4201D0012300E00023E7
:102FEC0018461837BD4680BD0010024080B584B02D
:102FFC0000AF786039607B68002B01D10123D0E0F1
:10300C006A4B1B6803F007033A689A4210D9674B66
:10301C001B6823F0070265493B6813430B60634B45
:10302C001B6803F007033A689A4201D00123B8E009
:10303C007B681B6803F00203002B20D07B681B68A5
:10304C0003F00403002B05D0594B5B68584A43F43A
:10305C00E06353607B681B6803F00803002B05D00A
:10306C00534B5B68524A43F460535360504B5B685C
:10307C0023F0F0027B689B684D4913434B607B68DF
:10308C001B6803F00103002B40D07B685B68012BAD
:10309C0007D1474B1B6803F40033002B15D10123D8
:1030AC007FE07B685B68022B07D1414B1B6803F008
:1030BC000073002B09D1012373E03D4B1B6803F017
:1030CC000203002B01D101236BE0394B5B6823F029
:1030DC0003027B685B68364913434B60FFF74CF97E
:1030EC00F8600AE0FFF748F90246FB68D31A41F290
:1030FC008832934201D9032353E02D4B5B6803F0D4
:10310C000C027B685B689B009A42EBD1274B1B68D7
:10311C0003F007033A689A4210D2244B1B6823F041
:10312C00070222493B6813430B60204B1B6803F0DA
:10313C0007033A689A4201D0012332E07B681B688E
:10314C0003F00403002B08D0194B5B6823F4E062F6
:10315C007B68DB68164913434B607B681B6803F084
:10316C000803002B09D0124B5B6823F460527B6878
:10317C001B69DB000E4913434B6000F021F802463B
:10318C000B4B5B681B0903F00F030A49CB5C22FA5B
:10319C0003F3094A1360094B1B681846FFF7AAF89A
:1031AC00002318461037BD4680BD00BF00200240EA
:1031BC000010024074580008300000206400002009
:1031CC0080B487B000AF0023FB600023BB600023FA
:1031DC007B6100237B6000233B611E4B5B68FB60C3
:1031EC00FB6803F00C03042B02D0082B03D027E060
:1031FC00194B3B6127E0FB689B0C03F00F03174A4C
:10320C00D35C7B60FB6803F48033002B10D0114B34
:10321C005B685B0C03F00103114AD35CBB607B68F9
:10322C000D4A03FB02F2BB68B2FBF3F37B6104E0D3
:10323C007B680C4A02FB03F37B617B693B6102E018
:10324C00054B3B6100BF3B6918461C37BD4680BC33
:10325C00704700BF0010024000127A008C58000822
:10326C009C58000800093D0080B400AF024B1B685D
:10327C001846BD4680BC70473000002080B500AFBA
:10328C00FFF7F2FF0246054B5B681B0A03F00703CE
:10329C000349CB5C22FA03F3184680BD00100240B0
:1032AC008458000880B500AFFFF7DEFF0246054BDF
:1032BC005B68DB0A03F007030349CB5C22FA03F3D8
:1032CC00184680BD001002408458000880B485B0B8
:1032DC0000AF78600A4B1B680A4AA2FB03235B0A07
:1032EC007A6802FB03F3FB6000BFFB685A1EFA60AE
:1032FC00002BF9D100BF00BF1437BD4680BC70470E
:10330C0030000020D34D621080B582B000AF7860E1
:10331C007B68002B01D1012341E07B6893F83D30A1
:10332C00DBB2002B06D17B68002283F83C20786846
:10333C00FEF7FEFB7B68022283F83D207B681A684F
:10334C007B6804331946104600F030FC7B68012280
:10335C0083F846207B68012283F83E207B6801229B
:10336C0083F83F207B68012283F840207B68012290
:10337C0083F841207B68012283F842207B6801227C
:10338C0083F843207B68012283F844207B68012268
:10339C0083F845207B68012283F83D2000231846E2
:1033AC000837BD4680BD000080B485B000AF7860A2
:1033BC007B6893F83D30DBB2012B01D001233AE05E
:1033CC007B68022283F83D207B681B68DA687B6887
:1033DC001B6842F00102DA607B681B68184A934252
:1033EC000ED07B681B68B3F1804F09D07B681B68DB
:1033FC00144A934204D07B681B68134A934211D140
:10340C007B681B689B6803F00703FB60FB68062B5B
:10341C0010D07B681B681A687B681B6842F001023D
:10342C001A6007E07B681B681A687B681B6842F0AF
:10343C0001021A60002318461437BD4680BC704741
:10344C00002C0140000400400008004080B582B010
:10345C0000AF78607B68002B01D1012341E07B68D1
:10346C0093F83D30DBB2002B06D17B68002283F849
:10347C003C20786800F039F87B68022283F83D2004
:10348C007B681A687B6804331946104600F08EFB83
:10349C007B68012283F846207B68012283F83E205A
:1034AC007B68012283F83F207B68012283F840204F
:1034BC007B68012283F841207B68012283F842203B
:1034CC007B68012283F843207B68012283F8442027
:1034DC007B68012283F845207B68012283F83D201C
:1034EC00002318460837BD4680BD80B483B000AFBA
:1034FC00786000BF0C37BD4680BC704780B584B087
:10350C0000AF786039603B68002B09D17B6893F879
:10351C003E30DBB2012B14BF01230023DBB222E0CF
:10352C003B68042B09D17B6893F83F30DBB2012B4D
:10353C0014BF01230023DBB215E03B68082B09D133
:10354C007B6893F84030DBB2012B14BF01230023BE
:10355C00DBB208E07B6893F84130DBB2012B14BF7F
:10356C0001230023DBB2002B01D001235EE03B687A
:10357C00002B04D17B68022283F83E2013E03B68C9
:10358C00042B04D17B68022283F83F200BE03B68BC
:10359C00082B04D17B68022283F8402003E07B686F
:1035AC00022283F841207B681B6801223968184687
:1035BC0000F07CFD7B681B681E4A934207D17B6838
:1035CC001B685A6C7B681B6842F400425A647B6827
:1035DC001B68184A93420ED07B681B68B3F1804F6E
:1035EC0009D07B681B68144A934204D07B681B6823
:1035FC00124A934211D17B681B689B6803F0070346
:10360C00FB60FB68062B10D07B681B681A687B6814
:10361C001B6842F001021A6007E07B681B681A689D
:10362C007B681B6842F001021A60002318461037B1
:10363C00BD4680BD002C0140000400400008004045
:10364C0080B582B000AF78607B681B681B6903F0A3
:10365C000203022B22D17B681B68DB6803F0020398
:10366C00022B1BD17B681B686FF002021A617B680E
:10367C0001221A777B681B689B6903F00303002BFC
:10368C0003D0786800F076FA05E0786800F069FA03
:10369C00786800F078FA7B6800221A777B681B68E0
:1036AC001B6903F00403042B22D17B681B68DB68C5
:1036BC0003F00403042B1BD17B681B686FF004021E
:1036CC001A617B6802221A777B681B689B6903F47A
:1036DC004073002B03D0786800F04CFA05E0786852
:1036EC0000F03FFA786800F04EFA7B6800221A77F7
:1036FC007B681B681B6903F00803082B22D17B68CD
:10370C001B68DB6803F00803082B1BD17B681B6864
:10371C006FF008021A617B6804221A777B681B68B9
:10372C00DB6903F00303002B03D0786800F022FA66
:10373C0005E0786800F015FA786800F024FA7B68E8
:10374C0000221A777B681B681B6903F01003102B8F
:10375C0022D17B681B68DB6803F01003102B1BD194
:10376C007B681B686FF010021A617B6808221A775D
:10377C007B681B68DB6903F44073002B03D078680B
:10378C0000F0F8F905E0786800F0EBF9786800F0E3
:10379C00FAF97B6800221A777B681B681B6903F0B7
:1037AC000103012B0ED17B681B68DB6803F001035E
:1037BC00012B07D17B681B686FF001021A617868D6
:1037CC00FDF716FD7B681B681B6903F08003802BDB
:1037DC000ED17B681B68DB6803F08003802B07D15C
:1037EC007B681B686FF080021A61786800F0E9FC56
:1037FC007B681B681B6903F04003402B0ED17B6870
:10380C001B68DB6803F04003402B07D17B681B6807
:10381C006FF040021A61786800F0BEF97B681B6893
:10382C001B6903F02003202B0ED17B681B68DB681F
:10383C0003F02003202B07D17B681B686FF020025C
:10384C001A61786800F0B4FC00BF0837BD4680BD33
:10385C0080B586B000AFF860B9607A600023FB7564
:10386C00FB6893F83C30012B01D10223AEE0FB68DE
:10387C00012283F83C207B680C2B00F29F8001A274
:10388C0052F823F0C5380008C9390008C9390008B6
:10389C00C939000805390008C9390008C9390008B8
:1038AC00C939000847390008C9390008C939000866
:1038BC00C939000887390008FB681B68B9681846C5
:1038CC0000F0D6F9FB681B689A69FB681B6842F02C
:1038DC0008029A61FB681B689A69FB681B6822F0F6
:1038EC0004029A61FB681B689969BB681A69FB68DA
:1038FC001B680A439A6164E0FB681B68B968184648
:10390C0000F01CFAFB681B689A69FB681B6842F4A0
:10391C0000629A61FB681B689A69FB681B6822F459
:10392C0080629A61FB681B689969BB681B691A0203
:10393C00FB681B680A439A6143E0FB681B68B96823
:10394C00184600F065FAFB681B68DA69FB681B68AF
:10395C0042F00802DA61FB681B68DA69FB681B68D5
:10396C0022F00402DA61FB681B68D969BB681A692A
:10397C00FB681B680A43DA6123E0FB681B68B968C3
:10398C00184600F0AFFAFB681B68DA69FB681B6825
:10399C0042F40062DA61FB681B68DA69FB681B6839
:1039AC0022F48062DA61FB681B68D969BB681B6909
:1039BC001A02FB681B680A43DA6102E00123FB75FB
:1039CC0000BFFB68002283F83C20FB7D18461837AB
:1039DC00BD4680BD80B584B000AF786039600023EF
:1039EC00FB737B6893F83C30012B01D10223B4E0CC
:1039FC007B68012283F83C207B68022283F83D20FF
:103A0C007B681B689B68BB60BB6823F07703BB605B
:103A1C00BB6823F47F43BB607B681B68BA689A6001
:103A2C003B681B68B3F5005F3ED0B3F5005F00F256
:103A3C008780B3F5805F00F08680B3F5805F7FD818
:103A4C00702B1AD0702B7BD8602B50D0602B77D872
:103A5C00502B3CD0502B73D8402B58D0402B6FD8C8
:103A6C00302B64D0302B6BD8202B60D0202B67D818
:103A7C00002B5CD0102B5AD062E07B6818683B6836
:103A8C0099683B685A683B68DB6800F0F0FA7B6821
:103A9C001B689B68BB60BB6843F07703BB607B68AB
:103AAC001B68BA689A604FE07B6818683B68996835
:103ABC003B685A683B68DB6800F0D9FA7B681B6886
:103ACC009A687B681B6842F480429A603CE07B6891
:103ADC0018683B6859683B68DB681A4600F050FA76
:103AEC007B681B685021184600F0A7FA2CE07B6815
:103AFC0018683B6859683B68DB681A4600F06EFA38
:103B0C007B681B686021184600F097FA1CE07B6804
:103B1C0018683B6859683B68DB681A4600F030FA55
:103B2C007B681B684021184600F087FA0CE07B6824
:103B3C001A683B681B681946104600F07EFA03E0D1
:103B4C000123FB7300E000BF7B68012283F83D205A
:103B5C007B68002283F83C20FB7B18461037BD465F
:103B6C0080BD80B483B000AF786000BF0C37BD4619
:103B7C0080BC704780B483B000AF786000BF0C3756
:103B8C00BD4680BC704780B483B000AF786000BF86
:103B9C000C37BD4680BC704780B483B000AF7860F2
:103BAC0000BF0C37BD4680BC7047000080B485B0A8
:103BBC0000AF786039607B681B68FB607B68294AC2
:103BCC0093420BD07B68B3F1804F07D07B68264AB9
:103BDC00934203D07B68254A934208D1FB6823F0BB
:103BEC007003FB603B685B68FA681343FB607B689F
:103BFC001C4A93420BD07B68B3F1804F07D07B6893
:103C0C00194A934203D07B68184A934208D1FB6847
:103C1C0023F44073FB603B68DB68FA681343FB607A
:103C2C00FB6823F080023B685B691343FB607B6895
:103C3C00FA681A603B689A687B68DA623B681A68B3
:103C4C007B689A627B68074A934203D13B681A6986
:103C5C007B681A637B6801225A6100BF1437BD462A
:103C6C0080BC7047002C014000040040000800405C
:103C7C0080B487B000AF786039607B681B6A7B6169
:103C8C007B681B6A23F001027B681A627B685B68A5
:103C9C003B617B689B69FB60FB6823F07003FB60F6
:103CAC00FB6823F00303FB603B681B68FA68134353
:103CBC00FB607B6923F002037B613B689B687A693C
:103CCC0013437B617B681C4A93420CD17B6923F0C4
:103CDC0008037B613B68DB687A6913437B617B6912
:103CEC0023F004037B617B68134A934211D13B6937
:103CFC0023F480733B613B6923F400733B613B68A5
:103D0C005B693A6913433B613B689B693A691343AE
:103D1C003B617B683A695A607B68FA689A613B68D8
:103D2C005A687B685A637B687A691A6200BF1C37D1
:103D3C00BD4680BC704700BF002C014080B487B0EA
:103D4C0000AF786039607B681B6A7B617B681B6A9B
:103D5C0023F010027B681A627B685B683B617B68AE
:103D6C009B69FB60FB6823F4E043FB60FB6823F476
:103D7C004073FB603B681B681B02FA681343FB60D3
:103D8C007B6923F020037B613B689B681B017A698C
:103D9C0013437B617B681D4A93420DD17B6923F0F1
:103DAC0080037B613B68DB681B017A6913437B6191
:103DBC007B6923F040037B617B68144A934213D1E7
:103DCC003B6923F480633B613B6923F400633B61F3
:103DDC003B685B699B003A6913433B613B689B6999
:103DEC009B003A6913433B617B683A695A607B6874
:103DFC00FA689A613B685A687B689A637B687A694F
:103E0C001A6200BF1C37BD4680BC7047002C0140B5
:103E1C0080B487B000AF786039607B681B6A7B61C7
:103E2C007B681B6A23F480727B681A627B685B6810
:103E3C003B617B68DB69FB60FB6823F07003FB6014
:103E4C00FB6823F00303FB603B681B68FA681343B1
:103E5C00FB607B6923F400737B613B689B681B02EE
:103E6C007A6913437B617B681D4A93420DD17B6950
:103E7C0023F400637B613B68DB681B027A691343A4
:103E8C007B617B6923F480637B617B68144A93427A
:103E9C0013D13B6923F480533B613B6923F40053FA
:103EAC003B613B685B691B013A6913433B613B68AF
:103EBC009B691B013A6913433B617B683A695A6001
:103ECC007B68FA68DA613B685A687B68DA637B68FE
:103EDC007A691A6200BF1C37BD4680BC704700BFB0
:103EEC00002C014080B487B000AF786039607B68EB
:103EFC001B6A3B617B681B6A23F480527B681A62E5
:103F0C007B685B687B617B68DB69FB60FB6823F427
:103F1C00E043FB60FB6823F44073FB603B681B6869
:103F2C001B02FA681343FB603B6923F400533B61AB
:103F3C003B689B681B033A6913433B617B680F4AE0
:103F4C00934209D17B6923F480437B613B685B69B5
:103F5C009B017A6913437B617B687A695A607B6841
:103F6C00FA68DA613B685A687B681A647B683A695C
:103F7C001A6200BF1C37BD4680BC7047002C014044
:103F8C0080B487B000AFF860B9607A60FB681B6AD8
:103F9C007B61FB681B6A23F00102FB681A62FB68F9
:103FAC009B693B613B6923F0F0033B617B681B0120
:103FBC003A6913433B617B6923F00A037B617A699D
:103FCC00BB6813437B61FB683A699A61FB687A6949
:103FDC001A6200BF1C37BD4680BC704780B487B0E6
:103FEC0000AFF860B9607A60FB681B6A7B61FB68A4
:103FFC001B6A23F01002FB681A62FB689B693B6129
:10400C003B6923F470433B617B681B033A691343A0
:10401C003B617B6923F0A0037B61BB681B017A6960
:10402C0013437B61FB683A699A61FB687A691A628F
:10403C0000BF1C37BD4680BC704780B485B000AF54
:10404C00786039607B689B68FB60FB6823F07003C9
:10405C00FB603A68FB68134343F00703FB607B6823
:10406C00FA689A6000BF1437BD4680BC704780B4B4
:10407C0087B000AFF860B9607A603B60FB689B6802
:10408C007B617B6923F47F437B613B681A027B680D
:10409C001A43BB6813437A6913437B61FB687A69E3
:1040AC009A6000BF1C37BD4680BC704780B487B097
:1040BC0000AFF860B9607A60BB6803F01F0301229F
:1040CC0002FA03F37B61FB681A6A7B69DB431A40D3
:1040DC00FB681A62FB681A6ABB6803F01F037968F5
:1040EC0001FA03F31A43FB681A6200BF1C37BD4682
:1040FC0080BC704780B485B000AF786039607B6855
:10410C0093F83C30012B01D1022346E07B6801225D
:10411C0083F83C207B68022283F83D207B681B6877
:10412C005B68FB607B681B689B68BB60FB6823F06B
:10413C007003FB603B681B68FA681343FB607B6889
:10414C001B68FA685A607B681B68164A93420ED04B
:10415C007B681B68B3F1804F09D07B681B68124ADF
:10416C00934204D07B681B68104A93420CD1BB6805
:10417C0023F08003BB603B685B68BA681343BB6089
:10418C007B681B68BA689A607B68012283F83D20C3
:10419C007B68002283F83C20002318461437BD4668
:1041AC0080BC7047002C0140000400400008004017
:1041BC0080B483B000AF786000BF0C37BD4680BCC4
:1041CC00704780B483B000AF786000BF0C37BD4639
:1041DC0080BC704780B582B000AF78607B68002BE4
:1041EC0001D1012342E07B6893F84130DBB2002B14
:1041FC0006D17B68002283F840207868FDF70AFD21
:10420C007B68242283F841207B681B68DA687B6812
:10421C001B6822F40052DA60786800F0C5FD7B68F8
:10422C001B681A697B681B6822F490421A617B68D0
:10423C001B685A697B681B6822F02A025A617B68EA
:10424C001B68DA687B681B6842F40052DA607B6892
:10425C0000225A647B68202283F841207B6820224C
:10426C0083F842207B6800225A63002318460837E3
:10427C00BD4680BD80B58AB002AFF860B9603B60C6
:10428C001346FB8000237B61FB6893F84130DBB263
:10429C00202B6DD1BB68002B02D0FB88002B01D1E9
:1042AC00012366E0FB6800225A64FB68212283F834
:1042BC004120FEF761F87861FB68FA889A84FB6804
:1042CC00FA88DA84FB689B68B3F5805F08D1FB68D9
:1042DC001B69002B04D10023FB61BB68BB6103E0AD
:1042EC00BB68FB610023BB612AE03B6800937B69E0
:1042FC0000228021F86800F014FB0346002B01D04B
:10430C00032336E0FB69002B0BD1BB691B881A46D3
:10431C00FB681B68C2F308025A60BB690233BB61BD
:10432C0007E0FB691A78FB681B685A60FB6901336C
:10433C00FB61FB68DB8C9BB2013B9AB2FB68DA84B5
:10434C00FB68DB8C9BB2002BCFD13B6800937B6965
:10435C0000224021F86800F0E4FA0346002B01D05B
:10436C00032306E0FB68202283F84120002300E0B1
:10437C00022318462037BD4680BD80B584B000AFFF
:10438C00F860B9601346FB80FB6893F84230DBB2EF
:10439C00202B12D1BB68002B02D0FB88002B01D143
:1043AC0001230BE0FB6800221A63FB881A46B968EC
:1043BC00F86800F024FB034600E00223184610378F
:1043CC00BD4680BD80B5BAB000AF78607B681B6815
:1043DC001B68C7F8E4307B681B68DB68C7F8E03003
:1043EC007B681B685B69C7F8DC300023C7F8D830E2
:1043FC000023C7F8D430D7F8E43003F00F03C7F824
:10440C00D830D7F8D830002B0FD1D7F8E43003F0E0
:10441C002003002B09D0D7F8E03003F02003002B49
:10442C0003D0786800F001FC5BE2D7F8D830002BA1
:10443C0000F0DE80D7F8DC3003F00103002B06D14E
:10444C00D7F8E03003F49073002B00F0D180D7F84C
:10445C00E43003F00103002B0BD0D7F8E03003F469
:10446C008073002B05D07B685B6C43F001027B688A
:10447C005A64D7F8E43003F00403002B0BD0D7F8C0
:10448C00DC3003F00103002B05D07B685B6C43F040
:10449C0002027B685A64D7F8E43003F00203002B65
:1044AC000BD0D7F8DC3003F00103002B05D07B6870
:1044BC005B6C43F004027B685A64D7F8E43003F079
:1044CC000803002B11D0D7F8E03003F02003002BA9
:1044DC0005D1D7F8DC3003F00103002B05D07B6845
:1044EC005B6C43F008027B685A647B685B6C002B46
:1044FC0000F0F281D7F8E43003F02003002B08D051
:10450C00D7F8E03003F02003002B02D0786800F0DD
:10451C008CFB7B681B685B6903F04003002B14BFAA
:10452C0001230023DBB2C7F8D4307B685B6C03F04B
:10453C000803002B03D1D7F8D430002B4FD0786868
:10454C0000F096FA7B681B685B6903F04003002B54
:10455C0041D07B681B681433C7F89C30D7F89C306B
:10456C0053E8003FC7F89830D7F8983023F0400351
:10457C00C7F8D0307B681B681433D7F8D020C7F845
:10458C00A820C7F8A430D7F8A410D7F8A82041E881
:10459C000023C7F8A030D7F8A030002BD9D17B6806
:1045AC00DB6B002B13D07B68DB6B7E4A5A637B681A
:1045BC00DB6B1846FEF732F80346002B16D07B68EF
:1045CC00DB6B5B6B7A68D26B104698470EE07868B1
:1045DC0000F093F90AE0786800F08FF906E078684B
:1045EC0000F08BF97B6800225A6475E100BF73E11F
:1045FC007B681B6B012B40F04F81D7F8E43003F044
:10460C001003002B00F04881D7F8E03003F01003C2
:10461C00002B00F041810023BB607B681B681B688A
:10462C00BB607B681B685B68BB60BB687B681B6896
:10463C005B6903F04003002B00F0B6807B68DB6BFA
:10464C001B685B68A7F8BE30B7F8BE30002B00F0D3
:10465C0045817B689B8DB7F8BE209A4280F03E81E5
:10466C007B68B7F8BE20DA857B68DB6B9B69202BF7
:10467C0000F088807B681B680C33C7F88830D7F84B
:10468C00883053E8003FC7F88430D7F8843023F4DF
:10469C008073C7F8B8307B681B680C33D7F8B82028
:1046AC00C7F89420C7F89030D7F89010D7F894201A
:1046BC0041E80023C7F88C30D7F88C30002BD9D1C7
:1046CC007B681B6814337B677B6F53E8003F3B6749
:1046DC003B6F23F00103C7F8B4307B681B681433BD
:1046EC00D7F8B420C7F88020FB67F96FD7F8802083
:1046FC0041E80023BB67BB6F002BE1D17B681B68D3
:10470C0014333B663B6E53E8003FFB65FB6D23F0B7
:10471C004003C7F8B0307B681B681433D7F8B0205F
:10472C00FA66BB66B96EFA6E41E800237B667B6E57
:10473C00002BE3D17B68202283F842207B68002287
:10474C001A637B681B680C33FB64FB6C53E8003FFB
:10475C00BB64BB6C23F01003C7F8AC307B681B68E0
:10476C000C33D7F8AC20BA657B65796DBA6D41E82E
:10477C0000233B653B6D002BE3D17B68DB6B18465C
:10478C00FDF711FF7B6802225A637B689A8D7B6868
:10479C00DB8D9BB2D31A9BB21946786800F0B6F841
:1047AC009CE000BF414B00087B689A8D7B68DB8DD9
:1047BC009BB2D31AA7F8CE307B68DB8D9BB2002B53
:1047CC0000F08E80B7F8CE30002B00F089807B682B
:1047DC001B680C33BB63BB6B53E8003F7B637B6B89
:1047EC0023F49073C7F8C8307B681B680C33D7F878
:1047FC00C8207A643B64396C7A6C41E80023FB6313
:10480C00FB6B002BE3D17B681B6814337B627B6AE8
:10481C0053E8003F3B623B6A23F00103C7F8C43006
:10482C007B681B681433D7F8C4203A63FB62F96ABF
:10483C003A6B41E80023BB62BB6A002BE3D17B6877
:10484C00202283F842207B6800221A637B681B6855
:10485C000C333B613B6953E8003FFB60FB6823F082
:10486C001003C7F8C0307B681B680C33D7F8C02026
:10487C00FA61BB61B969FA6941E800237B617B6924
:10488C00002BE3D17B6802225A63B7F8CE3019466D
:10489C00786800F03BF823E0D7F8E43003F08003AD
:1048AC00002B09D0D7F8E03003F08003002B03D0A5
:1048BC00786800F053F914E0D7F8E43003F04003C3
:1048CC00002B0ED0D7F8E03003F04003002B08D0BB
:1048DC00786800F092F904E000BF02E000BF00E04D
:1048EC0000BFE837BD4680BD80B483B000AF7860B0
:1048FC0000BF0C37BD4680BC704780B483B000AF9E
:10490C00786000BF0C37BD4680BC704780B483B064
:10491C0000AF78600B467B8000BF0C37BD4680BC77
:10492C00704780B590B000AFF860B9603B6013463B
:10493C00FB7150E0BB6CB3F1FF3F4CD0BB6C002B58
:10494C0007D0FDF719FD02463B68D31ABA6C9A42A0
:10495C0041D2FB681B680C33BB62BB6A53E8003F57
:10496C007B627B6A23F4D073FB63FB681B680C339C
:10497C00FA6B7A633B63396B7A6B41E80023FB6219
:10498C00FB6A002BE5D1FB681B6814337B617B69E8
:10499C0053E8003F3B613B6923F00103BB63FB68B9
:1049AC001B681433BA6B3A62FB61F9693A6A41E8E5
:1049BC000023BB61BB69002BE5D1FB68202283F887
:1049CC004120FB68202283F84220FB68002283F8F8
:1049DC00402003230FE0FB681B681A68BB68134078
:1049EC00BA689A420CBF01230023DBB21A46FB794A
:1049FC009A429FD0002318464037BD4680BD80B4F4
:104A0C0085B000AFF860B9601346FB80FB68BA68EC
:104A1C009A62FB68FA889A85FB68FA88DA85FB68E3
:104A2C0000225A64FB68222283F84220FB681B692F
:104A3C00002B07D0FB681B68DA68FB681B6842F424
:104A4C008072DA60FB681B685A69FB681B6842F06D
:104A5C0001025A61FB681B68DA68FB681B6842F04C
:104A6C002002DA60002318461437BD4680BC70471C
:104A7C0080B495B000AF78607B681B680C337B63A7
:104A8C007B6B53E8003F3B633B6B23F49073FB64FD
:104A9C007B681B680C33FA6C3A64FB63F96B3A6CF9
:104AAC0041E80023BB63BB6B002BE5D17B681B6823
:104ABC0014333B623B6A53E8003FFB61FB6923F014
:104ACC000103BB647B681B681433BA6CFA62BB626B
:104ADC00B96AFA6A41E800237B627B6A002BE5D154
:104AEC007B681B6B012B19D17B681B680C33FB603B
:104AFC00FB6853E8003FBB60BB6823F010037B648A
:104B0C007B681B680C337A6CBA617B617969BA6912
:104B1C0041E800233B613B69002BE5D17B682022F7
:104B2C0083F842207B6800221A6300BF5437BD46CD
:104B3C0080BC704780B584B000AF78607B685B6ADE
:104B4C00FB60FB680022DA85FB680022DA84F868D7
:104B5C00FFF7D3FE00BF1037BD4680BD80B485B0D3
:104B6C0000AF78607B6893F84130DBB2212B3ED1EB
:104B7C007B689B68B3F5805F14D17B681B69002B45
:104B8C0010D17B681B6AFB60FB681B881A467B682C
:104B9C001B68C2F308025A607B681B6A9A1C7B680C
:104BAC001A6208E07B681B6A591C7A6811621A78D1
:104BBC007B681B685A607B68DB8C9BB2013B9BB2A9
:104BCC007A681946D184002B0FD17B681B68DA6890
:104BDC007B681B6822F08002DA607B681B68DA68ED
:104BEC007B681B6842F04002DA60002300E002237D
:104BFC0018461437BD4680BC704780B582B000AFF4
:104C0C0078607B681B68DA687B681B6822F040025E
:104C1C00DA607B68202283F841207868FFF764FE15
:104C2C00002318460837BD4680BD80B58CB000AF58
:104C3C0078607B6893F84230DBB2222B40F0AE8078
:104C4C007B689B68B3F5805F17D17B681B69002B71
:104C5C0013D10023FB627B689B6ABB627B681B6879
:104C6C005B689BB2C3F308039AB2BB6A1A807B6879
:104C7C009B6A9A1C7B689A6226E07B689B6AFB6243
:104C8C000023BB627B689B68B3F5805F07D07B68B1
:104C9C009B68002B0AD17B681B69002B06D17B68B3
:104CAC001B685B68DAB2FB6A1A7008E07B681B68E9
:104CBC005B68DBB203F07F03DAB2FB6A1A707B68C5
:104CCC009B6A5A1C7B689A627B68DB8D9BB2013BAA
:104CDC009BB27A681946D185002B5DD17B681B6825
:104CEC00DA687B681B6822F02002DA607B681B683C
:104CFC00DA687B681B6822F48072DA607B681B6858
:104D0C005A697B681B6822F001025A617B68202279
:104D1C0083F842207B6800225A637B681B6B012B53
:104D2C0035D17B6800221A637B681B680C337B616E
:104D3C007B6953E8003F3B613B6923F010037B62C6
:104D4C007B681B680C337A6A3A62FB61F9693A6AD0
:104D5C0041E80023BB61BB69002BE5D17B681B6874
:104D6C001B6803F01003102B0AD10023FB607B6837
:104D7C001B681B68FB607B681B685B68FB60FB68DF
:104D8C007B689B8D19467868FFF7C0FD02E0786858
:104D9C00FBF7FCFF002302E0002300E0022318468F
:104DAC003037BD4680BD000080B584B000AF786060
:104DBC007B681B681B6923F440517B68DA687B684D
:104DCC001B680A431A617B689A687B681B691A43E3
:104DDC007B685B691343BB607B681B68DB6823F4EF
:104DEC00B05323F00C037A681268B9680B43D36094
:104DFC007B681B685B6923F440717B689A697B68EC
:104E0C001B680A435A617B681B682C4A934203D186
:104E1C00FEF748FAF86002E0FEF730FAF860FA683C
:104E2C0013469B0013449A001A447B685B689B00F2
:104E3C00B2FBF3F3224AA2FB03235B091901FA68C4
:104E4C0013469B0013449A001A447B685B689B00D2
:104E5C00B2FBF3F21A4BA3FB02035B09642000FBC9
:104E6C0003F3D31A1B013233154AA2FB03235B094C
:104E7C0003F0F0031944FA6813469B0013449A009C
:104E8C001A447B685B689B00B2FBF3F20C4BA3FBF0
:104E9C0002035B09642000FB03F3D31A1B013233BA
:104EAC00074AA2FB03235B0903F00F027B681B6814
:104EBC000A449A6000BF1037BD4680BD00380140DF
:104ECC001F85EB510EB46FF0004100B59CB01DABCB
:104EDC0002900690079104910848094953F8042B55
:104EEC000591006802A9019300F08EF90022029B43
:104EFC001A701CB05DF804EB03B07047B8000020CA
:104F0C000802FFFF03460244934200D1704703F8A6
:104F1C00011BF9E7014B1868704700BFB80000206F
:104F2C0070B500260C4D0D4C641BA410A64209D183
:104F3C0000F07AFC00260A4D0A4C641BA410A64211
:104F4C0005D170BD55F8043B98470136EEE755F88E
:104F5C00043B98470136F2E7D4580008D4580008AF
:104F6C00D4580008D85800087047704738B5054623
:104F7C00002940D051F8043C0C1F002BB8BFE4189A
:104F8C0000F0DCF81C4A136833B9636014602846DF
:104F9C00BDE8384000F0D8B8A34208D920682118E1
:104FAC008B4201BF19685B6809182160EDE71A464E
:104FBC005B680BB1A342FAD911685018A0420BD10F
:104FCC0020680144501883421160E0D118685B6876
:104FDC00084410605360DAE702D90C232B60D6E743
:104FEC00206821188B4201BF19685B680918216081
:104FFC0063605460CBE738BDE004002070B50E4E02
:10500C000C463168054611B900F0AAFB3060214608
:10501C00284600F0A5FB431C0AD0C41C24F0030452
:10502C00A04207D0211A284600F09AFB013001D18A
:10503C004FF0FF34204670BDE40400202DE9F84306
:10504C00CD1C25F0030508350C2D38BF0C25002D83
:10505C00074601DBA94205D90C2300263B603046EC
:10506C00BDE8F883DFF8D08000F068F8D8F800309D
:10507C001C465CBB29463846FFF7C0FF431C044660
:10508C0055D1D8F800402646002E45D1002C48D0EA
:10509C0023683146384604EB030900F061FB814577
:1050AC003FD1216838466D1A2946FFF7A7FF01301A
:1050BC0037D023682B442360D8F80030002B38D02D
:1050CC005A68A2422BD100225A600FE02268521B70
:1050DC001FD40B2A17D96119A342256018BF596038
:1050EC00636808BFC8F8001062514B60384604F181
:1050FC000B0600F029F826F00706231DF21AAED095
:10510C009B1BA350ABE7A3426268DDD1C8F800201B
:10511C00ECE723466468ACE734467668B4E713469C
:10512C00CCE70C2338463B6000F00EF897E725607F
:10513C00DCE75B60FFDE00BFE00400200148FFF706
:10514C0013BF00BFDC0400200148FFF70EBF00BFF7
:10515C00DC0400202DE9F0471F468E688246BE42D3
:10516C000C4690460B682CD88A8912F4906F26D086
:10517C006569096905EB4505A3EB010905EBD575D7
:10518C007B1C4B446D109D4238BF1D46530527D5E3
:10519C002946FFF753FF064660B34A46216900F0E3
:1051AC00FDFAA38923F4906343F08003A381266165
:1051BC004E4426603E466561A5EB0905A560BE42DE
:1051CC0000D93E4632464146206800F0AFFA002036
:1051DC00A3689B1BA360236833442360BDE8F0875E
:1051EC002A4600F0E9FA06460028E0D1504621692B
:1051FC00FFF7BCFE0C23CAF80030A3894FF0FF3038
:10520C0043F04003A381E9E72DE9F04F98468B89E1
:10521C0007461B060D4614469DB00ED50B6963B9A7
:10522C004021FFF70BFF2860286120B90C233B605D
:10523C004FF0FF30D0E040236B6100230993202313
:10524C008DF8293030234FF00109CDF80C80DFF8B0
:10525C00A0818DF82A3023469A4613F8012B0AB107
:10526C00252AF9D1BAEB040B0BD05B462246294612
:10527C003846FFF76FFF013000F0A980099A5A44B5
:10528C0009929AF80030002B00F0A18000234FF017
:10529C00FF32CDE905230AF1010A049307938DF837
:1052AC0053301A935446052214F8011B504800F051
:1052BC0067FA049AD8B9D00644BF20238DF853302E
:1052CC00110744BF2B238DF853309AF800302A2B4A
:1052DC0015D0544600204FF00A0C079A214611F8BD
:1052EC00013B303B092B4DD9B0B1079214E0A0EB38
:1052FC00080309FA03F31343A2460493D2E7039B72
:10530C00191D1B680391002BBBBF5B4242F00202CC
:10531C0007930793B8BF049223782E2B0CD1637894
:10532C002A2B34D1039B02341A1D1B680392002BC9
:10533C00B8BF4FF0FF330593DFF8B8A003225046F7
:10534C00217800F01DFA38B14022049BA0EB0A0032
:10535C00824013430134049314F8011B062226489F
:10536C008DF8281000F00CFA002838D0234B1BBB0A
:10537C00039B073323F0070308330393099B334440
:10538C00099368E70C4601200CFB0232A6E70023C8
:10539C004FF00A0C194601340593204610F8012BE6
:1053AC00303A092A03D9002BC6D00591C4E704462C
:1053BC0001230CFB0121F0E703AB00932A4638468E
:1053CC000F4B04A9AFF30080421C0646D6D1AB8923
:1053DC005B063FF52DAF09981DB0BDE8F08F03AB10
:1053EC0000932A463846064B04A900F07DF8EBE7FB
:1053FC009E580008A4580008A85800080000000097
:10540C00615100082DE9F047164699468A680B69E8
:10541C0007469342B8BF1346336091F843200C46BD
:10542C00DDF820800AB1013333602368990642BF4E
:10543C00336802333360256815F0060506D104F194
:10544C00190AE36832689B1AAB422BDC94F84320B0
:10545C00131E226818BF0123920630D449463846E1
:10546C0004F14302C047013023D02368226903F0C2
:10547C000603042B14BF002533684FF0000608BF49
:10548C00E56804F11A0408BFED1A54F8123C08BF81
:10549C0025EAE5759342C4BF9B1AED18B5421AD1A3
:1054AC00002008E00123524649463846C0470130E7
:1054BC0003D14FF0FF30BDE8F0870135C1E7302054
:1054CC00E11881F843005A1C94F845102244023329
:1054DC0082F84310C2E70123224649463846C047AA
:1054EC000130E6D00136D9E72DE9FF470F7E914612
:1054FC00782F80460C469A460C9D01F1430207D842
:10550C00622F0AD8002F00F0D580582F00F0C180F0
:10551C0004F1420584F842703AE0A7F16303152BBD
:10552C00F6D801A151F823F08D550008A1550008BB
:10553C001D5500081D5500081D5500081D55000877
:10554C00A15500081D5500081D5500081D550008E3
:10555C001D550008A7560008CD55000861560008D7
:10556C001D5500081D550008C95600081D5500089A
:10557C00CD5500081D5500081D550008695600083A
:10558C002B681A1D1B682A6004F1420584F842300E
:10559C000123A0E020682B68070603F104012960B1
:1055AC0001D51E6803E04606FBD5B3F90060002E5A
:1055BC0003DA2D23764284F843300A23594812E04B
:1055CC002B682068191D2960050601D51E6802E0AC
:1055DC004106FBD51E886F2F0CBF08230A235148A8
:1055EC00002184F843106568002DA8BF2168A560D0
:1055FC00A4BF21F0040121600EB9002D4BD015463B
:10560C00B6FBF3F103FB1167C75D05F8017D374667
:10561C00BB420E46F4D9082B0BD12368DE0708D504
:10562C00236961689942DEBF302305F8013C05F11E
:10563C00FF35521B22614B4621464046CDF800A057
:10564C0003AAFFF7DFFE01304AD14FF0FF3004B060
:10565C00BDE8F087236843F02003236078273248A5
:10566C0084F84570236829681F0651F8046B02D42E
:10567C005F0648BFB6B2DF0748BF43F0200329607E
:10568C0048BF23601EB9236823F020032360102336
:10569C00A6E72448E4E71546BDE72B682668181DE5
:1056AC006169286035061B6801D5196002E0700637
:1056BC00FBD51980002315462361BCE72B6800211C
:1056CC001A1D2A601D686268284600F059F808B156
:1056DC00401B606063682361002384F84330AAE7B1
:1056EC002A46494640462369D0470130ADD023684D
:1056FC009B0713D4E068039B9842B8BF1846A6E7F3
:10570C000123324649464046D04701309DD00135F1
:10571C00E36803995B1AAB42F2DCEBE7002504F17A
:10572C001906F5E7AF580008C0580008884210B5B4
:10573C0001EB020402D98442234607D8431EA1423E
:10574C0008D011F8012B03F8012FF8E701460244A9
:10575C008A4200D110BD13F8014D02F8014DF7E754
:10576C0038B50023054D044608462B60FCF7E6FAD5
:10577C00431C02D12B6803B1236038BDD804002030
:10578C00034610B5C9B202449342184601D1002019
:10579C0003E0047801338C42F6D110BD0A449142E7
:1057AC0000F1FF3300D1704710B511F8014B914255
:1057BC0003F8014FF9D110BD2DE9F0418046144694
:1057CC000E4621B91146BDE8F041FFF737BC2AB9A6
:1057DC00FFF7CCFB25462846BDE8F08100F01BF80E
:1057EC008442074602D8B4EB500F12D821464046EB
:1057FC00FFF724FC05460028EDD0BC42224631467A
:10580C0028BF3A46FFF7CAFF31464046FFF7AEFBCA
:10581C00E1E73546DFE751F8043C181F002BBCBF0D
:10582C000B58C01870470000F8B500BFF8BC08BC96
:10583C009E467047F8B500BFF8BC08BC9E46704742
:10584C0054696D653A20256C75202D205461736B5D
:10585C003A2025750D0A0000375345473A2530325A
:10586C006C750D0A00000000000000000000000034
:10587C0001020304060708090000000001020304EA
:10588C0002030405060708090A0B0C0D0E0F101075
:10589C000102232D302B2000686C4C006566674597
:1058AC00464700303132333435363738394142438C
:1058BC00444546003031323334353637383961623D
:0858CC00636465660000000042
:0458D4003101000896
:0458D8000D010008B6
:1058DC000008014000080140000801400008014098
:1058EC000001000200040008000C0140000C014003
:1058FC00000C0140000C01400100000102000002FC
:10590C000024F40088130000B80B0000D00700003E
:10591C00000C0140000C0140000C0140000C014047
:10592C00000C0140000C0140100000104000004031
:10593C00200000201000000001000000000000000A
:10594C00A0030020080400207004002000000000C8
:10595C00000000000000000000000000000000003B
:10596C00000000000000000000000000000000002B
:10597C00000000000000000000000000000000001B
:0C598C0000000000000000006C00002083
:040000050800228944
:00000001FF
