:020000040800F2
:100000000028002099180008A1140008A71400086F
:10001000AD140008B3140008B91400080000000073
:10002000000000000000000000000000BF140008F5
:10003000CB14000800000000D7140008E3140008E7
:10004000E1180008E1180008E1180008E1180008AC
:10005000E1180008E1180008E1180008E11800089C
:10006000E1180008E1180008E1180008E11800088C
:10007000E1180008E1180008E1180008E11800087C
:10008000E1180008E1180008E1180008E11800086C
:10009000E1180008E1180008E1180008E11800085C
:1000A000E1180008E1180008E1180008E11800084C
:1000B000F11400080515000800000000E118000810
:1000C000E11800080000000000000000E11800082E
:1000D00000000000E11800081915000800000000E9
:1000E000E1180008E1180008E1180008000000000D
:1000F0000000000000000000000000000000000000
:0C01000000000000000000005FF808F1A3
:10010C0010B5054C237833B9044B13B10448AFF345
:10011C0000800123237010BDC800002000000000E7
:10012C000055000808B5034B1BB103490348AFF356
:10013C00008008BD00000000CC0000200055000825
:10014C0090B583B000AF0023FB716BE0FA79FB79BB
:10015C003849895C384AD154FA79FB793749895C3A
:10016C00344AD154FB79364A52F82320FB7935496D
:10017C0031F81330FC791946104601F04BFF034659
:10018C001A462E4B1A55FB792C4AD25CFB7929491D
:10019C00CB5C9A4243D1FB79284AD25CFB79264945
:1001AC00CB5C9A423BD1FB79274AD25CFB79234941
:1001BC00CB5C9A4214D0FA79FB792049895C224AAB
:1001CC00D154FB79204AD35C002B28D1FB791F4AF0
:1001DC000121D154FB791E4A642122F813101EE030
:1001EC00FB79194AD35C002B19D1FB79184A32F9E7
:1001FC00132092B2013A92B211B2154A22F813109E
:10020C00FB79134A32F91330002B08DCFB790F4AC7
:10021C000121D154FB790E4A322122F81310FB79BB
:10022C000133FB71FB79032B90D900BF00BF0C3756
:10023C00BD4690BDEC000020F0000020E80000203E
:10024C000000002010000020E4000020F40000203A
:10025C00F800002080B483B000AF0346FB71FB793B
:10026C00032B01D900230BE0FB79084AD35C012B4B
:10027C0005D1FB79054A0021D154012300E000236C
:10028C0018460C37BD4680BC704700BFF4000020F8
:10029C0080B500AF0120FFF7DDFF0346002B16D021
:1002AC000C4B1B78012B05D0002B0FDD023B012BD7
:1002BC000CD805E000220021074800F013FD06E0F1
:1002CC0000220021054800F00DFD00E000BF00BF3A
:1002DC0080BD00BF34030020AD0B00089D0B00084F
:1002EC0080B500AF3F4B1A683F4B1B681A443F4B1D
:1002FC001B6813441A4600213D4800F0F3FC0346EA
:10030C001A463C4B1A70374B1B681946354B1A680A
:10031C00354B1B681A44354B1B6813441A46364838
:10032C0000F0E0FC03461A46324B5A702D4B1A680B
:10033C002D4B1B68134419462A4B1A682A4B1B6811
:10034C001A442A4B1B6813441A462C4800F0CAFC6A
:10035C0003461A46274B9A70224B1A68224B1B688D
:10036C001A44224B1B6813441A460021244800F0FF
:10037C00B9FC03461A461F4BDA701C4B1B68194616
:10038C00184B1A68184B1B681A44184B1B681344FB
:10039C001A461C4800F0A6FC03461A46154B1A7167
:1003AC00124B1A68104B1B68134419460D4B1A68F4
:1003BC000D4B1B681A440D4B1B6813441A4612480C
:1003CC0000F090FC03461A460A4B5A710A2200218F
:1003DC000E4800F087FC03461A46064B9A7100BF84
:1003EC0080BD00BF34000020380000203C000020FD
:1003FC0029180008040100204918000839180008C1
:10040C008918000879180008691800089D0200086E
:10041C0080B500AF0120FFF71DFF0346002B22D053
:10042C00264B1B78032B12D0032B16DC012B02D08E
:10043C00022B06D011E000220021214800F052FCD2
:10044C0011E0002200211F4800F04CFC0BE00022C0
:10045C0000211D4800F046FC05E0002200211A484E
:10046C0000F040FC00BF0220FFF7F4FE0346002B17
:10047C0022D0124B5B78032B12D0032B16DC012BF2
:10048C0002D0022B06D011E0002200210F4800F010
:10049C0029FC11E0002200210D4800F023FC0BE0A8
:1004AC00002200210B4800F01DFC05E00022002179
:1004BC00074800F017FC00BF00BF80BD34030020CC
:1004CC00391800084918000829180008791800087C
:1004DC00891800086918000880B400AF00BFBD4639
:1004EC0080BC704780B500AF002200210C4800F0A2
:1004FC00F9FB002200210B4800F0F4FB0022002144
:10050C00094800F0EFFB00220021084800F0EAFB4C
:10051C0000220021064800F0E5FB00BF80BD00BFB3
:10052C0019180008591800088D0B0008BD0B00089D
:10053C00ED02000880B582B000AF0020FFF78AFE04
:10054C000346002B5BD0304B1B78022B3ED0022B8A
:10055C0054DC002B02D0012B1CD04FE00023FB718C
:10056C0008E0FB79294AD35C184600F0C1FCFB7902
:10057C000133FB71FB79062BF3D90A2200212448A5
:10058C0000F0B0FB03461A46224B1A701E4B012298
:10059C001A7034E00023BB7108E0BB791D4AD35CB0
:1005AC00184600F0A5FCBB790133BB71BB79002B5D
:1005BC00F3D000220021184800F094FB03461A46A1
:1005CC00164B1A70104B02221A7018E000237B7124
:1005DC0008E07B79114AD35C184600F089FC7B79E2
:1005EC0001337B717B79002BF3D0002200210C4866
:1005FC0000F078FB044B00221A7000E000BF00BF33
:10060C000837BD4680BD00BF00010020040100205A
:10061C001D0400080C010020E50400081001002056
:10062C00ED02000880B500AF2021024801F021FD49
:10063C0000BF80BD0008014080B582B000AF78607B
:10064C007B681B68084A93420AD101220749084873
:10065C0003F095F8322301220449054803F00CF805
:10066C0000BF0837BD4680BD00440040EC010020AF
:10067C00A401002080B586B000AF00F001FE034657
:10068C00FB75FA7D3B460749184603F0F1FE03461D
:10069C009AB239466423044802F0EEFF00BF1837C3
:1006AC00BD4680BD18550008A401002080B500AFE0
:1006BC0001F012F900F042F800F074F900F07AF849
:1006CC0000F046F900F0C2F8144802F04BF9012290
:1006DC001349144803F053F800F072FA4FF47A728D
:1006EC000021114800F0FEFA0A2200210F4800F008
:1006FC00F9FA4FF47A724FF4FA710D4800F0F2FAED
:10070C00002200210B4800F0EDFA0A224FF47A7116
:10071C00094800F0E7FA00F0C3FAFCE714010020E6
:10072C00EC010020A4010020310600084D01000856
:10073C0081060008F10400084105000880B590B05E
:10074C0000AF07F1180328220021184603F0F3FE2E
:10075C003B1D00221A605A609A60DA601A6102230B
:10076C00BB610123BB621023FB6200237B6307F197
:10077C001803184601F096FC0346002B01D000F03C
:10078C0090F90F237B600023BB600023FB600023E8
:10079C003B6100237B613B1D0021184601F004FFE7
:1007AC000346002B01D000F07CF900BF4037BD465A
:1007BC0080BD000080B586B000AF07F108030022B1
:1007CC001A605A609A60DA603B4600221A605A60DE
:1007DC001D4B4FF080421A601B4B01225A601A4B82
:1007EC0000229A60184B49F63F42DA60164B002201
:1007FC001A61154B00229A61134802F063F8034604
:10080C00002B01D000F04DF94FF48053BB6007F181
:10081C00080319460C4802F013FB0346002B01D0C9
:10082C0000F03FF900233B6000237B603B461946F8
:10083C00054802F067FE0346002B01D000F031F9A9
:10084C0000BF1837BD4680BD1401002080B58EB0A6
:10085C0000AF07F1280300221A605A609A60DA6030
:10086C0007F1200300221A605A603B1D00221A6017
:10087C005A609A60DA601A615A619A61324B334A53
:10088C001A60314B00225A602F4B00229A602E4B7B
:10089C004FF6FF12DA602C4B00221A612A4B002211
:1008AC009A61294802F00EF80346002B01D000F0A3
:1008BC00F8F84FF48053BB6207F12803194622481D
:1008CC0002F0BEFA0346002B01D000F0EAF81E48F5
:1008DC0002F094F80346002B01D000F0E2F800235C
:1008EC003B6200237B6207F120031946164802F095
:1008FC0009FE0346002B01D000F0D3F860237B6087
:10090C000023BB600023FB6000237B613B1D0022A6
:10091C0019460D4802F0D2F90346002B01D000F025
:10092C00C0F83B1D04221946074802F0C7F90346DC
:10093C00002B01D000F0B5F8034800F027FD00BFF4
:10094C003837BD4680BD00BF5C010020000400406C
:10095C0080B500AF114B124A1A60104B4FF416526F
:10096C005A600E4B00229A600C4B0022DA600B4B43
:10097C0000221A61094B0C225A61084B00229A6121
:10098C00064B0022DA61054802F026FE0346002BD6
:10099C0001D000F086F800BF80BD00BFA40100208C
:1009AC000044004080B586B000AF07F10803002278
:1009BC001A605A609A60DA602F4B9B692E4A43F09A
:1009CC00040393612C4B9B6903F004037B607B68ED
:1009DC00294B9B69284A43F008039361264B9B697A
:1009EC0003F008033B603B6800222021234801F000
:1009FC0028FB00224FF6FF71214801F022FB202337
:100A0C00BB600123FB6001233B6102237B6107F187
:100A1C0008031946194801F081F947F27333BB609A
:100A2C000123FB6001233B6102237B6107F1080377
:100A3C001946134801F072F948F68C43BB60012348
:100A4C00FB6002233B6102237B6107F1080319461B
:100A5C000B4801F063F94FF47063BB600023FB603B
:100A6C0001233B6107F108031946044801F056F9CC
:100A7C0000BF1837BD4680BD001002400008014081
:100A8C00000C014080B582B000AF78607B681B68B9
:100A9C00B3F1804F01D100F0DDF800BF0837BD463F
:100AAC0080BD80B400AF72B600BFFEE780B582B0E7
:100ABC0000AF03460A46FB711346BB71BB79022B90
:100ACC0038D0022B4FDC002B02D0012B19D04AE07E
:100ADC00FB79274A52F82300FB79264A32F8133067
:100AEC000122194601F0ADFAFB79234A52F8230092
:100AFC00FB79224A32F813300122194601F0A1FA8F
:100B0C0032E0FB791A4A52F82300FB79194A32F881
:100B1C0013300022194601F094FAFB79164A52F868
:100B2C002300FB79154A32F813300122194601F0E3
:100B3C0088FA19E0FB790E4A52F82300FB790D4A2A
:100B4C0032F813300122194601F07BFAFB790A4A7C
:100B5C0052F82300FB79094A32F813300022194667
:100B6C0001F06FFA00E000BF00BF0837BD4680BD42
:100B7C001800002028000020200000202C0000205D
:100B8C0080B500AF00210020FFF790FF00BF80BDB3
:100B9C0080B500AF01210020FFF788FF00BF80BDAA
:100BAC0080B500AF02210020FFF780FF00BF80BDA1
:100BBC0080B500AF00210120FFF778FF00BF80BD9A
:100BCC0080B483B000AF0023FB7137E0FA79204981
:100BDC0013469B0013449B000B4400221A60FA79C5
:100BEC00FB79C3F10F03D8B2194913469B00134488
:100BFC009B000B44043302461A70FA7914491346CD
:100C0C009B0013449B000B44083300221A60FA79B2
:100C1C000F4913469B0013449B000B440C330022DA
:100C2C001A60FA790A4913469B0013449B000B4443
:100C3C00103300221A70FB790133FB71FB790F2BF7
:100C4C00C4D900BF00BF0C37BD4680BC704700BF85
:100C5C00F001002080B400AF104B1B68002B18D0A3
:100C6C000E4B9B68002B0CD00C4B9B680A2B05D9A8
:100C7C000A4B9B680A3B094A936002E0074B00222F
:100C8C009A60064B9B68002B04D1044B01221A740A
:100C9C0000E000BFBD4680BC704700BFF0010020E3
:100CAC0080B500AF0D4B1B7C002B15D00B4B1B796B
:100CBC0019460B4803F0CAFB084B1B689847074BB7
:100CCC00DB68002B02D000F0A5F906E0034B1B7982
:100CDC00184600F00DF900E000BF80BDF0010020C7
:100CEC0024550008B0B489B000AFF860B9607A60E0
:100CFC007E4BD3F82C31002B01D01023F1E07B4B31
:100D0C0093F830317B760023FB610023FB76E3E024
:100D1C00FA7E764913469B0013449B000B44083320
:100D2C001B68FA691344FB61FA69BB689A420AD8DA
:100D3C00FA7E6E4913469B0013449B000B441B68C0
:100D4C00002B40F0C6800F23BB7617E0BB7E5A1EEB
:100D5C00B97E66480B469B000B449B0018446349C4
:100D6C0013469B0013449B000B4404461D460FCDB9
:100D7C000FC42B682360BB7E013BBB76BA7EFB7E27
:100D8C009A42E3D8FA7E594913469B0013449B00C0
:100D9C000B44FA681A60FA7E544913469B001344BC
:100DAC009B000B4404337A7E1A70FA7E4F4913462B
:100DBC009B0013449B000B440C337A681A60FA7E38
:100DCC004A4913469B0013449B000B4410330022EA
:100DDC001A70FA69BB689A4250D9FA69BB68D31A7F
:100DEC007B61FB7E5A1C414913469B0013449B00BC
:100DFC000B44083319687B69FA7EC91A3B481346C1
:100E0C009B0013449B00034408331960FA7E374956
:100E1C0013469B0013449B000B4408331B68002BA8
:100E2C0009D1FA7E314913469B0013449B000B44B5
:100E3C00103301221A70FB7E5A1C79692B48134619
:100E4C009B0013449B00034408331960FB7E5A1C1F
:100E5C00264913469B0013449B000B4408331B6824
:100E6C00002B2CD1FB7E5A1C204913469B001344AB
:100E7C009B000B44103301221A7020E0FA7EB968F3
:100E8C00FB69C91A194813469B0013449B00034481
:100E9C0008331960FA7E154913469B0013449B00D6
:100EAC000B4408331B68002B09D1FA7E0F491346FB
:100EBC009B0013449B000B44103301221A70FA7EE2
:100ECC000A4913469B0013449B000B4404331B78C4
:100EDC0007E0FB7E0133FB76FB7E0F2B7FF618AF12
:100EEC00102318462437BD46B0BC7047F0010020D3
:100EFC00B0B485B000AF0346FB710023FB737CE0FC
:100F0C00FA7B434913469B0013449B000B44043368
:100F1C001B78FA799A426DD1FA7B3D4913469B00B6
:100F2C0013449B000B4404331B787B73FB7B5A1CD0
:100F3C00374913469B0013449B000B441B68002B42
:100F4C001DD0FB7B5A1C324913469B0013449B005B
:100F5C000B4408331968FA7B2D4813469B00134445
:100F6C009B00034408331B68FA7B01321944284860
:100F7C0013469B0013449B00034408331960FB7B0E
:100F8C00BB7317E0BB7B5A1CB97B21480B469B00FB
:100F9C000B449B0018441E4913469B0013449B00B2
:100FAC000B4404461D460FCD0FC42B682360BB7B3E
:100FBC000133BB73BB7B0E2BE4D9154B0022C3F85A
:100FCC002C21134A7B7B82F83031114B0022C3F861
:100FDC0034210F4B0022C3F838210D4B002283F82B
:100FEC003C210B4BD3F82C31002B0CBF01230023DD
:100FFC00DBB207E0FB7B0133FB73FB7B0F2B7FF634
:10100C007FAF002318461437BD46B0BC704700BFF5
:10101C00F0010020B0B489B000AF984B1B68002BD6
:10102C0003D0964B9B68002B01D0002320E1934BFF
:10103C003C461D460FCD0FC42B6823600023FB617B
:10104C000023FB760FE1FB7E0F2B0AD0FB7E5A1C94
:10105C008A4913469B0013449B000B441B68002BCE
:10106C004AD1FA7E3968854813469B0013449B008D
:10107C0003441960FA7E3879804913469B00134467
:10108C009B000B44043302461A70FA7EF9687B48C5
:10109C0013469B0013449B0003440C331960FA7EE7
:1010AC00764913469B0013449B000B4410330022DB
:1010BC001A70F968FA7EFB69C91A704813469B00CE
:1010CC0013449B00034408331960FA7E6B491346A2
:1010DC009B0013449B000B4408331B68002B09D165
:1010EC00FA7E664913469B0013449B000B44103355
:1010FC0001221A700123BBE0FB7E5A1C5F49134688
:10110C009B0013449B000B4408331B68FA6913447F
:10111C00FB61FB68FA699A4240F28D80FA7E39686D
:10112C00564813469B0013449B0003441960FA7EF7
:10113C003879524913469B0013449B000B440433EB
:10114C0002461A70FA7EF9684C4813469B00134409
:10115C009B0003440C331960FA7E484913469B00EC
:10116C0013449B000B44103300221A70FB68FA697D
:10117C00D31A7B61FB7E5A1C404913469B001344D7
:10118C009B000B44083319687B69FA7EC91A3B48EB
:10119C0013469B0013449B00034408331960FA7EEA
:1011AC00364913469B0013449B000B4408331B68C1
:1011BC00002B09D1FA7E314913469B0013449B0046
:1011CC000B44103301221A70FB7E5A1C2B49134618
:1011DC009B0013449B000B4408331968FA7E274884
:1011EC0013469B0013449B00034408331B68FA7E90
:1011FC000132C91A214813469B0013449B00034437
:10120C0008331960FB7E5A1C1C4913469B0013447F
:10121C009B000B4408331B68002B0AD1FB7E5A1C25
:10122C00164913469B0013449B000B4410330122B8
:10123C001A7001231CE0FB7E5A1CF97E0F480B46EA
:10124C009B000B449B0018440C4913469B00134411
:10125C009B000B4404461D460FCD0FC42B68236026
:10126C00FB7E0133FB76FB7E0F2B7FF6ECAE00236F
:10127C0018462437BD46B0BC704700BFF0010020B3
:10128C0080B483B000AF0023FB710023BB710FE06F
:10129C00BA790C4913469B0013449B000B441B6802
:1012AC00002B02D0FB790133FB71BB790133BB718D
:1012BC00BB790F2BECD9FB7918460C37BD4680BC9B
:1012CC00704700BFF001002080B483B000AF0E4B1C
:1012DC009B690D4A43F0010393610B4B9B6903F02F
:1012EC0001037B607B68084BDB69074A43F0805342
:1012FC00D361054BDB6903F080533B603B6800BF57
:10130C000C37BD4680BC70470010024080B584B0DD
:10131C0000AF78607B681B68B3F1804F14D1194B18
:10132C00DB69184A43F00103D361164BDB6903F008
:10133C000103FB60FB68002200211C2000F005FC6F
:10134C001C2000F01EFC18E07B681B680E4A9342C0
:10135C0013D10C4BDB690B4A43F00203D361094BED
:10136C00DB6903F00203BB60BB68002200211D2077
:10137C0000F0EBFB1D2000F004FC00BF1037BD4655
:10138C0080BD00BF001002400004004080B588B052
:10139C0000AF786007F1100300221A605A609A605F
:1013AC00DA607B681B680F4A934217D10E4B9B691E
:1013BC000D4A43F0040393610B4B9B6903F0040348
:1013CC00FB60FB68C0233B6102237B610223FB6152
:1013DC0007F110031946054800F0A0FC00BF2037A8
:1013EC00BD4680BD000400400010024000080140D2
:1013FC0080B588B000AF786007F1100300221A6046
:10140C005A609A60DA607B681B681F4A934237D136
:10141C001E4BDB691D4A43F40033D3611B4BDB6964
:10142C0003F40033FB60FB68184B9B69174A43F0CD
:10143C0004039361154B9B6903F00403BB60BB6809
:10144C0004233B6102237B610323FB6107F110033F
:10145C0019460F4800F062FC08233B6100237B61B6
:10146C000023BB6107F110031946094800F056FC34
:10147C0000220021262000F068FB262000F081FBD2
:10148C0000BF2037BD4680BD004400400010024024
:10149C000008014080B400AFFEE780B400AFFEE767
:1014AC0080B400AFFEE780B400AFFEE780B400AFBD
:1014BC00FEE780B400AF00BFBD4680BC704780B46F
:1014CC0000AF00BFBD4680BC704780B400AF00BF0A
:1014DC00BD4680BC704780B500AF00F043FA00BF3A
:1014EC0080BD000080B500AF024801F0DFFA00BFFC
:1014FC0080BD00BF1401002080B500AF024801F090
:10150C00D5FA00BF80BD00BF5C01002080B500AFE4
:10151C00024802F059F900BF80BD00BFA4010020B1
:10152C0080B586B000AFF860B9607A6000237B614B
:10153C000AE0AFF300800146BB685A1CBA60CAB21D
:10154C001A707B6901337B617A697B689A42F0DBA4
:10155C007B6818461837BD4680BD80B586B000AF95
:10156C00F860B9607A6000237B6109E0BB685A1CA3
:10157C00BA601B781846AFF300807B6901337B613E
:10158C007A697B689A42F1DB7B6818461837BD464E
:10159C0080BD80B483B000AF78604FF0FF33184645
:1015AC000C37BD4680BC704780B483B000AF786008
:1015BC0039603B684FF400525A60002318460C37D0
:1015CC00BD4680BC704780B483B000AF7860012307
:1015DC0018460C37BD4680BC704780B485B000AF50
:1015EC00F860B9607A60002318461437BD4680BC99
:1015FC007047000080B586B000AF7860144A154B78
:10160C00D31A7B617B693B61134B1B68002B02D1A6
:10161C00114B124A1A60104B1A687B6813443A69D2
:10162C009A4207D202F0D6FF03460C221A604FF002
:10163C00FF3309E0084B1B68FB60074B1A687B689B
:10164C001344054A1360FB6818461837BD4680BD25
:10165C000028002000040000300300208804002033
:10166C0080B400AF00BFBD4680BC704780B582B06F
:10167C0000AF03460A46FB711346BB71BB79032BC3
:10168C0000F2B08001A252F823F000BFA9160008A6
:10169C00FB1600084D1700089F170008FB79544AE9
:1016AC0052F82300FB79534A32F8133001221946C1
:1016BC0000F0C7FCFB79504A52F82300FB794F4AE3
:1016CC0032F813300122194600F0BBFCFB794C4A6E
:1016DC0052F82300FB794B4A32F813300122194699
:1016EC0000F0AFFCFB79484A0021D1547BE0FB7938
:1016FC003F4A52F82300FB793E4A32F8133000225D
:10170C00194600F09EFCFB793B4A52F82300FB790A
:10171C003A4A32F813300122194600F092FCFB7958
:10172C00374A52F82300FB79364A32F8133001223B
:10173C00194600F086FCFB79334A0121D15452E062
:10174C00FB792B4A52F82300FB792A4A32F81330E2
:10175C000122194600F075FCFB79274A52F8230048
:10176C00FB79264A32F813300022194600F069FC46
:10177C00FB79234A52F82300FB79224A32F81330C2
:10178C000122194600F05DFCFB791F4A0221D1545D
:10179C0029E0FB79164A52F82300FB79154A32F8F6
:1017AC0013300122194600F04CFCFB79124A52F816
:1017BC002300FB79114A32F813300122194600F04C
:1017CC0040FCFB790E4A52F82300FB790D4A32F8A3
:1017DC0013300022194600F034FCFB790A4A03212D
:1017EC00D15400E000BF00BF0837BD4680BD00BF2C
:1017FC004000002058000020480000205C00002021
:10180C0050000020600000203403002080B500AFA1
:10181C0000210020FFF72AFF00BF80BD80B500AF7C
:10182C0001210020FFF722FF00BF80BD80B500AF73
:10183C0002210020FFF71AFF00BF80BD80B500AF6A
:10184C0003210020FFF712FF00BF80BD80B500AF61
:10185C0000210120FFF70AFF00BF80BD80B500AF5B
:10186C0001210120FFF702FF00BF80BD80B500AF52
:10187C0002210120FFF7FAFE00BF80BD80B500AF4A
:10188C0003210120FFF7F2FE00BF80BDFFF7E8FE49
:10189C000B480C490C4A002302E0D458C4500433C2
:1018AC00C4188C42F9D3094A094C002301E0136097
:1018BC000432A242FBD302F093FEFEF7F7FE704710
:1018CC0000000020C8000020A0550008C80000201F
:1018DC0088040020FEE7000080B500AF084B1B68B1
:1018EC00074A43F010031360032000F023F90F2084
:1018FC0000F008F8FFF7E8FC0023184680BD00BF95
:10190C000020024080B582B000AF7860124B1A689C
:10191C00124B1B7819464FF47A73B3FBF1F3B2FBFD
:10192C00F3F3184600F03BF90346002B01D00123DA
:10193C000EE07B680F2B0AD8002279684FF0FF303D
:10194C0000F003F9064A7B681360002300E00123D2
:10195C0018460837BD4680BD3000002068000020C6
:10196C006400002080B400AF054B1B781A46054B71
:10197C001B681344034A136000BFBD4680BC70470C
:10198C00680000203803002080B400AF024B1B68B5
:10199C001846BD4680BC70473803002080B485B023
:1019AC0000AF78607B6803F00703FB600C4BDB68CF
:1019BC00BB60BA684FF6FF031340BB60FB681A02AA
:1019CC00BB68134343F0BF6343F40033BB60044A6A
:1019DC00BB68D36000BF1437BD4680BC704700BFE6
:1019EC0000ED00E080B400AF044BDB681B0A03F091
:1019FC0007031846BD4680BC704700BF00ED00E0F1
:101A0C0080B483B000AF0346FB7197F90730002B0D
:101A1C000BDBFB7903F01F02064997F907305B09D2
:101A2C00012000FA02F241F8232000BF0C37BD461A
:101A3C0080BC704700E100E080B483B000AF034687
:101A4C003960FB7197F90730002B0ADB3B68DAB27F
:101A5C000C4997F907301201D2B20B4483F80023DA
:101A6C000AE03B68DAB20849FB7903F00F03043B48
:101A7C001201D2B20B441A7600BF0C37BD4680BCA3
:101A8C00704700BF00E100E000ED00E080B489B0D9
:101A9C0000AFF860B9607A60FB6803F00703FB6184
:101AAC00FB69C3F10703042B28BF0423BB61FB694B
:101ABC000433062B02D9FB69033B00E000237B6156
:101ACC004FF0FF32BB6902FA03F3DA43BB681A40EA
:101ADC007B699A404FF0FF317B6901FA03F3D943DC
:101AEC007B680B40134318462437BD4680BC7047B7
:101AFC0080B582B000AF78607B68013BB3F1807F2A
:101B0C0001D301230FE00A4A7B68013B53600F218C
:101B1C004FF0FF30FFF790FF054B00229A60044B0B
:101B2C0007221A60002318460837BD4680BD00BF47
:101B3C0010E000E080B582B000AF78607868FFF705
:101B4C002DFF00BF0837BD4680BD80B586B000AF05
:101B5C000346B9607A60FB7300237B61FFF742FF99
:101B6C0078617A68B9687869FFF790FF024697F94F
:101B7C000F3011461846FFF75FFF00BF1837BD4600
:101B8C0080BD80B582B000AF0346FB7197F907307A
:101B9C001846FFF735FF00BF0837BD4680BD80B53E
:101BAC0082B000AF78607868FFF7A2FF0346184652
:101BBC000837BD4680BD80B485B000AF7860002387
:101BCC00FB737B6893F82130DBB2022B08D07B6867
:101BDC0004229A637B68002283F82020012320E0F2
:101BEC007B681B681A687B681B6822F00E021A60FF
:101BFC007B681B681A687B681B6822F001021A60FC
:101C0C007B681A6C7B68DB6B012101FA02F25A606B
:101C1C007B68012283F821207B68002283F8202036
:101C2C00FB7B18461437BD4680BC704780B584B02A
:101C3C0000AF78600023FB737B6893F82130DBB234
:101C4C00022B05D07B6804229A630123FB7351E0BD
:101C5C007B681B681A687B681B6822F00E021A608E
:101C6C007B681B681A687B681B6822F001021A608B
:101C7C007B681B68224A934229D07B681B68214AE7
:101C8C00934222D07B681B681F4A93421AD07B6810
:101C9C001B681E4A934212D07B681B681C4A9342F5
:101CAC000AD07B681B681B4A934202D14FF4801305
:101CBC000EE04FF080730BE04FF4803308E04FF4EC
:101CCC00805305E04FF4807302E0102300E0012301
:101CDC00114A53607B68012283F821207B68002223
:101CEC0083F820207B685B6B002B03D07B685B6BDD
:101CFC0078689847FB7B18461037BD4680BD00BFFF
:101D0C00080002401C000240300002404400024027
:101D1C00580002406C0002400000024080B48BB0BE
:101D2C0000AF7860396000237B6200233B6261E185
:101D3C0001227B6A02FA03F3FB613B681B68FA69B8
:101D4C001340BB61BA69FB699A4240F050813B6811
:101D5C005B68974A93425ED0954A934275D8954AF0
:101D6C00934258D0934A93426FD8934A934252D09D
:101D7C00914A934269D8914A93424CD08F4A9342EC
:101D8C0063D88F4A934246D08D4A93425DD8122B2A
:101D9C002AD8122B59D801A252F823F0231E00087E
:101DAC00FD1D00080F1E0008511E0008571E0008DC
:101DBC00571E0008571E0008571E0008571E000823
:101DCC00571E0008571E0008571E0008571E000813
:101DDC00571E0008571E0008571E0008571E000803
:101DEC00051E0008191E0008764A934213D02CE0F9
:101DFC003B68DB683B6229E03B68DB6804333B6291
:101E0C0024E03B68DB6808333B621FE03B68DB681F
:101E1C000C333B621AE03B689B68002B02D1042315
:101E2C003B6213E03B689B68012B05D108233B62A6
:101E3C007B68FA691A6109E008233B627B68FA69DE
:101E4C005A6103E000233B6200E000BFBB69FF2B3B
:101E5C0001D87B6801E07B6804337B61BB69FF2B95
:101E6C0002D87B6A9B0002E07B6A083B9B003B61CB
:101E7C007B691A680F213B6901FA03F3DB431A40B3
:101E8C00396A3B6901FA03F31A437B691A603B68B0
:101E9C005B6803F08053002B00F0A9804A4B9B69D0
:101EAC00494A43F001039361474B9B6903F00103DB
:101EBC00BB60BB68454A7B6A9B08023352F82330EF
:101ECC00FB607B6A03F003039B000F2202FA03F30F
:101EDC00DB43FA681340FB607B683D4A93420DD0AC
:101EEC007B683C4A934207D07B683B4A934201D1C2
:101EFC00022304E0032302E0012300E000237A6ABA
:101F0C0002F0030292009340FA681343FB602F49DE
:101F1C007B6A9B080233FA6841F823203B685B68B4
:101F2C0003F48013002B06D02C4B9A682B49BB6909
:101F3C0013438B6006E0294B9A68BB69DB43274946
:101F4C0013408B603B685B6803F40013002B06D0D6
:101F5C00224BDA682149BB691343CB6006E01F4B67
:101F6C00DA68BB69DB431D491340CB603B685B6897
:101F7C0003F40033002B06D0184B5A681749BB6981
:101F8C0013434B6006E0154B5A68BB69DB4313499E
:101F9C0013404B603B685B6803F48033002B1FD00D
:101FAC000E4B1A680D49BB6913430B601FE000BF51
:101FBC00000032100000311000002210000021102F
:101FCC00000012100000111000100240000001402F
:101FDC0000080140000C01400010014000040140C9
:101FEC000B4B1A68BB69DB43094913400B607B6AD6
:101FFC0001337B623B681A687B6A22FA03F3002B7D
:10200C007FF496AE00BF00BF2C37BD4680BC704736
:10201C000004014080B485B000AF78600B467B8033
:10202C007B689A687B881340002B02D00123FB73DA
:10203C0001E00023FB73FB7B18461437BD4680BCC4
:10204C00704780B483B000AF78600B467B8013463A
:10205C007B707B78002B03D07A887B681A6103E055
:10206C007B881A047B681A6100BF0C37BD4680BCA4
:10207C00704780B485B000AF78600B467B807B687E
:10208C00DB68FB607A88FB6813401A04FB68D94351
:10209C007B880B401A437B681A6100BF1437BD461E
:1020AC0080BC704780B586B000AF78607B68002B31
:1020BC0001D1012372E27B681B6803F00103002B42
:1020CC0000F08780924B5B6803F00C03042B0CD060
:1020DC008F4B5B6803F00C03082B12D18C4B5B68A5
:1020EC0003F48033B3F5803F0BD1894B1B6803F4A9
:1020FC000033002B6CD07B685B68002B68D101230C
:10210C004CE27B685B68B3F5803F06D1804B1B6863
:10211C007F4A43F4803313602EE07B685B68002BAE
:10212C000CD17B4B1B687A4A23F480331360784BB9
:10213C001B68774A23F4802313601DE07B685B687F
:10214C00B3F5A02F0CD1724B1B68714A43F480235A
:10215C0013606F4B1B686E4A43F4803313600BE0C3
:10216C006B4B1B686A4A23F480331360684B1B6803
:10217C00674A23F4802313607B685B68002B13D0C1
:10218C00FFF702FC386108E0FFF7FEFB02463B69F3
:10219C00D31A642B01D9032300E25D4B1B6803F4B3
:1021AC000033002BF0D014E0FFF7EEFB386108E0B1
:1021BC00FFF7EAFB02463B69D31A642B01D90323D0
:1021CC00ECE1534B1B6803F40033002BF0D100E01F
:1021DC0000BF7B681B6803F00203002B63D04C4BE1
:1021EC005B6803F00C03002B0BD0494B5B6803F0CE
:1021FC000C03082B1CD1464B5B6803F48033002B7B
:10220C0016D1434B1B6803F00203002B05D07B68EF
:10221C001B69012B01D00123C0E13D4B1B6823F04E
:10222C00F8027B685B69DB00394913430B603AE0C9
:10223C007B681B69002B20D0364B01221A60FFF7FC
:10224C00A3FB386108E0FFF79FFB02463B69D31AFA
:10225C00022B01D90323A1E12D4B1B6803F00203D0
:10226C00002BF0D02A4B1B6823F0F8027B685B69CB
:10227C00DB00274913430B6015E0264B00221A6044
:10228C00FFF782FB386108E0FFF77EFB02463B69F3
:10229C00D31A022B01D9032380E11D4B1B6803F0D9
:1022AC000203002BF0D17B681B6803F00803002BA2
:1022BC003AD07B689B69002B19D0174B01221A600E
:1022CC00FFF762FB386108E0FFF75EFB02463B69F3
:1022DC00D31A022B01D9032360E10D4B5B6A03F087
:1022EC000203002BF0D0012000F0CEFA1CE00A4BC8
:1022FC0000221A60FFF748FB38610FE0FFF744FB40
:10230C0002463B69D31A022B08D9032346E100BFCE
:10231C00001002400000424280044242924B5B6A31
:10232C0003F00203002BE9D17B681B6803F0040364
:10233C00002B00F0A6800023FB758B4BDB6903F0B0
:10234C008053002B0DD1884BDB69874A43F08053B7
:10235C00D361854BDB6903F08053BB60BB68012301
:10236C00FB75824B1B6803F48073002B18D17F4BD9
:10237C001B687E4A43F480731360FFF705FB3861DA
:10238C0008E0FFF701FB02463B69D31A642B01D925
:10239C00032303E1754B1B6803F48073002BF0D00F
:1023AC007B68DB68012B06D16F4B1B6A6E4A43F0CE
:1023BC00010313622DE07B68DB68002B0CD16A4BA8
:1023CC001B6A694A23F001031362674B1B6A664A56
:1023DC0023F0040313621CE07B68DB68052B0CD133
:1023EC00614B1B6A604A43F0040313625E4B1B6A29
:1023FC005D4A43F0010313620BE05B4B1B6A5A4AC4
:10240C0023F001031362584B1B6A574A23F0040351
:10241C0013627B68DB68002B15D0FFF7B5FA3861C7
:10242C000AE0FFF7B1FA02463B69D31A41F288324F
:10243C00934201D90323B1E04B4B1B6A03F0020317
:10244C00002BEED014E0FFF79FFA38610AE0FFF79B
:10245C009BFA02463B69D31A41F28832934201D966
:10246C0003239BE0404B1B6A03F00203002BEED1CD
:10247C00FB7D012B05D13C4BDB693B4A23F08053A0
:10248C00D3617B68DB69002B00F08780364B5B687F
:10249C0003F00C03082B61D07B68DB69022B46D15F
:1024AC00334B00221A60FFF76FFA386108E0FFF730
:1024BC006BFA02463B69D31A022B01D903236DE058
:1024CC00294B1B6803F00073002BF0D17B681B6A4F
:1024DC00B3F5803F08D1244B5B6823F400327B6852
:1024EC009B68214913434B601F4B5B6823F47412A8
:1024FC007B68196A7B685B6A0B431B4913434B600F
:10250C001B4B01221A60FFF73FFA386108E0FFF716
:10251C003BFA02463B69D31A022B01D903233DE057
:10252C00114B1B6803F00073002BF0D035E0104BFF
:10253C0000221A60FFF728FA386108E0FFF724FA46
:10254C0002463B69D31A022B01D9032326E0064B22
:10255C001B6803F00073002BF0D11EE07B68DB6975
:10256C00012B07D1012319E000100240007000403C
:10257C00600042420B4B5B68FB60FB6803F48032EB
:10258C007B681B6A9A4206D1FB6803F470127B6865
:10259C005B6A9A4201D0012300E0002318461837E9
:1025AC00BD4680BD0010024080B584B000AF78609D
:1025BC0039607B68002B01D10123D0E06A4B1B688A
:1025CC0003F007033A689A4210D9674B1B6823F053
:1025DC00070265493B6813430B60634B1B6803F0B0
:1025EC0007033A689A4201D00123B8E07B681B6864
:1025FC0003F00203002B20D07B681B6803F004035C
:10260C00002B05D0594B5B68584A43F4E063536088
:10261C007B681B6803F00803002B05D0534B5B68E9
:10262C00524A43F460535360504B5B6823F0F00202
:10263C007B689B684D4913434B607B681B6803F0B8
:10264C000103002B40D07B685B68012B07D1474B03
:10265C001B6803F40033002B15D101237FE07B684A
:10266C005B68022B07D1414B1B6803F00073002BF6
:10267C0009D1012373E03D4B1B6803F00203002BCF
:10268C0001D101236BE0394B5B6823F003027B68BB
:10269C005B68364913434B60FFF776F9F8600AE044
:1026AC00FFF772F90246FB68D31A41F28832934263
:1026BC0001D9032353E02D4B5B6803F00C027B68BC
:1026CC005B689B009A42EBD1274B1B6803F0070316
:1026DC003A689A4210D2244B1B6823F00702224915
:1026EC003B6813430B60204B1B6803F007033A68ED
:1026FC009A4201D0012332E07B681B6803F004038B
:10270C00002B08D0194B5B6823F4E0627B68DB6814
:10271C00164913434B607B681B6803F00803002BBE
:10272C0009D0124B5B6823F460527B681B69DB0099
:10273C000E4913434B6000F021F802460B4B5B68CB
:10274C001B0903F00F030A49CB5C22FA03F3094A75
:10275C001360094B1B681846FFF7D4F80023184682
:10276C001037BD4680BD00BF002002400010024063
:10277C0038550008300000206400002080B487B079
:10278C0000AF0023FB600023BB6000237B610023B0
:10279C007B6000233B611E4B5B68FB60FB6803F0B6
:1027AC000C03042B02D0082B03D027E0194B3B6100
:1027BC0027E0FB689B0C03F00F03174AD35C7B608C
:1027CC00FB6803F48033002B10D0114B5B685B0C5F
:1027DC0003F00103114AD35CBB607B680D4A03FB19
:1027EC0002F2BB68B2FBF3F37B6104E07B680C4A3A
:1027FC0002FB03F37B617B693B6102E0054B3B61B0
:10280C0000BF3B6918461C37BD4680BC704700BFF3
:10281C000010024000127A00505500086055000864
:10282C0000093D0080B400AF024B1B681846BD4642
:10283C0080BC70473000002080B500AFFFF7F2FF7E
:10284C000246054B5B681B0A03F007030349CB5C8C
:10285C0022FA03F3184680BD0010024048550008C8
:10286C0080B500AFFFF7DEFF0246054B5B68DB0A65
:10287C0003F007030349CB5C22FA03F3184680BD2F
:10288C00001002404855000880B485B000AF786055
:10289C000A4B1B680A4AA2FB03235B0A7A6802FBF9
:1028AC0003F3FB6000BFFB685A1EFA60002BF9D1E2
:1028BC0000BF00BF1437BD4680BC704730000020FD
:1028CC00D34D621080B582B000AF78607B68002B6E
:1028DC0001D1012341E07B6893F83D30DBB2002B42
:1028EC0006D17B68002283F83C207868FEF70EFD49
:1028FC007B68022283F83D207B681A687B6804336E
:10290C001946104600F088FB7B68012283F84620AC
:10291C007B68012283F83E207B68012283F83F20EC
:10292C007B68012283F840207B68012283F84120D8
:10293C007B68012283F842207B68012283F84320C4
:10294C007B68012283F844207B68012283F84520B0
:10295C007B68012283F83D20002318460837BD46CA
:10296C0080BD000080B485B000AF78607B6893F8C0
:10297C003D30DBB2012B01D0012335E07B68022214
:10298C0083F83D207B681B68DA687B681B6842F023
:10299C000102DA607B681B68164A934209D07B6897
:1029AC001B68B3F1804F04D07B681B68124A9342BA
:1029BC0011D17B681B689B6803F00703FB60FB6805
:1029CC00062B10D07B681B681A687B681B6842F06A
:1029DC0001021A6007E07B681B681A687B681B6839
:1029EC0042F001021A60002318461437BD4680BC21
:1029FC00704700BF002C01400004004080B582B03D
:102A0C0000AF78607B68002B01D1012341E07B682B
:102A1C0093F83D30DBB2002B06D17B68002283F8A3
:102A2C003C20786800F039F87B68022283F83D205E
:102A3C007B681A687B6804331946104600F0ECFA80
:102A4C007B68012283F846207B68012283F83E20B4
:102A5C007B68012283F83F207B68012283F84020A9
:102A6C007B68012283F841207B68012283F8422095
:102A7C007B68012283F843207B68012283F8442081
:102A8C007B68012283F845207B68012283F83D2076
:102A9C00002318460837BD4680BD80B483B000AF14
:102AAC00786000BF0C37BD4680BC704780B582B0E3
:102ABC0000AF78607B681B681B6903F00203022B74
:102ACC0022D17B681B68DB6803F00203022B1BD14D
:102ADC007B681B686FF002021A617B6801221A770F
:102AEC007B681B689B6903F00303002B03D0786899
:102AFC0000F076FA05E0786800F069FA786800F082
:102B0C0078FA7B6800221A777B681B681B6903F0D4
:102B1C000403042B22D17B681B68DB6803F00403DD
:102B2C00042B1BD17B681B686FF004021A617B6855
:102B3C0002221A777B681B689B6903F44073002B95
:102B4C0003D0786800F04CFA05E0786800F03FFAA2
:102B5C00786800F04EFA7B6800221A777B681B6855
:102B6C001B6903F00803082B22D17B681B68DB6808
:102B7C0003F00803082B1BD17B681B686FF008025D
:102B8C001A617B6804221A777B681B68DB6903F087
:102B9C000303002B03D0786800F022FA05E0786874
:102BAC0000F015FA786800F024FA7B6800221A7796
:102BBC007B681B681B6903F01003102B22D17B6808
:102BCC001B68DB6803F01003102B1BD17B681B68A0
:102BDC006FF010021A617B6808221A777B681B68F9
:102BEC00DB6903F44073002B03D0786800F0F8F92C
:102BFC0005E0786800F0EBF9786800F0FAF97B688A
:102C0C0000221A777B681B681B6903F00103012BF8
:102C1C000ED17B681B68DB6803F00103012B07D125
:102C2C007B681B686FF001021A617868FDF72AFF58
:102C3C007B681B681B6903F08003802B0ED17B68BB
:102C4C001B68DB6803F08003802B07D17B681B6853
:102C5C006FF080021A61786800F0B5FC7B681B6825
:102C6C001B6903F04003402B0ED17B681B68DB68AB
:102C7C0003F04003402B07D17B681B686FF04002C8
:102C8C001A61786800F0BEF97B681B681B6903F059
:102C9C002003202B0ED17B681B68DB6803F020031C
:102CAC00202B07D17B681B686FF020021A617868B3
:102CBC0000F080FC00BF0837BD4680BD80B586B0F3
:102CCC0000AFF860B9607A600023FB75FB6893F87D
:102CDC003C30012B01D10223AEE0FB68012283F8CA
:102CEC003C207B680C2B00F29F8001A252F823F051
:102CFC00312D0008352E0008352E0008352E000821
:102D0C00712D0008352E0008352E0008352E0008D0
:102D1C00B32D0008352E0008352E0008352E00087E
:102D2C00F32D0008FB681B68B968184600F0CCF955
:102D3C00FB681B689A69FB681B6842F008029A6181
:102D4C00FB681B689A69FB681B6822F004029A6195
:102D5C00FB681B689969BB681A69FB681B680A43A6
:102D6C009A6164E0FB681B68B968184600F012FAB7
:102D7C00FB681B689A69FB681B6842F400629A61E5
:102D8C00FB681B689A69FB681B6822F480629A6175
:102D9C00FB681B689969BB681B691A02FB681B6896
:102DAC000A439A6143E0FB681B68B968184600F057
:102DBC005BFAFB681B68DA69FB681B6842F0080267
:102DCC00DA61FB681B68DA69FB681B6822F0040295
:102DDC00DA61FB681B68D969BB681A69FB681B68F8
:102DEC000A43DA6123E0FB681B68B968184600F0F7
:102DFC00A5FAFB681B68DA69FB681B6842F4006281
:102E0C00DA61FB681B68DA69FB681B6822F4806274
:102E1C00DA61FB681B68D969BB681B691A02FB681D
:102E2C001B680A43DA6102E00123FB7500BFFB68F3
:102E3C00002283F83C20FB7D18461837BD4680BD28
:102E4C0080B584B000AF786039600023FB737B6879
:102E5C0093F83C30012B01D10223B4E07B680122B2
:102E6C0083F83C207B68022283F83D207B681B683A
:102E7C009B68BB60BB6823F07703BB60BB6823F423
:102E8C007F43BB607B681B68BA689A603B681B68B1
:102E9C00B3F5005F3ED0B3F5005F00F28780B3F569
:102EAC00805F00F08680B3F5805F7FD8702B1AD0DE
:102EBC00702B7BD8602B50D0602B77D8502B3CD00C
:102ECC00502B73D8402B58D0402B6FD8302B64D05C
:102EDC00302B6BD8202B60D0202B67D8002B5CD0EC
:102EEC00102B5AD062E07B6818683B6899683B6885
:102EFC005A683B68DB6800F0E6FA7B681B689B68E5
:102F0C00BB60BB6843F07703BB607B681B68BA6827
:102F1C009A604FE07B6818683B6899683B685A6810
:102F2C003B68DB6800F0CFFA7B681B689A687B68AB
:102F3C001B6842F480429A603CE07B6818683B68EE
:102F4C0059683B68DB681A4600F046FA7B681B68D8
:102F5C005021184600F09DFA2CE07B6818683B68FD
:102F6C0059683B68DB681A4600F064FA7B681B689A
:102F7C006021184600F08DFA1CE07B6818683B68ED
:102F8C0059683B68DB681A4600F026FA7B681B68B8
:102F9C004021184600F07DFA0CE07B681A683B680B
:102FAC001B681946104600F074FA03E00123FB730A
:102FBC0000E000BF7B68012283F83D207B68002283
:102FCC0083F83C20FB7B18461037BD4680BD80B48F
:102FDC0083B000AF786000BF0C37BD4680BC704733
:102FEC0080B483B000AF786000BF0C37BD4680BCA6
:102FFC00704780B483B000AF786000BF0C37BD461B
:10300C0080BC704780B483B000AF786000BF0C37D1
:10301C00BD4680BC7047000080B485B000AF7860BE
:10302C0039607B681B68FB607B68254A934207D03C
:10303C007B68B3F1804F03D07B68224A934208D15E
:10304C00FB6823F07003FB603B685B68FA68134312
:10305C00FB607B681A4A934207D07B68B3F1804FC0
:10306C0003D07B68174A934208D1FB6823F4407362
:10307C00FB603B68DB68FA681343FB60FB6823F07A
:10308C0080023B685B691343FB607B68FA681A60DB
:10309C003B689A687B68DA623B681A687B689A625C
:1030AC007B68074A934203D13B681A697B681A63B1
:1030BC007B6801225A6100BF1437BD4680BC704743
:1030CC00002C01400004004080B487B000AF786051
:1030DC0039607B681B6A7B617B681B6A23F0010289
:1030EC007B681A627B685B683B617B689B69FB60F1
:1030FC00FB6823F07003FB60FB6823F00303FB60A9
:10310C003B681B68FA681343FB607B6923F002037E
:10311C007B613B689B687A6913437B617B681C4AC3
:10312C0093420CD17B6923F008037B613B68DB681D
:10313C007A6913437B617B6923F004037B617B68B1
:10314C00134A934211D13B6923F480733B613B6971
:10315C0023F400733B613B685B693A6913433B6141
:10316C003B689B693A6913433B617B683A695A60D7
:10317C007B68FA689A613B685A687B685A637B681B
:10318C007A691A6200BF1C37BD4680BC704700BF0D
:10319C00002C014080B487B000AF786039607B6848
:1031AC001B6A7B617B681B6A23F010027B681A62C6
:1031BC007B685B683B617B689B69FB60FB6823F405
:1031CC00E043FB60FB6823F44073FB603B681B68C7
:1031DC001B02FA681343FB607B6923F020037B61BD
:1031EC003B689B681B017A6913437B617B681D4AB2
:1031FC0093420DD17B6923F080037B613B68DB68D4
:10320C001B017A6913437B617B6923F040037B616B
:10321C007B68144A934213D13B6923F480633B616E
:10322C003B6923F400633B613B685B699B003A6933
:10323C0013433B613B689B699B003A6913433B61B9
:10324C007B683A695A607B68FA689A613B685A688D
:10325C007B689A637B687A691A6200BF1C37BD462B
:10326C0080BC7047002C014080B487B000AF786000
:10327C0039607B681B6A7B617B681B6A23F48072F4
:10328C007B681A627B685B683B617B68DB69FB600F
:10329C00FB6823F07003FB60FB6823F00303FB6007
:1032AC003B681B68FA681343FB607B6923F400736B
:1032BC007B613B689B681B027A6913437B617B686B
:1032CC001D4A93420DD17B6923F400637B613B68FB
:1032DC00DB681B027A6913437B617B6923F480638F
:1032EC007B617B68144A934213D13B6923F480536E
:1032FC003B613B6923F400533B613B685B691B01F9
:10330C003A6913433B613B689B691B013A69134360
:10331C003B617B683A695A607B68FA68DA613B68A2
:10332C005A687B68DA637B687A691A6200BF1C375B
:10333C00BD4680BC704700BF002C014080B487B0F4
:10334C0000AF786039607B681B6A3B617B681B6AE5
:10335C0023F480527B681A627B685B687B617B68B4
:10336C00DB69FB60FB6823F4E043FB60FB6823F440
:10337C004073FB603B681B681B02FA681343FB60DD
:10338C003B6923F400533B613B689B681B033A6920
:10339C0013433B617B680F4A934209D17B6923F449
:1033AC0080437B613B685B699B017A6913437B615A
:1033BC007B687A695A607B68FA68DA613B685A689C
:1033CC007B681A647B683A691A6200BF1C37BD4679
:1033DC0080BC7047002C014080B487B000AFF8600F
:1033EC00B9607A60FB681B6A7B61FB681B6A23F01F
:1033FC000102FB681A62FB689B693B613B6923F025
:10340C00F0033B617B681B013A6913433B617B69A9
:10341C0023F00A037B617A69BB6813437B61FB6809
:10342C003A699A61FB687A691A6200BF1C37BD461B
:10343C0080BC704780B487B000AFF860B9607A6028
:10344C00FB681B6A7B61FB681B6A23F01002FB683C
:10345C001A62FB689B693B613B6923F470433B61D7
:10346C007B681B033A6913433B617B6923F0A00320
:10347C007B61BB681B017A6913437B61FB683A690A
:10348C009A61FB687A691A6200BF1C37BD4680BC22
:10349C00704780B485B000AF786039607B689B68FA
:1034AC00FB60FB6823F07003FB603A68FB68134316
:1034BC0043F00703FB607B68FA689A6000BF14371F
:1034CC00BD4680BC704780B487B000AFF860B9606F
:1034DC007A603B60FB689B687B617B6923F47F436C
:1034EC007B613B681A027B681A43BB6813437A6999
:1034FC0013437B61FB687A699A6000BF1C37BD4639
:10350C0080BC704780B485B000AF786039607B6850
:10351C0093F83C30012B01D1022341E07B6801225E
:10352C0083F83C207B68022283F83D207B681B6873
:10353C005B68FB607B681B689B68BB60FB6823F067
:10354C007003FB603B681B68FA681343FB607B6885
:10355C001B68FA685A607B681B68144A934209D04E
:10356C007B681B68B3F1804F04D07B681B68104AE2
:10357C0093420CD1BB6823F08003BB603B685B6853
:10358C00BA681343BB607B681B68BA689A607B6837
:10359C00012283F83D207B68002283F83C20002325
:1035AC0018461437BD4680BC704700BF002C014044
:1035BC000004004080B483B000AF786000BF0C37CB
:1035CC00BD4680BC704780B483B000AF786000BF4C
:1035DC000C37BD4680BC704780B582B000AF7860B8
:1035EC007B68002B01D1012342E07B6893F84130CA
:1035FC00DBB2002B06D17B68002283F84020786870
:10360C00FDF7F6FE7B68242283F841207B681B685B
:10361C00DA687B681B6822F40052DA60786800F084
:10362C00C5FD7B681B681A697B681B6822F4904295
:10363C001A617B681B685A697B681B6822F02A0236
:10364C005A617B681B68DA687B681B6842F400521D
:10365C00DA607B6800225A647B68202283F8412060
:10366C007B68202283F842207B6800225A63002367
:10367C0018460837BD4680BD80B58AB002AFF860E9
:10368C00B9603B601346FB8000237B61FB6893F8B9
:10369C004130DBB2202B6DD1BB68002B02D0FB88F4
:1036AC00002B01D1012366E0FB6800225A64FB6801
:1036BC00212283F84120FEF767F97861FB68FA88CC
:1036CC009A84FB68FA88DA84FB689B68B3F5805FA0
:1036DC0008D1FB681B69002B04D10023FB61BB687C
:1036EC00BB6103E0BB68FB610023BB612AE03B6864
:1036FC0000937B6900228021F86800F014FB0346DC
:10370C00002B01D0032336E0FB69002B0BD1BB69E6
:10371C001B881A46FB681B68C2F308025A60BB6917
:10372C000233BB6107E0FB691A78FB681B685A60BF
:10373C00FB690133FB61FB68DB8C9BB2013B9AB2EA
:10374C00FB68DA84FB68DB8C9BB2002BCFD13B6827
:10375C0000937B6900224021F86800F0E4FA0346EC
:10376C00002B01D0032306E0FB68202283F84120C4
:10377C00002300E0022318462037BD4680BD80B5EB
:10378C0084B000AFF860B9601346FB80FB6893F817
:10379C004230DBB2202B12D1BB68002B02D0FB884D
:1037AC00002B01D101230BE0FB6800221A63FB887C
:1037BC001A46B968F86800F024FB034600E00223BF
:1037CC0018461037BD4680BD80B5BAB000AF7860E2
:1037DC007B681B681B68C7F8E4307B681B68DB6878
:1037EC00C7F8E0307B681B685B69C7F8DC300023E6
:1037FC00C7F8D8300023C7F8D430D7F8E43003F03A
:10380C000F03C7F8D830D7F8D830002B0FD1D7F822
:10381C00E43003F02003002B09D0D7F8E03003F09C
:10382C002003002B03D0786800F001FC5BE2D7F892
:10383C00D830002B00F0DE80D7F8DC3003F0010329
:10384C00002B06D1D7F8E03003F49073002B00F076
:10385C00D180D7F8E43003F00103002B0BD0D7F85C
:10386C00E03003F48073002B05D07B685B6C43F075
:10387C0001027B685A64D7F8E43003F00403002B90
:10388C000BD0D7F8DC3003F00103002B05D07B689C
:10389C005B6C43F002027B685A64D7F8E43003F0A7
:1038AC000203002B0BD0D7F8DC3003F00103002B04
:1038BC0005D07B685B6C43F004027B685A64D7F8D4
:1038CC00E43003F00803002B11D0D7F8E03003F0FC
:1038DC002003002B05D1D7F8DC3003F00103002BBB
:1038EC0005D07B685B6C43F008027B685A647B688C
:1038FC005B6C002B00F0F281D7F8E43003F020036E
:10390C00002B08D0D7F8E03003F02003002B02D0B6
:10391C00786800F08CFB7B681B685B6903F04003E4
:10392C00002B14BF01230023DBB2C7F8D4307B6813
:10393C005B6C03F00803002B03D1D7F8D430002BB9
:10394C004FD0786800F096FA7B681B685B6903F0CF
:10395C004003002B41D07B681B681433C7F89C30A4
:10396C00D7F89C3053E8003FC7F89830D7F8983018
:10397C0023F04003C7F8D0307B681B681433D7F8AA
:10398C00D020C7F8A820C7F8A430D7F8A410D7F8CF
:10399C00A82041E80023C7F8A030D7F8A030002BAE
:1039AC00D9D17B68DB6B002B13D07B68DB6B7E4A39
:1039BC005A637B68DB6B1846FEF738F90346002B1D
:1039CC0016D07B68DB6B5B6B7A68D26B10469847C2
:1039DC000EE0786800F093F90AE0786800F08FF94F
:1039EC0006E0786800F08BF97B6800225A6475E178
:1039FC0000BF73E17B681B6B012B40F04F81D7F844
:103A0C00E43003F01003002B00F04881D7F8E030CD
:103A1C0003F01003002B00F041810023BB607B6896
:103A2C001B681B68BB607B681B685B68BB60BB6802
:103A3C007B681B685B6903F04003002B00F0B680C9
:103A4C007B68DB6B1B685B68A7F8BE30B7F8BE30D1
:103A5C00002B00F045817B689B8DB7F8BE209A4205
:103A6C0080F03E817B68B7F8BE20DA857B68DB6B23
:103A7C009B69202B00F088807B681B680C33C7F88F
:103A8C008830D7F8883053E8003FC7F88430D7F82F
:103A9C00843023F48073C7F8B8307B681B680C3310
:103AAC00D7F8B820C7F89420C7F89030D7F8901002
:103ABC00D7F8942041E80023C7F88C30D7F88C3025
:103ACC00002BD9D17B681B6814337B677B6F53E861
:103ADC00003F3B673B6F23F00103C7F8B4307B68B2
:103AEC001B681433D7F8B420C7F88020FB67F96F34
:103AFC00D7F8802041E80023BB67BB6F002BE1D1D6
:103B0C007B681B6814333B663B6E53E8003FFB65D8
:103B1C00FB6D23F04003C7F8B0307B681B6814338F
:103B2C00D7F8B020FA66BB66B96EFA6E41E800238E
:103B3C007B667B6E002BE3D17B68202283F84220CE
:103B4C007B6800221A637B681B680C33FB64FB6C7C
:103B5C0053E8003FBB64BB6C23F01003C7F8AC30D8
:103B6C007B681B680C33D7F8AC20BA657B65796D24
:103B7C00BA6D41E800233B653B6D002BE3D17B68BC
:103B8C00DB6B1846FEF717F87B6802225A637B68DA
:103B9C009A8D7B68DB8D9BB2D31A9BB219467868E1
:103BAC0000F0B6F89CE000BF453F00087B689A8D9A
:103BBC007B68DB8D9BB2D31AA7F8CE307B68DB8D8C
:103BCC009BB2002B00F08E80B7F8CE30002B00F0AB
:103BDC0089807B681B680C33BB63BB6B53E8003F6D
:103BEC007B637B6B23F49073C7F8C8307B681B68CE
:103BFC000C33D7F8C8207A643B64396C7A6C41E892
:103C0C000023FB63FB6B002BE3D17B681B68143335
:103C1C007B627B6A53E8003F3B623B6A23F0010303
:103C2C00C7F8C4307B681B681433D7F8C4203A63D8
:103C3C00FB62F96A3A6B41E80023BB62BB6A002B5A
:103C4C00E3D17B68202283F842207B6800221A6330
:103C5C007B681B680C333B613B6953E8003FFB609E
:103C6C00FB6823F01003C7F8C0307B681B680C336B
:103C7C00D7F8C020FA61BB61B969FA6941E8002341
:103C8C007B617B69002BE3D17B6802225A63B7F816
:103C9C00CE301946786800F03BF823E0D7F8E430D2
:103CAC0003F08003002B09D0D7F8E03003F0800339
:103CBC00002B03D0786800F053F914E0D7F8E43007
:103CCC0003F04003002B0ED0D7F8E03003F0400394
:103CDC00002B08D0786800F092F904E000BF02E0F5
:103CEC0000BF00E000BFE837BD4680BD80B483B0A4
:103CFC0000AF786000BF0C37BD4680BC704780B405
:103D0C0083B000AF786000BF0C37BD4680BC7047F5
:103D1C0080B483B000AF78600B467B8000BF0C375B
:103D2C00BD4680BC704780B590B000AFF860B960FC
:103D3C003B601346FB7150E0BB6CB3F1FF3F4CD0C2
:103D4C00BB6C002B07D0FDF71FFE02463B68D31A55
:103D5C00BA6C9A4241D2FB681B680C33BB62BB6ADB
:103D6C0053E8003F7B627B6A23F4D073FB63FB68F0
:103D7C001B680C33FA6B7A633B63396B7A6B41E8E3
:103D8C000023FB62FB6A002BE5D1FB681B68143334
:103D9C007B617B6953E8003F3B613B6923F0010386
:103DAC00BB63FB681B681433BA6B3A62FB61F9693D
:103DBC003A6A41E80023BB61BB69002BE5D1FB6883
:103DCC00202283F84120FB68202283F84220FB68E4
:103DDC00002283F8402003230FE0FB681B681A685D
:103DEC00BB681340BA689A420CBF01230023DBB2B4
:103DFC001A46FB799A429FD0002318464037BD469D
:103E0C0080BD80B485B000AFF860B9601346FB800C
:103E1C00FB68BA689A62FB68FA889A85FB68FA882C
:103E2C00DA85FB6800225A64FB68222283F8422060
:103E3C00FB681B69002B07D0FB681B68DA68FB6802
:103E4C001B6842F48072DA60FB681B685A69FB6875
:103E5C001B6842F001025A61FB681B68DA68FB6858
:103E6C001B6842F02002DA60002318461437BD4666
:103E7C0080BC704780B495B000AF78607B681B68DD
:103E8C000C337B637B6B53E8003F3B633B6B23F44E
:103E9C009073FB647B681B680C33FA6C3A64FB63AD
:103EAC00F96B3A6C41E80023BB63BB6B002BE5D18B
:103EBC007B681B6814333B623B6A53E8003FFB6131
:103ECC00FB6923F00103BB647B681B681433BA6C79
:103EDC00FA62BB62B96AFA6A41E800237B627B6AC8
:103EEC00002BE5D17B681B6B012B19D17B681B6800
:103EFC000C33FB60FB6853E8003FBB60BB6823F0EE
:103F0C0010037B647B681B680C337A6CBA617B6131
:103F1C007969BA6941E800233B613B69002BE5D123
:103F2C007B68202283F842207B6800221A6300BF42
:103F3C005437BD4680BC704780B584B000AF786004
:103F4C007B685B6AFB60FB680022DA85FB680022F9
:103F5C00DA84F868FFF7D3FE00BF1037BD4680BD8A
:103F6C0080B485B000AF78607B6893F84130DBB2E9
:103F7C00212B3ED17B689B68B3F5805F14D17B68A5
:103F8C001B69002B10D17B681B6AFB60FB681B88CC
:103F9C001A467B681B68C2F308025A607B681B6A6E
:103FAC009A1C7B681A6208E07B681B6A591C7A6849
:103FBC0011621A787B681B685A607B68DB8C9BB239
:103FCC00013B9BB27A681946D184002B0FD17B68D8
:103FDC001B68DA687B681B6822F08002DA607B68F9
:103FEC001B68DA687B681B6842F04002DA600023C9
:103FFC0000E0022318461437BD4680BC704780B5DC
:10400C0082B000AF78607B681B68DA687B681B68DD
:10401C0022F04002DA607B68202283F84120786825
:10402C00FFF764FE002318460837BD4680BD80B5F7
:10403C008CB000AF78607B6893F84230DBB2222BF7
:10404C0040F0AE807B689B68B3F5805F17D17B68CE
:10405C001B69002B13D10023FB627B689B6ABB623C
:10406C007B681B685B689BB2C3F308039AB2BB6A9C
:10407C001A807B689B6A9A1C7B689A6226E07B6834
:10408C009B6AFB620023BB627B689B68B3F5805F15
:10409C0007D07B689B68002B0AD17B681B69002BBF
:1040AC0006D17B681B685B68DAB2FB6A1A7008E0A1
:1040BC007B681B685B68DBB203F07F03DAB2FB6AD8
:1040CC001A707B689B6A5A1C7B689A627B68DB8DD2
:1040DC009BB2013B9BB27A681946D185002B5DD10E
:1040EC007B681B68DA687B681B6822F02002DA6048
:1040FC007B681B68DA687B681B6822F48072DA6064
:10410C007B681B685A697B681B6822F001025A6144
:10411C007B68202283F842207B6800225A637B68EC
:10412C001B6B012B35D17B6800221A637B681B68E3
:10413C000C337B617B6953E8003F3B613B6923F0A7
:10414C0010037B627B681B680C337A6A3A62FB61F2
:10415C00F9693A6A41E80023BB61BB69002BE5D1E0
:10416C007B681B681B6803F01003102B0AD100231B
:10417C00FB607B681B681B68FB607B681B685B686B
:10418C00FB60FB687B689B8D19467868FFF7C0FD68
:10419C0002E07868FCF750FA002302E0002300E00C
:1041AC00022318463037BD4680BD000080B584B070
:1041BC0000AF78607B681B681B6923F440517B68F7
:1041CC00DA687B681B680A431A617B689A687B68AB
:1041DC001B691A437B685B691343BB607B681B6874
:1041EC00DB6823F4B05323F00C037A681268B968C7
:1041FC000B43D3607B681B685B6923F440717B685D
:10420C009A697B681B680A435A617B681B682C4A55
:10421C00934203D1FEF724FBF86002E0FEF70CFB9F
:10422C00F860FA6813469B0013449A001A447B68A2
:10423C005B689B00B2FBF3F3224AA2FB03235B09EE
:10424C001901FA6813469B0013449A001A447B68C0
:10425C005B689B00B2FBF3F21A4BA3FB02035B09F6
:10426C00642000FB03F3D31A1B013233154AA2FB63
:10427C0003235B0903F0F0031944FA6813469B000F
:10428C0013449A001A447B685B689B00B2FBF3F200
:10429C000C4BA3FB02035B09642000FB03F3D31A52
:1042AC001B013233074AA2FB03235B0903F00F0205
:1042BC007B681B680A449A6000BF1037BD4680BDFE
:1042CC00003801401F85EB51002310B50446C0E9AE
:1042DC000033C0E90433836081814366C28183610A
:1042EC00194608225C3000F026F90D4B24626362FB
:1042FC000C4BA3620C4BE3620C4B23630C4B9C42A8
:10430C0006D003F16802944202D0D0339C4205D10E
:10431C0004F15800BDE8104000F086B910BD00BF94
:10432C00BD440008DF440008174500083B45000861
:10433C003C030020024A0349034800F069B800BF5F
:10434C006C000020855100087800002041680C4B5F
:10435C0010B59942044601D000F00EFFA168094B3C
:10436C00994202D0204600F007FFE168064B9942C3
:10437C0004D02046BDE8104000F0FEBE10BD00BFCA
:10438C003C030020A40300200C04002010B50B4BB0
:10439C000B4C0C4A20461A6004210022FFF794FFB4
:1043AC0004F1680001220921FFF78EFF04F1D0000F
:1043BC000222BDE810401221FFF786BF74040020D2
:1043CC003C03002041430008014800F02EB900BF17
:1043DC007D040020014800F029B900BF7D040020B5
:1043EC0010B50446FFF7F0FF236A1BB1BDE810407F
:1043FC00FFF7F0BF044B2362044B1B68002BF5D175
:10440C00FFF7C4FFF2E700BF594300087404002013
:10441C002DE9F8430746884614460026D4E9019551
:10442C00B9F1010905D52468002CF7D13046BDE857
:10443C00F883AB89012B07D9B5F90E30013303D0C2
:10444C0029463846C04706436835E9E70FB407B537
:10445C00064904AB086853F8042B8168019300F0FB
:10446C005BFB03B05DF804EB04B07047C4000020A4
:10447C000EB46FF0004100B59CB01DAB02900690DD
:10448C00079104910848094953F8042B05910068D9
:10449C0002A9019300F01AFA0022029B1A701CB0B8
:1044AC005DF804EB03B07047C40000200802FFFF66
:1044BC0010B50C46B1F90E1000F068F80028ABBF2F
:1044CC00636DA3891B1823F48053ACBF6365A38170
:1044DC0010BD2DE9F0411F468B890546DB050C46C6
:1044EC00164605D502230022B1F90E1000F03CF857
:1044FC00A389324623F48053A38128463B46B4F962
:10450C000E10BDE8F04100F053B810B50C46B1F9EF
:10451C000E1000F029F8431CA38915BF606523F425
:10452C00805343F48053A38118BFA38110BDB1F90C
:10453C000E1000F009B803460244934200D17047B4
:10454C0003F8011BF9E7000038B50023054D0446BC
:10455C0008462B60FDF71DF8431C02D12B6803B1F4
:10456C00236038BD7804002038B50446084611464F
:10457C000022054D2A601A46FDF72FF8431C02D184
:10458C002B6803B1236038BD7804002038B504468D
:10459C00084611460022054D2A601A46FCF7C0FF5A
:1045AC00431C02D12B6803B1236038BD7804002072
:1045BC0038B50446084611460022054D2A601A46B5
:1045CC00FCF7CBFF431C02D12B6803B1236038BD31
:1045DC0078040020014B1868704700BFC40000200D
:1045EC0070B500260C4D0D4C641BA410A64209D1CD
:1045FC0000F080FF00260A4D0A4C641BA410A64252
:10460C0005D170BD55F8043B98470136EEE755F8D7
:10461C00043B98470136F2E7985500089855000876
:10462C00985500089C55000870477047704700006B
:10463C0038B50546002940D051F8043C0C1F002B1E
:10464C00B8BFE41800F0DCF81C4A136833B9636097
:10465C0014602846BDE8384000F0D8B8A34208D909
:10466C00206821188B4201BF19685B68091821600A
:10467C00EDE71A465B680BB1A342FAD911685018E2
:10468C00A0420BD120680144501883421160E0D144
:10469C0018685B68084410605360DAE702D90C2391
:1046AC002B60D6E7206821188B4201BF19685B6824
:1046BC000918216063605460CBE738BD800400208A
:1046CC0070B50E4E0C463168054611B900F02CFE43
:1046DC0030602146284600F027FE431C0AD0C41C3B
:1046EC0024F00304A04207D0211A284600F01CFE37
:1046FC00013001D14FF0FF34204670BD84040020FE
:10470C002DE9F843CD1C25F0030508350C2D38BFD9
:10471C000C25002D074601DBA94205D90C230026E8
:10472C003B603046BDE8F883DFF8D08000F068F8D5
:10473C00D8F800301C465CBB29463846FFF7C0FF52
:10474C00431C044655D1D8F800402646002E45D1CE
:10475C00002C48D023683146384604EB030900F09E
:10476C00E3FD81453FD1216838466D1A2946FFF794
:10477C00A7FF013037D023682B442360D8F80030D2
:10478C00002B38D05A68A2422BD100225A600FE07D
:10479C002268521B1FD40B2A17D96119A34225601A
:1047AC0018BF5960636808BFC8F8001062514B60AD
:1047BC00384604F10B0600F029F826F00706231DF5
:1047CC00F21AAED09B1BA350ABE7A3426268DDD1BB
:1047DC00C8F80020ECE723466468ACE734467668FA
:1047EC00B4E71346CCE70C2338463B6000F00EF8D8
:1047FC0097E72560DCE75B60FFDE00BF80040020EC
:10480C000148FFF712BF00BF7C0400200148FFF7EE
:10481C000DBF00BF7C0400202DE9F0471F468E68B9
:10482C008246BE420C4690460B682CD88A8912F4FC
:10483C00906F26D06569096905EB4505A3EB010965
:10484C0005EBD5757B1C4B446D109D4238BF1D4646
:10485C00530527D52946FFF753FF064660B34A4652
:10486C00216900F07FFDA38923F4906343F080035A
:10487C00A38126614E4426603E466561A5EB090581
:10488C00A560BE4200D93E4632464146206800F043
:10489C0031FD0020A3689B1BA36023683344236075
:1048AC00BDE8F0872A4600F06BFD06460028E0D1F3
:1048BC0050462169FFF7BCFE0C23CAF80030A389CF
:1048CC004FF0FF3043F04003A381E9E72DE9F04FAF
:1048DC0098468B8907461B060D4614469DB00ED58F
:1048EC000B6963B94021FFF70BFF2860286120B9E1
:1048FC000C233B604FF0FF30D0E040236B61002372
:10490C00099320238DF8293030234FF00109CDF87D
:10491C000C80DFF8A0818DF82A3023469A4613F8D4
:10492C00012B0AB1252AF9D1BAEB040B0BD05B464B
:10493C00224629463846FFF76FFF013000F0A98068
:10494C00099A5A4409929AF80030002B00F0A18081
:10495C0000234FF0FF32CDE905230AF1010A04933D
:10496C0007938DF853301A935446052214F8011B03
:10497C00504800F0E9FC049AD8B9D00644BF202373
:10498C008DF85330110744BF2B238DF853309AF810
:10499C0000302A2B15D0544600204FF00A0C079AF1
:1049AC00214611F8013B303B092B4DD9B0B1079290
:1049BC0014E0A0EB080309FA03F31343A246049393
:1049CC00D2E7039B191D1B680391002BBBBF5B42F5
:1049DC0042F0020207930793B8BF049223782E2B60
:1049EC000CD163782A2B34D1039B02341A1D1B681B
:1049FC000392002BB8BF4FF0FF330593DFF8B8A03C
:104A0C0003225046217800F09FFC38B14022049BD1
:104A1C00A0EB0A00824013430134049314F8011BE9
:104A2C00062226488DF8281000F08EFC002838D07D
:104A3C00234B1BBB039B073323F007030833039360
:104A4C00099B3344099368E70C4601200CFB0232A6
:104A5C00A6E700234FF00A0C1946013405932046B3
:104A6C0010F8012B303A092A03D9002BC6D0059136
:104A7C00C4E7044601230CFB0121F0E703AB0093D0
:104A8C002A4638460F4B04A9AFF30080421C064659
:104A9C00D6D1AB895B063FF52DAF09981DB0BDE8AB
:104AAC00F08F03AB00932A463846064B04A900F05E
:104ABC00BFF9EBE762550008685500086C55000813
:104ACC000000000025480008936810B4013B002B3F
:104ADC00936007DA9469A34201DB0A2902D110BC66
:104AEC0000F072BB1368581C10601970084610BC9B
:104AFC007047F8B506460F461446D518AC4201D19E
:104B0C00002007E03A46304614F8011BFFF7DCFFA3
:104B1C00431CF3D1F8BD00002DE9F04F0D461446AF
:104B2C00984606469DB018B1036A0BB9FFF758FCBE
:104B3C006B6ED90705D4AB899A0502D4A86DFFF723
:104B4C0074FDAB891B0701D52B699BB929463046EF
:104B5C0000F078FB70B16B6EDC0704D54FF0FF30C2
:104B6C001DB0BDE8F08FAB899805F7D4A86DFFF7A1
:104B7C005DFDF3E70023099320238DF829303023C2
:104B8C004FF00109CDF80C80DFF8AC818DF82A309C
:104B9C0023469A4613F8012B0AB1252AF9D1BAEB10
:104BAC00040B0BD05B46224629463046FFF7A1FF8B
:104BBC00013000F0A980099A5A4409929AF8003001
:104BCC00002B00F0A18000234FF0FF32CDE905232C
:104BDC000AF1010A049307938DF853301A93544643
:104BEC00052214F8011B544800F0AEFB049AD8B906
:104BFC00D10644BF20238DF85330130744BF2B2319
:104C0C008DF853309AF800302A2B15D054460020DA
:104C1C004FF00A0C079A214611F8013B303B092B47
:104C2C004DD9B0B1079214E0A0EB080309FA03F3D5
:104C3C001343A2460493D2E7039B191D1B680391EF
:104C4C00002BBBBF5B4242F0020207930793B8BF35
:104C5C00049223782E2B0CD163782A2B34D1039B0E
:104C6C0002341A1D1B680392002BB8BF4FF0FF33A0
:104C7C000593DFF8C8A003225046217800F064FBAE
:104C8C0038B14022049BA0EB0A008240134301344C
:104C9C00049314F8011B062229488DF8281000F003
:104CAC0053FB00283FD0274B1BBB039B073323F040
:104CBC00070308330393099B3B44099368E70C46AD
:104CCC0001200CFB0232A6E700234FF00A0C194618
:104CDC0001340593204610F8012B303A092A03D9E8
:104CEC00002BC6D00591C4E7044601230CFB01211F
:104CFC00F0E703AB00932A463046134B04A9AFF3FD
:104D0C0000800746781CD6D16B6ED90705D4AB89C9
:104D1C009A0502D4A86DFFF789FCAB895B063FF5B9
:104D2C001DAF09981CE703AB00932A463046064B8F
:104D3C0004A900F07DF8E4E7625500086855000806
:104D4C006C55000800000000FF4A00082DE9F047F0
:104D5C00164699468A680B6907469342B8BF1346B4
:104D6C00336091F843200C46DDF820800AB1013302
:104D7C0033602368990642BF336802333360256879
:104D8C0015F0060506D104F1190AE36832689B1A7E
:104D9C00AB422BDC94F84320131E226818BF01236E
:104DAC00920630D44946384604F14302C0470130DC
:104DBC0023D02368226903F00603042B14BF0025BB
:104DCC0033684FF0000608BFE56804F11A0408BF09
:104DDC00ED1A54F8123C08BF25EAE5759342C4BF9E
:104DEC009B1AED18B5421AD1002008E00123524657
:104DFC0049463846C047013003D14FF0FF30BDE87B
:104E0C00F0870135C1E73020E11881F843005A1CC6
:104E1C0094F845102244023382F84310C2E7012370
:104E2C00224649463846C0470130E6D00136D9E71C
:104E3C002DE9FF470F7E9146782F80460C469A4607
:104E4C000C9D01F1430207D8622F0AD8002F00F005
:104E5C00D580582F00F0C18004F1420584F84270CF
:104E6C003AE0A7F16303152BF6D801A151F823F012
:104E7C00D54E0008E94E0008654E0008654E000846
:104E8C00654E0008654E0008E94E0008654E0008A6
:104E9C00654E0008654E0008654E0008EF4F00088F
:104EAC00154F0008A94F0008654E0008654E000814
:104EBC0011500008654E0008154F0008654E00089B
:104ECC00654E0008B14F00082B681A1D1B682A603C
:104EDC0004F1420584F842300123A0E020682B68DD
:104EEC00070603F10401296001D51E6803E046069C
:104EFC00FBD5B3F90060002E03DA2D23764284F83B
:104F0C0043300A23594812E02B682068191D296088
:104F1C00050601D51E6802E04106FBD51E886F2FE1
:104F2C000CBF08230A235148002184F843106568FC
:104F3C00002DA8BF2168A560A4BF21F00401216049
:104F4C000EB9002D4BD01546B6FBF3F103FB1167E0
:104F5C00C75D05F8017D3746BB420E46F4D9082BD8
:104F6C000BD12368DE0708D5236961689942DEBF3F
:104F7C00302305F8013C05F1FF35521B22614B46ED
:104F8C0021464046CDF800A003AAFFF7DFFE013012
:104F9C004AD14FF0FF3004B0BDE8F087236843F0EE
:104FAC00200323607827324884F8457023682968E9
:104FBC001F0651F8046B02D45F0648BFB6B2DF0778
:104FCC0048BF43F02003296048BF23601EB9236803
:104FDC0023F0200323601023A6E72448E4E71546BA
:104FEC00BDE72B682668181D6169286035061B68AB
:104FFC0001D5196002E07006FBD519800023154617
:10500C002361BCE72B6800211A1D2A601D686268A9
:10501C00284600F099F908B1401B60606368236171
:10502C00002384F84330AAE72A46494640462369C0
:10503C00D0470130ADD023689B0713D4E068039BA5
:10504C009842B8BF1846A6E7012332464946404667
:10505C00D04701309DD00135E36803995B1AAB4210
:10506C00F2DCEBE7002504F11906F5E773550008AF
:10507C00845500088A89F8B5054610070C4657D4A4
:10508C004B68002B04DC0B6C002B01DC0020F8BD02
:10509C00E66A002EFAD0002312F480522F68216A9F
:1050AC002B6032D0606DA3895A0705D56368C01A8E
:1050BC00636B0BB1236CC01A00230246E66A2846C8
:1050CC00216AB047431CA38906D129681D292BD816
:1050DC00284A0A41D60727D4002262602269D904E3
:1050EC00226004D5421C01D12B6803B96065616B49
:1050FC002F600029CAD004F14403994202D02846FB
:10510C00FFF796FA00206063C1E701232846B047F9
:10511C00411CC8D12B68002BC5D01D2B01D0162BE0
:10512C0001D12F60B2E7A38943F04003A381AEE71E
:10513C000F69002FAAD0930718BF00230E6808BF71
:10514C004B69F61B0F608B60002E9FDD33463A4691
:10515C002846216AD4F828C0E047002806DCA38939
:10516C004FF0FF3043F04003A38190E70744361A19
:10517C00EAE700BFFEFFBFDF38B50B6905460C46FA
:10518C0013B90025284638BD18B1036A0BB9FFF7CF
:10519C0027F9B4F90C30002BF3D0626ED00704D48D
:1051AC00990502D4A06DFFF740FA28462146FFF777
:1051BC0061FF636E0546DA07E4D4A3899B05E1D44D
:1051CC00A06DFFF733FADDE7F8B50E461446054639
:1051DC0018B1036A0BB9FFF703F9A369A360A3899C
:1051EC001A0725D523691BB323682269F6B2981ACE
:1051FC0063693746834204DC21462846FFF7BCFF2F
:10520C00E0B9A368013BA36023685A1C22601E709E
:10521C006269431C9A4204D0A389DB0706D50A2E87
:10522C0004D121462846FFF7A7FF38B93846F8BD08
:10523C002146284600F006F80028D5D04FF0FF375D
:10524C00F4E7000038B52A4B054618680C4618B12F
:10525C00036A0BB9FFF7C4F8A389B4F90C2018073B
:10526C0022D4D90607D409232B6042F040034FF017
:10527C00FF30A38134E0580712D5616B41B104F1C2
:10528C004403994202D02846FFF7D2F90023636306
:10529C00A38923F02403A381002363602369236083
:1052AC00A38943F00803A38123694BB9A38903F4B1
:1052BC002073B3F5007F03D02146284600F0B4F8E4
:1052CC00A089B4F90C2010F001030AD00023A360CC
:1052DC0063695B42A361236943B910F08000C4D1B8
:1052EC0038BD810758BF6369A360F4E70020F7E776
:1052FC00C4000020884210B501EB020402D984429C
:10530C00234607D8431EA14208D011F8012B03F8FD
:10531C00012FF8E7014602448A4200D110BD13F870
:10532C00014D02F8014DF7E738B50023054D044651
:10533C0008462B60FCF75EF9431C02D12B6803B1C5
:10534C00236038BD78040020034610B5C9B202446E
:10535C009342184601D1002003E0047801338C42BB
:10536C00F6D110BD0A44914200F1FF3300D17047D1
:10537C0010B511F8014B914203F8014FF9D110BD52
:10538C002DE9F041804614460E4621B91146BDE880
:10539C00F041FFF7B5B92AB9FFF74AF92546284677
:1053AC00BDE8F08100F09EF88442074602D8B4EBC9
:1053BC00500F12D821464046FFF7A2F905460028A7
:1053CC00EDD0BC422246314628BF3A46FFF7CAFF11
:1053DC0031464046FFF72CF9E1E73546DFE770B57B
:1053EC000C46B1F90E10154600291E4696B00CDA83
:1053FC00A389002113F0800F0CBF4FF4806340236E
:10540C00002031602B6016B070BD6A4600F048F881
:10541C000028EDDB019901F47041A1F500535942CC
:10542C0059414FF48063EBE78B8973B59D070646B2
:10543C000C4607D504F14703236023610123636104
:10544C0002B070BD6A4601ABFFF7C9FF0099054673
:10545C003046FFF755F948B9B4F90C309A05EFD43A
:10546C0023F0030343F00203A381E3E7A389206045
:10547C0043F08003A381009B20616361019B5BB1BE
:10548C003046B4F90E1000F01DF828B1A38923F0B2
:10549C00030343F00103A381A3891D43A581CFE737
:1054AC0038B50023064D0446084611462B60FCF720
:1054BC007BF8431C02D12B6803B1236038BD00BFBD
:1054CC007804002038B50023054D044608462B60AF
:1054DC00FCF779F8431C02D12B6803B1236038BD6B
:1054EC007804002051F8043C181F002BBCBF0B584B
:1054FC00C0187047F8B500BFF8BC08BC9E46704792
:0C550C00F8B500BFF8BC08BC9E46704714
:105518005461736B733A2025750D0A0044697370E2
:1055280061746368205461736B2025640A0000006D
:10553800000000000000000001020304060708093B
:10554800000000000102030402030405060708091D
:105558000A0B0C0D0E0F10100102232D302B20000A
:10556800686C4C0065666745464700303132333415
:1055780035363738394142434445460030313233B5
:105588003435363738396162636465660000000077
:0455980031010008D5
:04559C000D010008F5
:1055A00000080140000801400008014000080140D7
:1055B0000001000200040008000C0140000C014042
:1055C000000C0140000C014001000001020000023B
:1055D0000024F400F4010000C80000002C010000C9
:1055E000000C0140000C0140000C0140000C014087
:1055F000000C0140000C01401000001020000020B1
:105600004000004010000000010000000000000009
:10561000030000003C030020000000003C030020C9
:10562000A40300200C040020000000000000000083
:10563000000000000000000000000000000000006A
:10564000000000000000000000000000000000005A
:10565000000000000000000000000000000000004A
:085660000000000078000020AA
:04000005080018993E
:00000001FF
