:020000040800F2
:1000000000280020E10E0008290B00082F0B000833
:10001000350B00083B0B0008410B000800000000F6
:10002000000000000000000000000000470B000876
:10003000530B0008000000005F0B00086B0B00086A
:10004000290F0008290F0008290F0008290F0008B0
:10005000290F0008290F0008290F0008290F0008A0
:10006000290F0008290F0008290F0008290F000890
:10007000290F0008290F0008290F0008290F000880
:10008000290F0008290F0008290F0008290F000870
:10009000290F0008290F0008290F0008290F000860
:1000A000290F0008290F0008290F0008290F000850
:1000B000790B0008290F000800000000290F000834
:1000C000290F00080000000000000000290F0008B0
:1000D00000000000290F0008290F000800000000A0
:1000E000290F0008290F0008290F00080000000050
:1000F0000000000000000000000000000000000000
:0C01000000000000000000005FF808F1A3
:10010C0010B5054C237833B9044B13B10448AFF345
:10011C0000800123237010BD54000020000000005B
:10012C009827000808B5034B1BB103490348AFF3EC
:10013C00008008BD0000000058000020982700082F
:10014C0090B583B000AF0023FB716BE0FA79FB79BB
:10015C003849895C384AD154FA79FB793749895C3A
:10016C00344AD154FB79364A52F82320FB7935496D
:10017C0031F81330FC791946104601F0BDF90346ED
:10018C001A462E4B1A55FB792C4AD25CFB7929491D
:10019C00CB5C9A4243D1FB79284AD25CFB79264945
:1001AC00CB5C9A423BD1FB79274AD25CFB79234941
:1001BC00CB5C9A4214D0FA79FB792049895C224AAB
:1001CC00D154FB79204AD35C002B28D1FB791F4AF0
:1001DC000121D154FB791E4A642122F813101EE030
:1001EC00FB79194AD35C002B19D1FB79184A32F9E7
:1001FC00132092B2013A92B211B2154A22F813109E
:10020C00FB79134A32F91330002B08DCFB790F4AC7
:10021C000121D154FB790E4A322122F81310FB79BB
:10022C000133FB71FB79032B90D900BF00BF0C3756
:10023C00BD4690BD780000207C000020740000209A
:10024C000000002010000020700000208000002022
:10025C008400002080B483B000AF0346FB71FB79AF
:10026C00032B01D900230BE0FB79084AD35C012B4B
:10027C0005D1FB79054A0021D154012300E000236C
:10028C0018460C37BD4680BC704700BF800000206C
:10029C0080B500AF2021024801F05DF900BF80BDA0
:1002AC000008014080B500AF0020FFF7D3FF0346E4
:1002BC00002B01D000F068FD0120FFF7CBFF0346B7
:1002CC00002B01D000F0ECFD00BF80BD80B500AF6D
:1002DC0000F026FE00F026F800F0D6F800F05EF8EC
:1002EC0000F0A8F80B4801F0AFFD00F051F94FF405
:1002FC007A720021084800F0E9F90A220021074827
:10030C0000F0E4F90A220021054800F0DFF900F0C2
:10031C00AFF9FCE78C0000209D0200084D0100089D
:10032C00B102000880B590B000AF07F11803282285
:10033C000021184602F0FEF93B1D00221A605A609B
:10034C009A60DA601A610223BB610123BB6210233D
:10035C00FB6200237B6307F11803184601F014F9C4
:10036C000346002B01D000F00EF90F237B60002315
:10037C00BB600023FB6000233B6100237B613B1DC2
:10038C000021184601F082FB0346002B01D000F03F
:10039C00FAF800BF4037BD4680BD000080B586B07E
:1003AC0000AF07F1080300221A605A609A60DA6005
:1003BC003B4600221A605A601D4B4FF080421A6077
:1003CC001B4B01225A601A4B00229A60184B49F6BB
:1003DC003F42DA60164B00221A61154B00229A61DB
:1003EC00134801F0E1FC0346002B01D000F0CBF8E0
:1003FC004FF48053BB6007F1080319460C4801F019
:10040C0077FE0346002B01D000F0BDF800233B60C3
:10041C0000237B603B461946054802F043F803462F
:10042C00002B01D000F0AFF800BF1837BD4680BDDF
:10043C008C00002080B500AF114B124A1A60104B93
:10044C004FF4E1325A600E4B00229A600C4B0022A2
:10045C00DA600B4B00221A61094B0C225A61084BD3
:10046C0000229A61064B0022DA61054802F084F8FA
:10047C000346002B01D000F086F800BF80BD00BF02
:10048C00D40000200044004080B586B000AF07F1D6
:10049C00080300221A605A609A60DA602F4B9B693D
:1004AC002E4A43F0040393612C4B9B6903F0040325
:1004BC007B607B68294B9B69284A43F00803936156
:1004CC00264B9B6903F008033B603B68002220210C
:1004DC00234801F028F800224FF6FF71214801F063
:1004EC0022F82023BB600123FB6001233B61022324
:1004FC007B6107F108031946194800F081FE47F2A9
:10050C007333BB600123FB6001233B6102237B61DE
:10051C0007F108031946134800F072FE48F68C43A5
:10052C00BB600123FB6002233B6102237B6107F16B
:10053C00080319460B4800F063FE4FF47063BB6070
:10054C000023FB6001233B6107F1080319460448B3
:10055C0000F056FE00BF1837BD4680BD00100240AB
:10056C0000080140000C014080B582B000AF7860FB
:10057C007B681B68B3F1804F01D100F053F800BFCA
:10058C000837BD4680BD80B400AF72B600BFFEE731
:10059C0080B483B000AF0023FB7137E0FA792049B7
:1005AC0013469B0013449B000B4400221A60FA79FB
:1005BC00FB79C3F10F03D8B2194913469B001344BE
:1005CC009B000B44043302461A70FA791449134603
:1005DC009B0013449B000B44083300221A60FA79E9
:1005EC000F4913469B0013449B000B440C33002211
:1005FC001A60FA790A4913469B0013449B000B447A
:10060C00103300221A70FB790133FB71FB790F2B2D
:10061C00C4D900BF00BF0C37BD4680BC704700BFBB
:10062C001C01002080B400AF104B1B68002B18D0AD
:10063C000E4B9B68002B0CD00C4B9B680A2B05D9DE
:10064C000A4B9B680A3B094A936002E0074B002265
:10065C009A60064B9B68002B04D1044B01221A7440
:10066C0000E000BFBD4680BC704700BF1C010020ED
:10067C00B0B586B000AF144B1B68002B1FD0124BCB
:10068C001B7C002B1BD0104B1B6898470E4B002279
:10069C001A740D4B3C1D1D460FCD0FC42B682360E7
:1006AC00094B1B79184600F017F93B69002B07D052
:1006BC007B6839693A69184600F008F800E000BF19
:1006CC001837BD46B0BD00BF1C010020B0B489B0C6
:1006DC0000AFF860B9607A607E4BD3F82C31002BF8
:1006EC0001D01023F1E07B4B93F830317B76002363
:1006FC00FB610023FB76E3E0FA7E764913469B0010
:10070C0013449B000B4408331B68FA691344FB61C8
:10071C00FA69BB689A420AD8FA7E6E4913469B0066
:10072C0013449B000B441B68002B40F0C6800F2326
:10073C00BB7617E0BB7E5A1EB97E66480B469B0003
:10074C000B449B001844634913469B0013449B00C5
:10075C000B4404461D460FCD0FC42B682360BB7E93
:10076C00013BBB76BA7EFB7E9A42E3D8FA7E5949AE
:10077C0013469B0013449B000B44FA681A60FA7EE4
:10078C00544913469B0013449B000B4404337A7E5C
:10079C001A70FA7E4F4913469B0013449B000B447E
:1007AC000C337A681A60FA7E4A4913469B0013444C
:1007BC009B000B44103300221A70FA69BB689A42F2
:1007CC0050D9FA69BB68D31A7B61FB7E5A1C41492C
:1007DC0013469B0013449B000B44083319687B6938
:1007EC00FA7EC91A3B4813469B0013449B000344F2
:1007FC0008331960FA7E374913469B0013449B005B
:10080C000B4408331B68002B09D1FA7E314913467F
:10081C009B0013449B000B44103301221A70FB7E87
:10082C005A1C79692B4813469B0013449B000344C4
:10083C0008331960FB7E5A1C264913469B0013444F
:10084C009B000B4408331B68002B2CD1FB7E5A1CDD
:10085C00204913469B0013449B000B441033012288
:10086C001A7020E0FA7EB968FB69C91A1948134658
:10087C009B0013449B00034408331960FA7E15490E
:10088C0013469B0013449B000B4408331B68002B3E
:10089C0009D1FA7E0F4913469B0013449B000B446D
:1008AC00103301221A70FA7E0A4913469B00134436
:1008BC009B000B4404331B7807E0FB7E0133FB7673
:1008CC00FB7E0F2B7FF618AF102318462437BD463E
:1008DC00B0BC70471C010020B0B485B000AF03461B
:1008EC00FB710023FB737CE0FA7B434913469B00AE
:1008FC0013449B000B4404331B78FA799A426DD154
:10090C00FA7B3D4913469B0013449B000B44043374
:10091C001B787B73FB7B5A1C374913469B00134493
:10092C009B000B441B68002B1DD0FB7B5A1C3249CF
:10093C0013469B0013449B000B4408331968FA7B45
:10094C002D4813469B0013449B00034408331B683B
:10095C00FA7B01321944284813469B0013449B0030
:10096C00034408331960FB7BBB7317E0BB7B5A1C39
:10097C00B97B21480B469B000B449B0018441E4935
:10098C0013469B0013449B000B4404461D460FCD9D
:10099C000FC42B682360BB7B0133BB73BB7B0E2B5B
:1009AC00E4D9154B0022C3F82C21134A7B7B82F827
:1009BC003031114B0022C3F834210F4B0022C3F805
:1009CC0038210D4B002283F83C210B4BD3F82C31F2
:1009DC00002B0CBF01230023DBB207E0FB7B0133B0
:1009EC00FB73FB7B0F2B7FF67FAF0023184614376E
:1009FC00BD46B0BC704700BF1C01002080B483B062
:100A0C0000AF0E4B9B690D4A43F0010393610B4BF6
:100A1C009B6903F001037B607B68084BDB69074A29
:100A2C0043F08053D361054BDB6903F080533B608B
:100A3C003B6800BF0C37BD4680BC704700100240BD
:100A4C0080B584B000AF78607B681B68B3F1804FD1
:100A5C0013D10C4BDB690B4A43F00103D361094BF7
:100A6C00DB6903F00103FB60FB68002200211C2002
:100A7C0000F08FFB1C2000F0A8FB00BF1037BD4618
:100A8C0080BD00BF0010024080B588B000AF786018
:100A9C0007F1100300221A605A609A60DA607B68D2
:100AAC001B681B4A93422FD11A4BDB69194A43F43A
:100ABC000033D361174BDB6903F40033FB60FB6835
:100ACC00144B9B69134A43F004039361114B9B69CC
:100ADC0003F00403BB60BB6804233B6102237B610E
:100AEC000323FB6107F1100319460B4800F088FB48
:100AFC0008233B6100237B610023BB6107F11003DA
:100B0C001946054800F07CFB00BF2037BD4680BD70
:100B1C0000440040001002400008014080B400AFC7
:100B2C00FEE780B400AFFEE780B400AFFEE780B410
:100B3C0000AFFEE780B400AFFEE780B400AF00BFAB
:100B4C00BD4680BC704780B400AF00BFBD4680BCC2
:100B5C00704780B400AF00BFBD4680BC704780B505
:100B6C0000AF00F023FA00BF80BD000080B500AFDD
:100B7C00024801F0B5F900BF80BD00BF8C00002019
:100B8C0080B400AF00BFBD4680BC704780B582B05A
:100B9C0000AF03460A46FB711346BB71BB79032BAE
:100BAC0000F2B08001A252F823F000BFC90B00087C
:100BBC001B0C00086D0C0008BF0C0008FB79534A95
:100BCC0052F82300FB79524A32F8133001221946AD
:100BDC0000F0A9FCFB794F4A52F82300FB794E4AEE
:100BEC0032F813300122194600F09DFCFB794B4A78
:100BFC0052F82300FB794A4A32F813300122194685
:100C0C0000F091FCFB79474A0021D1547AE0FB7942
:100C1C003E4A52F82300FB793D4A32F81330002249
:100C2C00194600F080FCFB793A4A52F82300FB7914
:100C3C00394A32F813300122194600F074FCFB7962
:100C4C00364A52F82300FB79354A32F81330012228
:100C5C00194600F068FCFB79324A0121D15451E06D
:100C6C00FB792A4A52F82300FB79294A32F81330CF
:100C7C000122194600F057FCFB79264A52F8230052
:100C8C00FB79254A32F813300022194600F04BFC50
:100C9C00FB79224A52F82300FB79214A32F81330AF
:100CAC000122194600F03FFCFB791E4A0221D15467
:100CBC0028E0FB79154A52F82300FB79144A32F8E4
:100CCC0013300122194600F02EFCFB79114A52F820
:100CDC002300FB79104A32F813300122194600F038
:100CEC0022FCFB790D4A52F82300FB790C4A32F8AE
:100CFC0013300022194600F016FCFB79094A032137
:100D0C00D15400BF00BF0837BD4680BD280000206D
:100D1C00400000203000002044000020380000205B
:100D2C00480000205C02002080B500AF01210020AB
:100D3C00FFF72CFF00BF80BD80B500AF0221002063
:100D4C00FFF724FF00BF80BD80B500AF032100205A
:100D5C00FFF71CFF00BF80BD80B500AF0121012053
:100D6C00FFF714FF00BF80BD80B500AF022101204A
:100D7C00FFF70CFF00BF80BD80B500AF0321012041
:100D8C00FFF704FF00BF80BD80B500AF3A4B1A6877
:100D9C003A4B1B681A443A4B1B6813441A46002101
:100DAC003848FFF793FC03461A46374B1A70324B00
:100DBC001B681946304B1A68304B1B681A44304B71
:100DCC001B6813441A463148FFF780FC03461A4649
:100DDC002D4B5A70284B1A68284B1B681344194624
:100DEC00254B1A68254B1B681A44254B1B6813446A
:100DFC001A462748FFF76AFC03461A46224B9A709C
:100E0C001D4B1A681D4B1B681A441D4B1B68134461
:100E1C001A4600211F48FFF759FC03461A461A4B85
:100E2C00DA70174B1B681946134B1A68134B1B6867
:100E3C001A44134B1B6813441A461748FFF746FC19
:100E4C0003461A46104B1A710D4B1A680B4B1B6854
:100E5C0013441946084B1A68084B1B681A44084B74
:100E6C001B6813441A460D48FFF730FC03461A461C
:100E7C00054B5A7100BF80BD1C00002020000020D3
:100E8C0024000020350D000860020020550D0008DC
:100E9C00450D0008850D0008750D0008650D00084E
:100EAC0080B582B000AF0023FB7108E0FB79084AE3
:100EBC00D35C1846FFF710FDFB790133FB71FB790E
:100ECC00052BF3D900BF00BF0837BD4680BD00BF5E
:100EDC0060020020FFF754FE0B480C490C4A00231B
:100EEC0002E0D458C4500433C4188C42F9D3094AD4
:100EFC00094C002301E013600432A242FBD301F041
:100F0C0021FCFFF7E3F9704700000020540000209B
:100F1C00E4270008540000206C020020FEE70000CB
:100F2C0080B500AF084B1B68074A43F010031360F1
:100F3C00032000F023F90F2000F008F8FFF75EFD06
:100F4C000023184680BD00BF0020024080B582B04F
:100F5C0000AF7860124B1A68124B1B7819464FF48D
:100F6C007A73B3FBF1F3B2FBF3F3184600F03BF9E1
:100F7C000346002B01D001230EE07B680F2B0AD80F
:100F8C00002279684FF0FF3000F003F9064A7B68C5
:100F9C001360002300E0012318460837BD4680BDCE
:100FAC0018000020500000204C00002080B400AF3E
:100FBC00054B1B781A46054B1B681344034A1360F8
:100FCC0000BFBD4680BC7047500000206802002066
:100FDC0080B400AF024B1B681846BD4680BC7047FE
:100FEC006802002080B485B000AF78607B6803F0A5
:100FFC000703FB600C4BDB68BB60BA684FF6FF0362
:10100C001340BB60FB681A02BB68134343F0BF6319
:10101C0043F40033BB60044ABB68D36000BF143791
:10102C00BD4680BC704700BF00ED00E080B400AF4F
:10103C00044BDB681B0A03F007031846BD4680BC53
:10104C00704700BF00ED00E080B483B000AF0346F2
:10105C00FB7197F90730002B0BDBFB7903F01F02B8
:10106C00064997F907305B09012000FA02F241F8B2
:10107C00232000BF0C37BD4680BC704700E100E068
:10108C0080B483B000AF03463960FB7197F9073029
:10109C00002B0ADB3B68DAB20C4997F907301201D6
:1010AC00D2B20B4483F800230AE03B68DAB2084959
:1010BC00FB7903F00F03043B1201D2B20B441A76F6
:1010CC0000BF0C37BD4680BC704700BF00E100E09C
:1010DC0000ED00E080B489B000AFF860B9607A60D0
:1010EC00FB6803F00703FB61FB69C3F10703042BE7
:1010FC0028BF0423BB61FB690433062B02D9FB69AF
:10110C00033B00E000237B614FF0FF32BB6902FA26
:10111C0003F3DA43BB681A407B699A404FF0FF3106
:10112C007B6901FA03F3D9437B680B4013431846E0
:10113C002437BD4680BC704780B582B000AF786064
:10114C007B68013BB3F1807F01D301230FE00A4A96
:10115C007B68013B53600F214FF0FF30FFF790FF8E
:10116C00054B00229A60044B07221A600023184694
:10117C000837BD4680BD00BF10E000E080B582B0EE
:10118C0000AF78607868FFF72DFF00BF0837BD46C9
:10119C0080BD80B586B000AF0346B9607A60FB7342
:1011AC0000237B61FFF742FF78617A68B968786940
:1011BC00FFF790FF024697F90F3011461846FFF7DC
:1011CC005FFF00BF1837BD4680BD80B582B000AF51
:1011DC000346FB7197F907301846FFF735FF00BF40
:1011EC000837BD4680BD80B582B000AF78607868A6
:1011FC00FFF7A2FF034618460837BD4680BD000026
:10120C0080B48BB000AF7860396000237B62002320
:10121C003B6261E101227B6A02FA03F3FB613B68EA
:10122C001B68FA691340BB61BA69FB699A4240F0CA
:10123C0050813B685B68974A93425ED0954A9342D3
:10124C0075D8954A934258D0934A93426FD8934A93
:10125C00934252D0914A934269D8914A93424CD0CE
:10126C008F4A934263D88F4A934246D08D4A934219
:10127C005DD8122B2AD8122B59D801A252F823F080
:10128C0007130008E1120008F312000835130008D8
:10129C003B1300083B1300083B1300083B130008EA
:1012AC003B1300083B1300083B1300083B130008DA
:1012BC003B1300083B1300083B1300083B130008CA
:1012CC003B130008E9120008FD120008764A93420D
:1012DC0013D02CE03B68DB683B6229E03B68DB68A1
:1012EC0004333B6224E03B68DB6808333B621FE05D
:1012FC003B68DB680C333B621AE03B689B68002B55
:10130C0002D104233B6213E03B689B68012B05D19F
:10131C0008233B627B68FA691A6109E008233B6287
:10132C007B68FA695A6103E000233B6200E000BF6E
:10133C00BB69FF2B01D87B6801E07B6804337B61C0
:10134C00BB69FF2B02D87B6A9B0002E07B6A083BDF
:10135C009B003B617B691A680F213B6901FA03F31F
:10136C00DB431A40396A3B6901FA03F31A437B6980
:10137C001A603B685B6803F08053002B00F0A98077
:10138C004A4B9B69494A43F001039361474B9B6964
:10139C0003F00103BB60BB68454A7B6A9B080233C0
:1013AC0052F82330FB607B6A03F003039B000F228F
:1013BC0002FA03F3DB43FA681340FB607B683D4A97
:1013CC0093420DD07B683C4A934207D07B683B4AE2
:1013DC00934201D1022304E0032302E0012300E045
:1013EC0000237A6A02F0030292009340FA681343D6
:1013FC00FB602F497B6A9B080233FA6841F8232073
:10140C003B685B6803F48013002B06D02C4B9A6866
:10141C002B49BB6913438B6006E0294B9A68BB6967
:10142C00DB43274913408B603B685B6803F4001374
:10143C00002B06D0224BDA682149BB691343CB60E1
:10144C0006E01F4BDA68BB69DB431D491340CB60D8
:10145C003B685B6803F40033002B06D0184B5A68CA
:10146C001749BB6913434B6006E0154B5A68BB69BF
:10147C00DB43134913404B603B685B6803F48033D8
:10148C00002B1FD00E4B1A680D49BB6913430B6020
:10149C001FE000BF000032100000311000002210CD
:1014AC00000021100000121000001110001002406A
:1014BC000000014000080140000C014000100140F8
:1014CC00000401400B4B1A68BB69DB43094913400C
:1014DC000B607B6A01337B623B681A687B6A22FA79
:1014EC0003F3002B7FF496AE00BF00BF2C37BD4634
:1014FC0080BC70470004014080B485B000AF7860B8
:10150C000B467B807B689A687B881340002B02D04B
:10151C000123FB7301E00023FB73FB7B184614379C
:10152C00BD4680BC704780B483B000AF78600B467A
:10153C007B8013467B707B78002B03D07A887B688A
:10154C001A6103E07B881A047B681A6100BF0C37B0
:10155C00BD4680BC704780B485B000AF78600B4648
:10156C007B807B68DB68FB607A88FB6813401A041D
:10157C00FB68D9437B880B401A437B681A6100BF18
:10158C001437BD4680BC704780B586B000AF78601C
:10159C007B68002B01D1012372E27B681B6803F08E
:1015AC000103002B00F08780924B5B6803F00C0367
:1015BC00042B0CD08F4B5B6803F00C03082B12D15F
:1015CC008C4B5B6803F48033B3F5803F0BD1894BB4
:1015DC001B6803F40033002B6CD07B685B68002B1A
:1015EC0068D101234CE27B685B68B3F5803F06D180
:1015FC00804B1B687F4A43F4803313602EE07B687A
:10160C005B68002B0CD17B4B1B687A4A23F480332C
:10161C001360784B1B68774A23F4802313601DE01A
:10162C007B685B68B3F5A02F0CD1724B1B68714AB9
:10163C0043F4802313606F4B1B686E4A43F4803372
:10164C0013600BE06B4B1B686A4A23F48033136006
:10165C00684B1B68674A23F4802313607B685B68C4
:10166C00002B13D0FFF7B4FC386108E0FFF7B0FC97
:10167C0002463B69D31A642B01D9032300E25D4B6C
:10168C001B6803F40033002BF0D014E0FFF7A0FC30
:10169C00386108E0FFF79CFC02463B69D31A642BC7
:1016AC0001D90323ECE1534B1B6803F40033002BEB
:1016BC00F0D100E000BF7B681B6803F00203002B35
:1016CC0063D04C4B5B6803F00C03002B0BD0494BE5
:1016DC005B6803F00C03082B1CD1464B5B6803F4CE
:1016EC008033002B16D1434B1B6803F00203002BF5
:1016FC0005D07B681B69012B01D00123C0E13D4B58
:10170C001B6823F0F8027B685B69DB0039491343E3
:10171C000B603AE07B681B69002B20D0364B012212
:10172C001A60FFF755FC386108E0FFF751FC0246E0
:10173C003B69D31A022B01D90323A1E12D4B1B6862
:10174C0003F00203002BF0D02A4B1B6823F0F802A5
:10175C007B685B69DB00274913430B6015E0264B64
:10176C0000221A60FFF734FC386108E0FFF730FC08
:10177C0002463B69D31A022B01D9032380E11D4B8E
:10178C001B6803F00203002BF0D17B681B6803F08D
:10179C000803002B3AD07B689B69002B19D0174BA0
:1017AC0001221A60FFF714FC386108E0FFF710FC07
:1017BC0002463B69D31A022B01D9032360E10D4B7E
:1017CC005B6A03F00203002BF0D0012000F0CEFA8C
:1017DC001CE00A4B00221A60FFF7FAFB38610FE09D
:1017EC00FFF7F6FB02463B69D31A022B08D90323F9
:1017FC0046E100BF00100240000042428004424219
:10180C00924B5B6A03F00203002BE9D17B681B68E7
:10181C0003F00403002B00F0A6800023FB758B4B18
:10182C00DB6903F08053002B0DD1884BDB69874AB1
:10183C0043F08053D361854BDB6903F08053BB606D
:10184C00BB680123FB75824B1B6803F48073002B70
:10185C0018D17F4B1B687E4A43F480731360FFF7EB
:10186C00B7FB386108E0FFF7B3FB02463B69D31ABC
:10187C00642B01D9032303E1754B1B6803F48073BC
:10188C00002BF0D07B68DB68012B06D16F4B1B6AF9
:10189C006E4A43F0010313622DE07B68DB68002B7A
:1018AC000CD16A4B1B6A694A23F001031362674B24
:1018BC001B6A664A23F0040313621CE07B68DB6836
:1018CC00052B0CD1614B1B6A604A43F00403136275
:1018DC005E4B1B6A5D4A43F0010313620BE05B4BEA
:1018EC001B6A5A4A23F001031362584B1B6A574A6E
:1018FC0023F0040313627B68DB68002B15D0FFF721
:10190C0067FB38610AE0FFF763FB02463B69D31AB9
:10191C0041F28832934201D90323B1E04B4B1B6A4D
:10192C0003F00203002BEED014E0FFF751FB3861FB
:10193C000AE0FFF74DFB02463B69D31A41F28832AD
:10194C00934201D903239BE0404B1B6A03F0020333
:10195C00002BEED1FB7D012B05D13C4BDB693B4AC7
:10196C0023F08053D3617B68DB69002B00F0878008
:10197C00364B5B6803F00C03082B61D07B68DB698A
:10198C00022B46D1334B00221A60FFF721FB386142
:10199C0008E0FFF71DFB02463B69D31A022B01D965
:1019AC0003236DE0294B1B6803F00073002BF0D16F
:1019BC007B681B6AB3F5803F08D1244B5B6823F42A
:1019CC0000327B689B68214913434B601F4B5B685B
:1019DC0023F474127B68196A7B685B6A0B431B499E
:1019EC0013434B601B4B01221A60FFF7F1FA38616D
:1019FC0008E0FFF7EDFA02463B69D31A022B01D936
:101A0C0003233DE0114B1B6803F00073002BF0D057
:101A1C0035E0104B00221A60FFF7DAFA386108E063
:101A2C00FFF7D6FA02463B69D31A022B01D90323DE
:101A3C0026E0064B1B6803F00073002BF0D11EE070
:101A4C007B68DB69012B07D1012319E000100240F0
:101A5C0000700040600042420B4B5B68FB60FB680F
:101A6C0003F480327B681B6A9A4206D1FB6803F44C
:101A7C0070127B685B6A9A4201D0012300E000235C
:101A8C0018461837BD4680BD0010024080B584B0A2
:101A9C0000AF786039607B68002B01D10123D0E066
:101AAC006A4B1B6803F007033A689A4210D9674BDC
:101ABC001B6823F0070265493B6813430B60634BBB
:101ACC001B6803F007033A689A4201D00123B8E07F
:101ADC007B681B6803F00203002B20D07B681B681B
:101AEC0003F00403002B05D0594B5B68584A43F4B0
:101AFC00E06353607B681B6803F00803002B05D080
:101B0C00534B5B68524A43F460535360504B5B68D1
:101B1C0023F0F0027B689B684D4913434B607B6854
:101B2C001B6803F00103002B40D07B685B68012B22
:101B3C0007D1474B1B6803F40033002B15D101234D
:101B4C007FE07B685B68022B07D1414B1B6803F07D
:101B5C000073002B09D1012373E03D4B1B6803F08C
:101B6C000203002B01D101236BE0394B5B6823F09E
:101B7C0003027B685B68364913434B60FFF728FA16
:101B8C00F8600AE0FFF724FA0246FB68D31A41F228
:101B9C008832934201D9032353E02D4B5B6803F049
:101BAC000C027B685B689B009A42EBD1274B1B684D
:101BBC0003F007033A689A4210D2244B1B6823F0B7
:101BCC00070222493B6813430B60204B1B6803F050
:101BDC0007033A689A4201D0012332E07B681B6804
:101BEC0003F00403002B08D0194B5B6823F4E0626C
:101BFC007B68DB68164913434B607B681B6803F0FA
:101C0C000803002B09D0124B5B6823F460527B68ED
:101C1C001B69DB000E4913434B6000F021F80246B0
:101C2C000B4B5B681B0903F00F030A49CB5C22FAD0
:101C3C0003F3094A1360094B1B681846FFF786F932
:101C4C00002318461037BD4680BD00BF002002405F
:101C5C0000100240B0270008180000204C000020A3
:101C6C0080B487B000AF0023FB600023BB6000236F
:101C7C007B6100237B6000233B611E4B5B68FB6038
:101C8C00FB6803F00C03042B02D0082B03D027E0D5
:101C9C00194B3B6127E0FB689B0C03F00F03174AC1
:101CAC00D35C7B60FB6803F48033002B10D0114BAA
:101CBC005B685B0C03F00103114AD35CBB607B686F
:101CCC000D4A03FB02F2BB68B2FBF3F37B6104E049
:101CDC007B680C4A02FB03F37B617B693B6102E08E
:101CEC00054B3B6100BF3B6918461C37BD4680BCA9
:101CFC00704700BF0010024000127A00C82700088D
:101D0C00D827000800093D0080B400AF024B1B68C7
:101D1C001846BD4680BC70471800002080B500AF47
:101D2C00FFF7F2FF0246054B5B681B0A03F0070343
:101D3C000349CB5C22FA03F3184680BD0010024025
:101D4C00C027000880B500AFFFF7DEFF0246054B49
:101D5C005B68DB0A03F007030349CB5C22FA03F34D
:101D6C00184680BD00100240C027000880B485B022
:101D7C0000AF78600A4B1B680A4AA2FB03235B0A7C
:101D8C007A6802FB03F3FB6000BFFB685A1EFA6023
:101D9C00002BF9D100BF00BF1437BD4680BC704783
:101DAC0018000020D34D621080B582B000AF78606F
:101DBC007B68002B01D1012341E07B6893F83D3017
:101DCC00DBB2002B06D17B68002283F83C207868BC
:101DDC00FEF736FE7B68022283F83D207B681A688A
:101DEC007B6804331946104600F06EFA7B680122BA
:101DFC0083F846207B68012283F83E207B68012211
:101E0C0083F83F207B68012283F840207B68012205
:101E1C0083F841207B68012283F842207B680122F1
:101E2C0083F843207B68012283F844207B680122DD
:101E3C0083F845207B68012283F83D200023184657
:101E4C000837BD4680BD000080B485B000AF786017
:101E5C007B6893F83D30DBB2012B01D0012335E0D8
:101E6C007B68022283F83D207B681B68DA687B68FC
:101E7C001B6842F00102DA607B681B68164A9342C9
:101E8C0009D07B681B68B3F1804F04D07B681B685A
:101E9C00124A934211D17B681B689B6803F00703BD
:101EAC00FB60FB68062B10D07B681B681A687B688C
:101EBC001B6842F001021A6007E07B681B681A6815
:101ECC007B681B6842F001021A6000231846143725
:101EDC00BD4680BC704700BF002C01400004004090
:101EEC0080B582B000AF78607B681B681B6903F01B
:101EFC000203022B22D17B681B68DB6803F0020310
:101F0C00022B1BD17B681B686FF002021A617B6885
:101F1C0001221A777B681B689B6903F00303002B73
:101F2C0003D0786800F0B4F905E0786800F0A7F900
:101F3C00786800F0B6F97B6800221A777B681B681A
:101F4C001B6903F00403042B22D17B681B68DB683C
:101F5C0003F00403042B1BD17B681B686FF0040295
:101F6C001A617B6802221A777B681B689B6903F4F1
:101F7C004073002B03D0786800F08AF905E078688C
:101F8C0000F07DF9786800F08CF97B6800221A77F4
:101F9C007B681B681B6903F00803082B22D17B6844
:101FAC001B68DB6803F00803082B1BD17B681B68DC
:101FBC006FF008021A617B6804221A777B681B6831
:101FCC00DB6903F00303002B03D0786800F060F9A1
:101FDC0005E0786800F053F9786800F062F97B68E6
:101FEC0000221A777B681B681B6903F01003102B07
:101FFC0022D17B681B68DB6803F01003102B1BD10C
:10200C007B681B686FF010021A617B6808221A77D4
:10201C007B681B68DB6903F44073002B03D0786882
:10202C0000F036F905E0786800F029F9786800F0DE
:10203C0038F97B6800221A777B681B681B6903F0F0
:10204C000103012B0ED17B681B68DB6803F00103D5
:10205C00012B07D17B681B686FF001021A6178684D
:10206C00FEF782FA7B681B681B6903F08003802BE8
:10207C000ED17B681B68DB6803F08003802B07D1D3
:10208C007B681B686FF080021A61786800F06BFA4D
:10209C007B681B681B6903F04003402B0ED17B68E7
:1020AC001B68DB6803F04003402B07D17B681B687F
:1020BC006FF040021A61786800F0FCF87B681B68CE
:1020CC001B6903F02003202B0ED17B681B68DB6897
:1020DC0003F02003202B07D17B681B686FF02002D4
:1020EC001A61786800F036FA00BF0837BD4680BD2B
:1020FC0080B584B000AF786039600023FB737B68D7
:10210C0093F83C30012B01D10223B4E07B6801220F
:10211C0083F83C207B68022283F83D207B681B6897
:10212C009B68BB60BB6823F07703BB60BB6823F480
:10213C007F43BB607B681B68BA689A603B681B680E
:10214C00B3F5005F3ED0B3F5005F00F28780B3F5C6
:10215C00805F00F08680B3F5805F7FD8702B1AD03B
:10216C00702B7BD8602B50D0602B77D8502B3CD069
:10217C00502B73D8402B58D0402B6FD8302B64D0B9
:10218C00302B6BD8202B60D0202B67D8002B5CD049
:10219C00102B5AD062E07B6818683B6899683B68E2
:1021AC005A683B68DB6800F05EF97B681B689B68CB
:1021BC00BB60BB6843F07703BB607B681B68BA6885
:1021CC009A604FE07B6818683B6899683B685A686E
:1021DC003B68DB6800F047F97B681B689A687B6892
:1021EC001B6842F480429A603CE07B6818683B684C
:1021FC0059683B68DB681A4600F0BEF87B681B68C0
:10220C005021184600F015F92CE07B6818683B68E3
:10221C0059683B68DB681A4600F0DCF87B681B6881
:10222C006021184600F005F91CE07B6818683B68D3
:10223C0059683B68DB681A4600F09EF87B681B689F
:10224C004021184600F0F5F80CE07B681A683B68F2
:10225C001B681946104600F0ECF803E00123FB73F1
:10226C0000E000BF7B68012283F83D207B680022E0
:10227C0083F83C20FB7B18461037BD4680BD80B4EC
:10228C0083B000AF786000BF0C37BD4680BC704790
:10229C0080B483B000AF786000BF0C37BD4680BC03
:1022AC00704780B483B000AF786000BF0C37BD4678
:1022BC0080BC704780B483B000AF786000BF0C372F
:1022CC00BD4680BC7047000080B485B000AF78601C
:1022DC0039607B681B68FB607B68254A934207D09A
:1022EC007B68B3F1804F03D07B68224A934208D1BC
:1022FC00FB6823F07003FB603B685B68FA68134370
:10230C00FB607B681A4A934207D07B68B3F1804F1D
:10231C0003D07B68174A934208D1FB6823F44073BF
:10232C00FB603B68DB68FA681343FB60FB6823F0D7
:10233C0080023B685B691343FB607B68FA681A6038
:10234C003B689A687B68DA623B681A687B689A62B9
:10235C007B68074A934203D13B681A697B681A630E
:10236C007B6801225A6100BF1437BD4680BC7047A0
:10237C00002C01400004004080B487B000AFF8602E
:10238C00B9607A60FB681B6A7B61FB681B6A23F08F
:10239C000102FB681A62FB689B693B613B6923F095
:1023AC00F0033B617B681B013A6913433B617B691A
:1023BC0023F00A037B617A69BB6813437B61FB687A
:1023CC003A699A61FB687A691A6200BF1C37BD468C
:1023DC0080BC704780B487B000AFF860B9607A6099
:1023EC00FB681B6A7B61FB681B6A23F01002FB68AD
:1023FC001A62FB689B693B613B6923F470433B6148
:10240C007B681B033A6913433B617B6923F0A00390
:10241C007B61BB681B017A6913437B61FB683A697A
:10242C009A61FB687A691A6200BF1C37BD4680BC92
:10243C00704780B485B000AF786039607B689B686A
:10244C00FB60FB6823F07003FB603A68FB68134386
:10245C0043F00703FB607B68FA689A6000BF14378F
:10246C00BD4680BC704780B487B000AFF860B960DF
:10247C007A603B60FB689B687B617B6923F47F43DC
:10248C007B613B681A027B681A43BB6813437A6909
:10249C0013437B61FB687A699A6000BF1C37BD46A9
:1024AC0080BC704780B485B000AF786039607B68C1
:1024BC0093F83C30012B01D1022341E07B680122CF
:1024CC0083F83C207B68022283F83D207B681B68E4
:1024DC005B68FB607B681B689B68BB60FB6823F0D8
:1024EC007003FB603B681B68FA681343FB607B68F6
:1024FC001B68FA685A607B681B68144A934209D0BF
:10250C007B681B68B3F1804F04D07B681B68104A52
:10251C0093420CD1BB6823F08003BB603B685B68C3
:10252C00BA681343BB607B681B68BA689A607B68A7
:10253C00012283F83D207B68002283F83C20002395
:10254C0018461437BD4680BC704700BF002C0140B4
:10255C000004004080B483B000AF786000BF0C373B
:10256C00BD4680BC704780B483B000AF786000BFBC
:10257C000C37BD4680BC704780B582B000AF786028
:10258C007B68002B01D1012342E07B6893F841303A
:10259C00DBB2002B06D17B68002283F840207868E0
:1025AC00FEF772FA7B68242283F841207B681B6853
:1025BC00DA687B681B6822F40052DA60786800F0F5
:1025CC002BF87B681B681A697B681B6822F49042A5
:1025DC001A617B681B685A697B681B6822F02A02A7
:1025EC005A617B681B68DA687B681B6842F400528E
:1025FC00DA607B6800225A647B68202283F84120D1
:10260C007B68202283F842207B6800225A630023D7
:10261C0018460837BD4680BD80B584B000AF7860E1
:10262C007B681B681B6923F440517B68DA687B6804
:10263C001B680A431A617B689A687B681B691A439A
:10264C007B685B691343BB607B681B68DB6823F4A6
:10265C00B05323F00C037A681268B9680B43D3604B
:10266C007B681B685B6923F440717B689A697B68A3
:10267C001B680A435A617B681B682C4A934203D13E
:10268C00FFF760FBF86002E0FFF748FBF860FA68C0
:10269C0013469B0013449A001A447B685B689B00AA
:1026AC00B2FBF3F3224AA2FB03235B091901FA687C
:1026BC0013469B0013449A001A447B685B689B008A
:1026CC00B2FBF3F21A4BA3FB02035B09642000FB81
:1026DC0003F3D31A1B013233154AA2FB03235B0904
:1026EC0003F0F0031944FA6813469B0013449A0054
:1026FC001A447B685B689B00B2FBF3F20C4BA3FBA8
:10270C0002035B09642000FB03F3D31A1B01323371
:10271C00074AA2FB03235B0903F00F027B681B68CB
:10272C000A449A6000BF1037BD4680BD0038014096
:10273C001F85EB5103460244934200D1704703F8C6
:10274C00011BF9E770B500260C4D0D4C641BA41051
:10275C00A64209D100F01AF800260A4D0A4C641B57
:10276C00A410A64205D170BD55F8043B984701361C
:10277C00EEE755F8043B98470136F2E7DC270008F2
:10278C00DC270008DC270008E0270008F8B500BFAC
:10279C00F8BC08BC9E467047F8B500BFF8BC08BC36
:0427AC009E4670478E
:1027B00000000000000000000102030406070809F1
:1027C00000000000010203040203040506070809D3
:0C27D0000A0B0C0D0E0F1010010200008F
:0427DC0031010008BF
:0427E0000D010008DF
:1027E40000080140000801400008014000080140C1
:1027F40000010002000400080024F4008813000013
:10280400D0070000B80B0000000C0140000C014090
:10281400000C0140000C0140000C0140000C014080
:1028240010000010200000204000004010000000B4
:04283400010000009F
:0400000508000EE100
:00000001FF
