:020000040800F2
:100000000028002011200008911C0008971C0008FF
:100010009D1C0008A31C0008A91C0008000000008B
:10002000000000000000000000000000AF1C0008FD
:10003000BB1C000800000000C71C0008D31C0008FF
:1000400059200008592000085920000859200008AC
:10005000592000085920000859200008592000089C
:10006000592000085920000859200008592000088C
:10007000592000085920000859200008592000087C
:10008000592000085920000859200008592000086C
:10009000592000085920000859200008592000085C
:1000A000592000085920000859200008592000084C
:1000B000E11C0008F51C00080000000059200008A1
:1000C000592000080000000000000000592000082E
:1000D0000000000059200008091D00080000000071
:1000E000592000085920000859200008000000008D
:1000F0000000000000000000000000000000000000
:0C01000000000000000000005FF808F1A3
:10010C0010B5054C237833B9044B13B10448AFF345
:10011C0000800123237010BDC000002000000000EF
:10012C003055000808B5034B1BB103490348AFF326
:10013C00008008BD00000000C400002030550008FD
:10014C0090B583B000AF0023FB716BE0FA79FB79BB
:10015C003849895C384AD154FA79FB793749895C3A
:10016C00344AD154FB79364A52F82320FB7935496D
:10017C0031F81330FC791946104602F007FB0346A0
:10018C001A462E4B1A55FB792C4AD25CFB7929491D
:10019C00CB5C9A4243D1FB79284AD25CFB79264945
:1001AC00CB5C9A423BD1FB79274AD25CFB79234941
:1001BC00CB5C9A4214D0FA79FB792049895C224AAB
:1001CC00D154FB79204AD35C002B28D1FB791F4AF0
:1001DC000121D154FB791E4A642122F813101EE030
:1001EC00FB79194AD35C002B19D1FB79184A32F9E7
:1001FC00132092B2013A92B211B2154A22F813109E
:10020C00FB79134A32F91330002B08DCFB790F4AC7
:10021C000121D154FB790E4A322122F81310FB79BB
:10022C000133FB71FB79032B90D900BF00BF0C3756
:10023C00BD4690BDE4000020E8000020E000002056
:10024C000000002010000020DC000020EC0000204A
:10025C00F000002080B483B000AF0346FB71FB7943
:10026C00032B01D900230BE0FB79084AD35C012B4B
:10027C0005D1FB79054A0021D154012300E000236C
:10028C0018460C37BD4680BC704700BFEC00002000
:10029C0080B485B000AF0346FB71FB79642B01D9A8
:1002AC006423FB710D4BDB68322202FB03F3323B00
:1002BC000B4AA2FB03235B09FA7902FB03F3084AFE
:1002CC00A2FB03235B09FB60044B1B68FA685A63AF
:1002DC0000BF1437BD4680BC704700BF5C010020D6
:1002EC001F85EB5180B485B000AF0346FB71FB79E1
:1002FC00642B01D96423FB710D4BDB68322202FBAA
:10030C0003F3323B0B4AA2FB03235B09FA7902FB92
:10031C0003F3084AA2FB03235B09FB60044B1B6835
:10032C00FA689A6300BF1437BD4680BC704700BFA3
:10033C005C0100201F85EB5180B500AF0F4B1B6893
:10034C00B3F5FA6F03D90A20FFF7A2FF13E00B4BAA
:10035C001B686FF0590202FB03F303F52F3303F50F
:10036C004873074AA2FB0323DB09DBB20A33DBB277
:10037C001846FFF78DFF00BF80BD00BFF4010020C1
:10038C00D34D621080B500AF0020FFF781FF00BF96
:10039C0080BD000080B500AF0F4B5B68B3F5FA6F02
:1003AC0003D90A20FFF79EFF13E00B4B5B686FF03D
:1003BC00590202FB03F303F52F3303F54873074A85
:1003CC00A2FB0323DB09DBB20A33DBB21846FFF7CF
:1003DC0089FF00BF80BD00BFF4010020D34D621027
:1003EC0080B500AF0020FFF77DFF00BF80BD00008F
:1003FC0080B400AF1B4B1B680A2B05D9194B1B682B
:10040C000A3B184A136002E0164B00221A60154B87
:10041C005B680A2B05D9134B5B680A3B114A536086
:10042C0002E0104B00225A600F4B1B680A2B05D9B7
:10043C000D4B1B680A3B0C4A136002E00A4B00226E
:10044C001A60094B5B680A2B05D9074B5B680A3BA2
:10045C00054A536002E0044B00225A6000BFBD46BF
:10046C0080BC704744030020F401002080B400AF2E
:10047C00074B00221A60064B00225A60054B0022E3
:10048C001A60044B00225A6000BFBD4680BC704706
:10049C0044030020F401002080B500AF00220021AD
:1004AC00074801F01BF800220021064801F016F85D
:1004BC0000220021044801F011F800BF80BD00BFEC
:1004CC0079040008AD130008C113000880B500AF13
:1004DC000120FFF7BFFE0346002B08D00A220021A3
:1004EC001D4800F0FBFF03461A461C4B1A721C4BAE
:1004FC001B78022B0DD11B4B1B680A2B09D1174BF8
:10050C001B7A184601F0F0F800220A21164800F078
:10051C00E5FF0220FFF79EFE0346002B08D00A22BF
:10052C000021124800F0DAFF03461A460B4B5A72B0
:10053C000B4B5B78022B0DD10A4B5B680A2B09D154
:10054C00064B5B7A184601F0CFF800220A210848C6
:10055C0000F0C4FF00BF80BD35130008FC00002074
:10056C00F0010020F4010020AD1300087113000805
:10057C00C113000880B500AF00220021454800F0EF
:10058C00ADFF00220021444800F0A8FF0A220A21F6
:10059C00424800F0A3FF03461A46414B1A700A2248
:1005AC000021404800F09AFF03461A463C4B5A7013
:1005BC003D4B1A683D4B1B681A443D4B1B6813445A
:1005CC001A4600213B4800F089FF03461A46344B7B
:1005DC009A70354B1968344B1A68344B1B681A44A3
:1005EC00334B1B6813441A46334800F077FF03461D
:1005FC001A462B4BDA702C4B1A682D4B1B68D118F2
:10060C00294B1A68294B1B681A44294B1B68134445
:10061C001A462A4800F062FF03461A46204B1A710C
:10062C00214B1A68214B1B681A44214B1B6813443D
:10063C001A460021224800F051FF03461A46184B77
:10064C005A711B4B1968184B1A68184B1B681A44C3
:10065C00174B1B6813441A461A4800F03FFF034619
:10066C001A460F4B9A71124B1A68104B1B68D11813
:10067C000D4B1A680D4B1B681A440D4B1B68134429
:10068C001A46114800F02AFF03461A46044BDA7149
:10069C0000BF80BDAD130008C1130008D9040008C9
:1006AC00FC000020FD030008380000204000002062
:1006BC003C000020A11F0008B11F0008C11F00084A
:1006CC00F11F000801200008E11F000880B500AFF1
:1006DC0000220021094800F001FF002200210848F7
:1006EC0000F0FCFE00220021064800F0F7FE00227C
:1006FC000021054800F0F2FE00BF80BD911F0008EC
:10070C00D11F0008AD130008C113000880B500AF5D
:10071C000120FFF79FFD0346002B2CD0304B1B789C
:10072C00032B1CD0032B25DC012B02D0022B0BD06E
:10073C0020E0002200212B4800F0D0FE00220021F6
:10074C00294800F0CBFE16E000220021274800F0DB
:10075C00C5FE00220021244800F0C0FE0BE0002260
:10076C000021234800F0BAFE00220021214800F0AD
:10077C00B5FE00E000BF0220FFF76CFD0346002B26
:10078C002CD0174B5B78032B1CD0032B25DC012BB7
:10079C0002D0022B0BD020E000220021164800F0E2
:1007AC009DFE00220021154800F098FE16E0002264
:1007BC000021134800F092FE002200210F4800F0A7
:1007CC008DFE0BE0002200210E4800F087FE002277
:1007DC0000210D4800F082FE00E000BF00BF80BD8C
:1007EC0040030020B11F0008AD130008C11F000812
:1007FC00A11F000835130008F11F0008C1130008E1
:10080C0001200008E11F00087113000880B500AF3B
:10081C000A220A210B4800F061FE03461A460A4BD5
:10082C001A7000220021094800F058FE0022002115
:10083C00074800F053FE00220021064800F04EFE4F
:10084C0000BF80BD1907000808010020A11F000887
:10085C0035130008F11F000880B400AF00BFBD467F
:10086C0080BC704780B500AF0120FFF7F3FC034656
:10087C00002B00F0AB809D4B5B78184600F034FFEA
:10088C009A4B9B78184600F02FFF984BDB78184654
:10089C0000F02AFF954B1B79184600F025FF944B6E
:1008AC001B78032B63D0032B00F38F80012B02D01A
:1008BC00022B2ED089E04FF47A7200218D4800F083
:1008CC000DFE03461A46894B5A704FF47A7200217A
:1008DC00894800F003FE03461A46844B9A704FF485
:1008EC007A724FF4FA71854800F0F8FD03461A4607
:1008FC007E4BDA704FF47A724FF4FA71804800F044
:10090C00EDFD03461A46794B1A71794B02221A7087
:10091C005CE04FF47A7200217A4800F0DFFD034668
:10092C001A46724B5A704FF47A720021764800F0D6
:10093C00D5FD03461A466D4B9A704FF47A724FF4FC
:10094C00FA716E4800F0CAFD03461A46674BDA701E
:10095C004FF47A724FF4FA71694800F0BFFD034608
:10096C001A46624B1A71624B03221A702EE04FF436
:10097C007A720021654800F0B1FD03461A465B4BC4
:10098C005A704FF47A720021614800F0A7FD0346BB
:10099C001A46564B9A704FF47A724FF4FA715748C4
:1009AC0000F09CFD03461A46504BDA704FF47A72F5
:1009BC004FF4FA71524800F091FD03461A464B4B26
:1009CC001A714B4B01221A7000E000BF0220FFF796
:1009DC0041FC0346002B41D0454B1B78032B2AD0FE
:1009EC00032B3ADC012B02D0022B12D035E0494B01
:1009FC001B6844F63722934206D8464B1B6803F516
:100A0C007A73444A136029E0424B44F620621A6020
:100A1C0024E0414B1B6844F63722934206D83E4BE8
:100A2C001B6803F57A733C4A136017E03A4B44F6A3
:100A3C0020621A6012E0394B1B6844F6372293424D
:100A4C0006D8364B1B6803F57A73344A136005E0FD
:100A5C00324B44F620621A6000E000BF0320FFF71F
:100A6C00F9FB0346002B3ED0214B1B78032B28D0DF
:100A7C00032B37DC012B02D0022B11D032E0254B9B
:100A8C001B68B3F5FA6F06D9224B1B68A3F57A7372
:100A9C00204A136027E01F4B4FF47A721A6022E051
:100AAC001D4B1B68B3F5FA6F06D91B4B1B68A3F5DE
:100ABC007A73194A136016E0174B4FF47A721A6066
:100ACC0011E0164B1B68B3F5FA6F06D9134B1B6874
:100ADC00A3F57A73114A136005E0104B4FF47A7248
:100AEC001A6000E000BF00BF80BD00BF0C010020F9
:100AFC0018000020B11F0008F11F0008911F00080A
:100B0C00D11F0008C11F000801200008A11F000808
:100B1C00E11F0008380000203C00002040000020AD
:100B2C0080B500AF0A220A21194800F0D7FC034611
:100B3C001A46184B1A704FF47A720021164800F0BE
:100B4C00CDFC03461A46134B5A704FF47A720021AF
:100B5C00124800F0C3FC03461A460E4B9A704FF431
:100B6C007A724FF4FA710E4800F0B8FC03461A463C
:100B7C00084BDA704FF47A724FF4FA71094800F0AE
:100B8C00ADFC03461A46034B1A7100BF80BD00BF73
:100B9C00710800080C010020A11F0008E11F0008CB
:100BAC00911F0008D11F000880B500AF0022002162
:100BBC000C4800F093FC002200210B4800F08EFC46
:100BCC0000220021094800F089FC0022002108487D
:100BDC0000F084FC00220021064800F07FFC00BFDE
:100BEC0080BD00BF911F0008D11F0008AD13000885
:100BFC00C11300088105000880B582B000AF002049
:100C0C00FFF728FB0346002B62D0334B1B78022BDB
:100C1C0040D0022B5BDC002B02D0012B1DD056E008
:100C2C000023FB7108E0FB792C4AD35C184600F0DA
:100C3C005BFDFB790133FB71FB79092BF3D90022A6
:100C4C000021274800F04AFC00220A21254800F028
:100C5C0045FC214B01221A703AE00023BB7108E0DD
:100C6C00BB79214AD35C184600F03EFDBB790133B9
:100C7C00BB71BB79002BF3D0002200211B4800F084
:100C8C002DFC00220A211A4800F028FC124B0222EB
:100C9C001A701DE000237B7108E07B79154AD35C48
:100CAC00184600F021FD7B7901337B717B79042B95
:100CBC00F3D900220021104800F010FC00220A2178
:100CCC000E4800F00BFC044B00221A7000E000BF31
:100CDC0000BF0837BD4680BDF8000020FC00002096
:100CEC00A50400081908000808010020D90600080E
:100CFC002D0B00080C010020650800088105000878
:100D0C0080B500AF2021024801F06FFD00BF80BD0F
:100D1C000008014080B582B000AF78607B681B682A
:100D2C00084A93420AD101220749084803F0A3F963
:100D3C00322301220449054803F01AF900BF083791
:100D4C00BD4680BD00440040EC010020A401002001
:100D5C0080B586B000AF00F08BFE03461A463B1DF3
:100D6C001549184603F02CFF03469AB2391D64232B
:100D7C00124803F0FDF801F0C3F902463B1D10497F
:100D8C00184603F01DFF03469AB2391D64230B4825
:100D9C0003F0EEF80B4B1A683B1D0B49184603F099
:100DAC000FFF03469AB2391D6423044803F0E0F8A0
:100DBC0000BF1837BD4680BD48550008A40100206F
:100DCC0058550008F40100206455000880B500AFA8
:100DDC0001F03EF900F04AF800F07CF900F082F8DE
:100DEC0000F04EF900F0CAF8174802F077F900212C
:100DFC00164802F017FA0421144802F013FA0122E3
:100E0C001349144803F037F900F0DEFA4FF47A7204
:100E1C000021114800F062FB4FF4FA7200210F48D8
:100E2C0000F05CFB0A2200210D4800F057FB002269
:100E3C0000210C4800F052FB0A220A210A4800F05B
:100E4C004DFB00F031FBFCE7140100205C0100209D
:100E5C00EC010020A40100200D0D00085D0D000820
:100E6C004D010008B50B0008050C000880B590B0CA
:100E7C0000AF07F1180328220021184603F0C0FE2A
:100E8C003B1D00221A605A609A60DA601A610223D4
:100E9C00BB610123BB621023FB6200237B6307F160
:100EAC001803184601F0BAFC0346002B01D000F0E1
:100EBC0090F90F237B600023BB600023FB600023B1
:100ECC003B6100237B613B1D0021184601F028FF8C
:100EDC000346002B01D000F07CF900BF4037BD4623
:100EEC0080BD000080B586B000AF07F1080300227A
:100EFC001A605A609A60DA603B4600221A605A60A7
:100F0C001D4B4FF080421A601B4B01225A601A4B4A
:100F1C0000229A60184B49F63F42DA60164B0022C9
:100F2C001A61154B00229A61134802F087F80346A8
:100F3C00002B01D000F04DF94FF48053BB6007F14A
:100F4C00080319460C4802F0D3FB0346002B01D0D2
:100F5C0000F03FF900233B6000237B603B461946C1
:100F6C00054802F04BFF0346002B01D000F031F98D
:100F7C0000BF1837BD4680BD1401002080B58EB06F
:100F8C0000AF07F1280300221A605A609A60DA60F9
:100F9C0007F1200300221A605A603B1D00221A60E0
:100FAC005A609A60DA601A615A619A61324B334A1C
:100FBC001A60314B00225A602F4B00229A602E4B44
:100FCC004FF6FF12DA602C4B00221A612A4B0022DA
:100FDC009A61294802F032F80346002B01D000F048
:100FEC00F8F84FF48053BB6207F1280319462248E6
:100FFC0002F07EFB0346002B01D000F0EAF81E48FD
:10100C0002F0B8F80346002B01D000F0E2F8002300
:10101C003B6200237B6207F120031946164802F05D
:10102C00EDFE0346002B01D000F0D3F860237B606B
:10103C000023BB600023FB6000237B613B1D00226F
:10104C0019460D4802F092FA0346002B01D000F02D
:10105C00C0F83B1D04221946074802F087FA0346E4
:10106C00002B01D000F0B5F8034800F087FD00BF5D
:10107C003837BD4680BD00BF5C0100200004004035
:10108C0080B500AF114B124A1A60104B4FF4165238
:10109C005A600E4B00229A600C4B0022DA600B4B0C
:1010AC0000221A61094B0C225A61084B00229A61EA
:1010BC00064B0022DA61054802F00AFF0346002BBA
:1010CC0001D000F086F800BF80BD00BFA401002055
:1010DC000044004080B586B000AF07F10803002241
:1010EC001A605A609A60DA602F4B9B692E4A43F063
:1010FC00040393612C4B9B6903F004037B607B68B6
:10110C00294B9B69284A43F008039361264B9B6942
:10111C0003F008033B603B6800222021234801F0C8
:10112C004CFB00224FF6FF71214801F046FB2023B7
:10113C00BB600123FB6001233B6102237B6107F150
:10114C0008031946194801F0A5F947F27333BB603F
:10115C000123FB6001233B6102237B6107F1080340
:10116C001946134801F096F948F68C43BB600123ED
:10117C00FB6002233B6102237B6107F108031946E4
:10118C000B4801F087F94FF47063BB600023FB60E0
:10119C0001233B6107F108031946044801F07AF971
:1011AC0000BF1837BD4680BD00100240000801404A
:1011BC00000C014080B582B000AF78607B681B6882
:1011CC00B3F1804F01D100F049F900BF0837BD469B
:1011DC0080BD80B400AF72B600BFFEE780B582B0B0
:1011EC0000AF03460A46FB711346BB71BB79022B59
:1011FC005ED0022B00F38180002B02D0012B1DD07E
:10120C007BE0FB793F4A52F82300FB793E4A32F8E7
:10121C0013300122194601F0D0FAFB793B4A52F8FF
:10122C002300FB793A4A32F813300122194601F0B7
:10123C00C4FAFB79374A0021D1545FE0FB79314A7B
:10124C0052F82300FB79304A32F813300022194649
:10125C0001F0B3FAFB792D4A52F82300FB792C4AA2
:10126C0032F813300122194601F0A7FAFB79294A0A
:10127C000121D154FB79284AD35C022B02D0032BD9
:10128C000CD014E0FB79254A52F82310244B1A6831
:10129C00FB790A44234941F8232008E0FA79FB79C9
:1012AC001E4951F822201F4941F8232000BF25E098
:1012BC00FB79144A52F82300FB79134A32F81330A5
:1012CC000122194601F079FAFB79104A52F82300F1
:1012DC00FB790F4A32F813300022194601F06DFAEF
:1012EC00FB790C4A0221D154FA79FB790B4951F85C
:1012FC0022200C4941F8232000E000BF00BF083732
:10130C00BD4680BD1C0000202C00002024000020C5
:10131C0030000020F0010020400300204403002096
:10132C0040000020F401002080B500AF0C4B1B786E
:10133C00012B05D0002B0FDD023B012B0CD806E056
:10134C0002210020FFF74AFFFEF7F6FF05E001211E
:10135C000020FFF743FF00E000BF00BF80BD00BFCF
:10136C004003002080B500AF0C4B5B78012B05D0FF
:10137C00002B0FDD023B012B0CD806E002210120D3
:10138C00FFF72CFFFFF706F805E001210120FFF71E
:10139C0025FF00E000BF00BF80BD00BF4003002060
:1013AC0080B500AF00210020FFF718FFFEF7EAFF21
:1013BC0000BF80BD80B500AF00210120FFF70EFFFC
:1013CC00FFF70EF800BF80BD80B483B000AF0023E0
:1013DC00FB7137E0FA79204913469B0013449B00BC
:1013EC000B4400221A60FA79FB79C3F10F03D8B2CF
:1013FC00194913469B0013449B000B4404330246CB
:10140C001A70FA79144913469B0013449B000B4441
:10141C00083300221A60FA790F4913469B001344D3
:10142C009B000B440C3300221A60FA790A491346CC
:10143C009B0013449B000B44103300221A70FB7961
:10144C000133FB71FB790F2BC4D900BF00BF0C37E4
:10145C00BD4680BC704700BFFC01002080B400AFCB
:10146C00104B1B68002B18D00E4B9B68002B0CD01C
:10147C000C4B9B680A2B05D90A4B9B680A3B094A03
:10148C00936002E0074B00229A60064B9B68002B8E
:10149C0004D1044B01221A7400E000BFBD4680BC8D
:1014AC00704700BFFC01002080B500AF0A4B1B7CCD
:1014BC00002B0FD0084B1B689847074BDB68002BA1
:1014CC0002D000F0A3F906E0034B1B79184600F09C
:1014DC000BF900E000BF80BDFC010020B0B489B066
:1014EC0000AFF860B9607A607E4BD3F82C31002BDA
:1014FC0001D01023F1E07B4B93F830317B76002345
:10150C00FB610023FB76E3E0FA7E764913469B00F1
:10151C0013449B000B4408331B68FA691344FB61AA
:10152C00FA69BB689A420AD8FA7E6E4913469B0048
:10153C0013449B000B441B68002B40F0C6800F2308
:10154C00BB7617E0BB7E5A1EB97E66480B469B00E5
:10155C000B449B001844634913469B0013449B00A7
:10156C000B4404461D460FCD0FC42B682360BB7E75
:10157C00013BBB76BA7EFB7E9A42E3D8FA7E594990
:10158C0013469B0013449B000B44FA681A60FA7EC6
:10159C00544913469B0013449B000B4404337A7E3E
:1015AC001A70FA7E4F4913469B0013449B000B4460
:1015BC000C337A681A60FA7E4A4913469B0013442E
:1015CC009B000B44103300221A70FA69BB689A42D4
:1015DC0050D9FA69BB68D31A7B61FB7E5A1C41490E
:1015EC0013469B0013449B000B44083319687B691A
:1015FC00FA7EC91A3B4813469B0013449B000344D4
:10160C0008331960FA7E374913469B0013449B003C
:10161C000B4408331B68002B09D1FA7E3149134661
:10162C009B0013449B000B44103301221A70FB7E69
:10163C005A1C79692B4813469B0013449B000344A6
:10164C0008331960FB7E5A1C264913469B00134431
:10165C009B000B4408331B68002B2CD1FB7E5A1CBF
:10166C00204913469B0013449B000B44103301226A
:10167C001A7020E0FA7EB968FB69C91A194813463A
:10168C009B0013449B00034408331960FA7E1549F0
:10169C0013469B0013449B000B4408331B68002B20
:1016AC0009D1FA7E0F4913469B0013449B000B444F
:1016BC00103301221A70FA7E0A4913469B00134418
:1016CC009B000B4404331B7807E0FB7E0133FB7655
:1016DC00FB7E0F2B7FF618AF102318462437BD4620
:1016EC00B0BC7047FC010020B0B485B000AF03461D
:1016FC00FB710023FB737CE0FA7B434913469B0090
:10170C0013449B000B4404331B78FA799A426DD135
:10171C00FA7B3D4913469B0013449B000B44043356
:10172C001B787B73FB7B5A1C374913469B00134475
:10173C009B000B441B68002B1DD0FB7B5A1C3249B1
:10174C0013469B0013449B000B4408331968FA7B27
:10175C002D4813469B0013449B00034408331B681D
:10176C00FA7B01321944284813469B0013449B0012
:10177C00034408331960FB7BBB7317E0BB7B5A1C1B
:10178C00B97B21480B469B000B449B0018441E4917
:10179C0013469B0013449B000B4404461D460FCD7F
:1017AC000FC42B682360BB7B0133BB73BB7B0E2B3D
:1017BC00E4D9154B0022C3F82C21134A7B7B82F809
:1017CC003031114B0022C3F834210F4B0022C3F8E7
:1017DC0038210D4B002283F83C210B4BD3F82C31D4
:1017EC00002B0CBF01230023DBB207E0FB7B013392
:1017FC00FB73FB7B0F2B7FF67FAF00231846143750
:10180C00BD46B0BC704700BFFC010020B0B489B02D
:10181C0000AF964B1B68002B01D1002320E1934BAA
:10182C003C461D460FCD0FC42B6823600023FB6183
:10183C000023FB760FE1FB7E0F2B0AD0FB7E5A1C9C
:10184C008A4913469B0013449B000B441B68002BD6
:10185C004AD1FA7E3968854813469B0013449B0095
:10186C0003441960FA7E3879804913469B0013446F
:10187C009B000B44043302461A70FA7EF9687B48CD
:10188C0013469B0013449B0003440C331960FA7EEF
:10189C00764913469B0013449B000B4410330022E3
:1018AC001A70F968FA7EFB69C91A704813469B00D6
:1018BC0013449B00034408331960FA7E6B491346AA
:1018CC009B0013449B000B4408331B68002B09D16D
:1018DC00FA7E664913469B0013449B000B4410335D
:1018EC0001221A700123BBE0FB7E5A1C5F49134690
:1018FC009B0013449B000B4408331B68FA69134488
:10190C00FB61FB68FA699A4240F28D80FA7E396875
:10191C00564813469B0013449B0003441960FA7EFF
:10192C003879524913469B0013449B000B440433F3
:10193C0002461A70FA7EF9684C4813469B00134411
:10194C009B0003440C331960FA7E484913469B00F4
:10195C0013449B000B44103300221A70FB68FA6985
:10196C00D31A7B61FB7E5A1C404913469B001344DF
:10197C009B000B44083319687B69FA7EC91A3B48F3
:10198C0013469B0013449B00034408331960FA7EF2
:10199C00364913469B0013449B000B4408331B68C9
:1019AC00002B09D1FA7E314913469B0013449B004E
:1019BC000B44103301221A70FB7E5A1C2B49134620
:1019CC009B0013449B000B4408331968FA7E27488C
:1019DC0013469B0013449B00034408331B68FA7E98
:1019EC000132C91A214813469B0013449B0003443F
:1019FC0008331960FB7E5A1C1C4913469B00134488
:101A0C009B000B4408331B68002B0AD1FB7E5A1C2D
:101A1C00164913469B0013449B000B4410330122C0
:101A2C001A7001231CE0FB7E5A1CF97E0F480B46F2
:101A3C009B000B449B0018440C4913469B00134419
:101A4C009B000B4404461D460FCD0FC42B6823602E
:101A5C00FB7E0133FB76FB7E0F2B7FF6ECAE002377
:101A6C0018462437BD46B0BC704700BFFC010020AF
:101A7C0080B483B000AF0023FB710023BB710FE077
:101A8C00BA790C4913469B0013449B000B441B680A
:101A9C00002B02D0FB790133FB71BB790133BB7195
:101AAC00BB790F2BECD9FB7918460C37BD4680BCA3
:101ABC00704700BFFC01002080B483B000AF0E4B18
:101ACC009B690D4A43F0010393610B4B9B6903F037
:101ADC0001037B607B68084BDB69074A43F080534A
:101AEC00D361054BDB6903F080533B603B6800BF5F
:101AFC000C37BD4680BC70470010024080B584B0E6
:101B0C0000AF78607B681B68B3F1804F14D1194B20
:101B1C00DB69184A43F00103D361164BDB6903F010
:101B2C000103FB60FB68002200211C2000F0C9FBB4
:101B3C001C2000F0E2FB18E07B681B680E4A934205
:101B4C0013D10C4BDB690B4A43F00203D361094BF5
:101B5C00DB6903F00203BB60BB68002200211D207F
:101B6C0000F0AFFB1D2000F0C8FB00BF1037BD46D6
:101B7C0080BD00BF001002400004004080B588B05A
:101B8C0000AF786007F1100300221A605A609A6067
:101B9C00DA607B681B680F4A934217D10E4B9B6926
:101BAC000D4A43F0040393610B4B9B6903F0040350
:101BBC00FB60FB68C0233B6102237B610223FB615A
:101BCC0007F110031946054800F064FC00BF2037EC
:101BDC00BD4680BD000400400010024000080140DA
:101BEC0080B588B000AF786007F1100300221A604E
:101BFC005A609A60DA607B681B681F4A934237D13F
:101C0C001E4BDB691D4A43F40033D3611B4BDB696C
:101C1C0003F40033FB60FB68184B9B69174A43F0D5
:101C2C0004039361154B9B6903F00403BB60BB6811
:101C3C0004233B6102237B610323FB6107F1100347
:101C4C0019460F4800F026FC08233B6100237B61FA
:101C5C000023BB6107F110031946094800F01AFC78
:101C6C0000220021262000F02CFB262000F045FB52
:101C7C0000BF2037BD4680BD00440040001002402C
:101C8C000008014080B400AFFEE780B400AFFEE76F
:101C9C0080B400AFFEE780B400AFFEE780B400AFC5
:101CAC00FEE780B400AF00BFBD4680BC704780B477
:101CBC0000AF00BFBD4680BC704780B400AF00BF12
:101CCC00BD4680BC704780B500AF00F007FA00BF7E
:101CDC0080BD000080B500AF024801F03FFB00BFA3
:101CEC0080BD00BF1401002080B500AF024801F098
:101CFC0035FB00BF80BD00BF5C01002080B500AF8C
:101D0C00024802F0DDF900BF80BD00BFA401002035
:101D1C0080B586B000AF7860144A154BD31A7B613E
:101D2C007B693B61134B1B68002B02D1114B124A90
:101D3C001A60104B1A687B6813443A699A4207D2AE
:101D4C0002F066FF03460C221A604FF0FF3309E0E5
:101D5C00084B1B68FB60074B1A687B681344054AE9
:101D6C001360FB6818461837BD4680BD002800205C
:101D7C00000400003C0300209804002080B400AF55
:101D8C0000BFBD4680BC704780B582B000AF034633
:101D9C000A46FB711346BB71BB79032B00F2CE8054
:101DAC0001A252F823F000BFC51D0008171E000841
:101DBC007D1E0008E31E0008FB79664A52F82300DA
:101DCC00FB79654A32F813300122194600F0F5FC14
:101DDC00FB79624A52F82300FB79614A32F81330DE
:101DEC000122194600F0E9FCFB795E4A52F8230007
:101DFC00FB795D4A32F813300122194600F0DDFC04
:101E0C00FB795A4A0021D1549FE0FB79514A52F890
:101E1C002300FB79504A32F813300022194600F0A7
:101E2C00CCFCFB794D4A52F82300FB794C4A32F832
:101E3C0013300122194600F0C0FCFB79494A52F8D4
:101E4C002300FB79484A32F813300122194600F07E
:101E5C00B4FCFB79454A0121D154454B1B78002B2E
:101E6C006ED1FB79434A1268434941F8232067E05D
:101E7C00FB79384A52F82300FB79374A32F8133091
:101E8C000122194600F099FCFB79344A52F82300E0
:101E9C00FB79334A32F813300122194600F08DFCDD
:101EAC00FB79304A52F82300FB792F4A32F8133071
:101EBC000022194600F081FCFB792C4A0221D154F6
:101ECC002B4B1B78002B3DD1FB792C4A12682A49ED
:101EDC0041F8232036E0FB791E4A52F82300FB79A7
:101EEC001D4A32F813300122194600F066FCFB79CA
:101EFC001A4A52F82300FB79194A32F8133000229F
:101F0C00194600F05AFCFB79164A52F82300FB796B
:101F1C00154A32F813300122194600F04EFCFB79B9
:101F2C00124A0321D154124B1B78002B0CD1FB7994
:101F3C00134A1268104941F8232005E000BF04E061
:101F4C0000BF02E000BF00E000BF00BF0837BD4685
:101F5C0080BD00BF440000205C0000205400002025
:101F6C00640000204C000020600000204003002092
:101F7C00F800002038000020440300203C00002022
:101F8C004000002080B500AF00210020FFF7FCFED0
:101F9C0000BF80BD80B500AF01210020FFF7F4FE2B
:101FAC0000BF80BD80B500AF02210020FFF7ECFE22
:101FBC0000BF80BD80B500AF03210020FFF7E4FE19
:101FCC0000BF80BD80B500AF00210120FFF7DCFE13
:101FDC0000BF80BD80B500AF01210120FFF7D4FE0A
:101FEC0000BF80BD80B500AF02210120FFF7CCFE01
:101FFC0000BF80BD80B500AF03210120FFF7C4FEF8
:10200C0000BF80BDFFF7BAFE0B480C490C4A0023F9
:10201C0002E0D458C4500433C4188C42F9D3094A92
:10202C00094C002301E013600432A242FBD302F0FE
:10203C00F5FDFEF7CBFE704700000020C00000202D
:10204C00DC550008C000002098040020FEE70000CA
:10205C0080B500AF084B1B68074A43F010031360B0
:10206C00032000F023F90F2000F008F8FFF724FDFF
:10207C000023184680BD00BF0020024080B582B00E
:10208C0000AF7860124B1A68124B1B7819464FF44C
:10209C007A73B3FBF1F3B2FBF3F3184600F03BF9A0
:1020AC000346002B01D001230EE07B680F2B0AD8CE
:1020BC00002279684FF0FF3000F003F9064A7B6884
:1020CC001360002300E0012318460837BD4680BD8D
:1020DC00340000206C0000206800002080B400AFA9
:1020EC00054B1B781A46054B1B681344034A1360B7
:1020FC0000BFBD4680BC70476C0000204C03002024
:10210C0080B400AF024B1B681846BD4680BC7047BC
:10211C004C03002080B485B000AF78607B6803F07E
:10212C000703FB600C4BDB68BB60BA684FF6FF0320
:10213C001340BB60FB681A02BB68134343F0BF63D8
:10214C0043F40033BB60044ABB68D36000BF143750
:10215C00BD4680BC704700BF00ED00E080B400AF0E
:10216C00044BDB681B0A03F007031846BD4680BC12
:10217C00704700BF00ED00E080B483B000AF0346B1
:10218C00FB7197F90730002B0BDBFB7903F01F0277
:10219C00064997F907305B09012000FA02F241F871
:1021AC00232000BF0C37BD4680BC704700E100E027
:1021BC0080B483B000AF03463960FB7197F90730E8
:1021CC00002B0ADB3B68DAB20C4997F90730120195
:1021DC00D2B20B4483F800230AE03B68DAB2084918
:1021EC00FB7903F00F03043B1201D2B20B441A76B5
:1021FC0000BF0C37BD4680BC704700BF00E100E05B
:10220C0000ED00E080B489B000AFF860B9607A608E
:10221C00FB6803F00703FB61FB69C3F10703042BA5
:10222C0028BF0423BB61FB690433062B02D9FB696D
:10223C00033B00E000237B614FF0FF32BB6902FAE5
:10224C0003F3DA43BB681A407B699A404FF0FF31C5
:10225C007B6901FA03F3D9437B680B40134318469F
:10226C002437BD4680BC704780B582B000AF786023
:10227C007B68013BB3F1807F01D301230FE00A4A55
:10228C007B68013B53600F214FF0FF30FFF790FF4D
:10229C00054B00229A60044B07221A600023184653
:1022AC000837BD4680BD00BF10E000E080B582B0AD
:1022BC0000AF78607868FFF72DFF00BF0837BD4688
:1022CC0080BD80B586B000AF0346B9607A60FB7301
:1022DC0000237B61FFF742FF78617A68B9687869FF
:1022EC00FFF790FF024697F90F3011461846FFF79B
:1022FC005FFF00BF1837BD4680BD80B582B000AF10
:10230C000346FB7197F907301846FFF735FF00BFFE
:10231C000837BD4680BD80B582B000AF7860786864
:10232C00FFF7A2FF034618460837BD4680BD80B4B0
:10233C0085B000AF78600023FB737B6893F8213085
:10234C00DBB2022B08D07B6804229A637B680022E4
:10235C0083F82020012320E07B681B681A687B68C7
:10236C001B6822F00E021A607B681B681A687B6877
:10237C001B6822F001021A607B681A6C7B68DB6BAD
:10238C00012101FA02F25A607B68012283F82120B4
:10239C007B68002283F82020FB7B18461437BD464F
:1023AC0080BC704780B584B000AF78600023FB73AD
:1023BC007B6893F82130DBB2022B05D07B680422BA
:1023CC009A630123FB7351E07B681B681A687B6876
:1023DC001B6822F00E021A607B681B681A687B6807
:1023EC001B6822F001021A607B681B68224A934228
:1023FC0029D07B681B68214A934222D07B681B68DA
:10240C001F4A93421AD07B681B681E4A934212D013
:10241C007B681B681C4A93420AD07B681B681B4A6A
:10242C00934202D14FF480130EE04FF080730BE017
:10243C004FF4803308E04FF4805305E04FF4807381
:10244C0002E0102300E00123114A53607B68012253
:10245C0083F821207B68002283F820207B685B6B4B
:10246C00002B03D07B685B6B78689847FB7B184626
:10247C001037BD4680BD00BF080002401C00024062
:10248C003000024044000240580002406C00024000
:10249C000000024080B48BB000AF7860396000233C
:1024AC007B6200233B6261E101227B6A02FA03F347
:1024BC00FB613B681B68FA691340BB61BA69FB6935
:1024CC009A4240F050813B685B68974A93425ED0D9
:1024DC00954A934275D8954A934258D0934A934261
:1024EC006FD8934A934252D0914A934269D8914AF9
:1024FC0093424CD08F4A934263D88F4A934246D032
:10250C008D4A93425DD8122B2AD8122B59D801A28E
:10251C0052F823F09B250008752500088725000834
:10252C00C9250008CF250008CF250008CF250008B5
:10253C00CF250008CF250008CF250008CF2500089F
:10254C00CF250008CF250008CF250008CF2500088F
:10255C00CF250008CF2500087D250008912500080F
:10256C00764A934213D02CE03B68DB683B6229E04F
:10257C003B68DB6804333B6224E03B68DB68083370
:10258C003B621FE03B68DB680C333B621AE03B6844
:10259C009B68002B02D104233B6213E03B689B68D1
:1025AC00012B05D108233B627B68FA691A6109E0AB
:1025BC0008233B627B68FA695A6103E000233B62A3
:1025CC0000E000BFBB69FF2B01D87B6801E07B6892
:1025DC0004337B61BB69FF2B02D87B6A9B0002E052
:1025EC007B6A083B9B003B617B691A680F213B6946
:1025FC0001FA03F3DB431A40396A3B6901FA03F32E
:10260C001A437B691A603B685B6803F08053002BAC
:10261C0000F0A9804A4B9B69494A43F0010393613E
:10262C00474B9B6903F00103BB60BB68454A7B6A5F
:10263C009B08023352F82330FB607B6A03F00303E0
:10264C009B000F2202FA03F3DB43FA681340FB6092
:10265C007B683D4A93420DD07B683C4A934207D03D
:10266C007B683B4A934201D1022304E0032302E03E
:10267C00012300E000237A6A02F0030292009340E7
:10268C00FA681343FB602F497B6A9B080233FA6894
:10269C0041F823203B685B6803F48013002B06D0C1
:1026AC002C4B9A682B49BB6913438B6006E0294B72
:1026BC009A68BB69DB43274913408B603B685B68B6
:1026CC0003F40013002B06D0224BDA682149BB69B6
:1026DC001343CB6006E01F4BDA68BB69DB431D4933
:1026EC001340CB603B685B6803F40033002B06D0CF
:1026FC00184B5A681749BB6913434B6006E0154BDE
:10270C005A68BB69DB43134913404B603B685B68F9
:10271C0003F48033002B1FD00E4B1A680D49BB6994
:10272C0013430B601FE000BF00003210000031109B
:10273C0000002210000021100000121000001110E7
:10274C00001002400000014000080140000C014054
:10275C0000100140000401400B4B1A68BB69DB43BD
:10276C00094913400B607B6A01337B623B681A6832
:10277C007B6A22FA03F3002B7FF496AE00BF00BFF6
:10278C002C37BD4680BC70470004014080B485B036
:10279C0000AF78600B467B807B689A687B8813401F
:1027AC00002B02D00123FB7301E00023FB73FB7BA6
:1027BC0018461437BD4680BC704780B483B000AF58
:1027CC0078600B467B8013467B707B78002B03D0A4
:1027DC007A887B681A6103E07B881A047B681A612B
:1027EC0000BF0C37BD4680BC704780B485B000AFCD
:1027FC0078600B467B807B68DB68FB607A88FB68C3
:10280C0013401A04FB68D9437B880B401A437B683E
:10281C001A6100BF1437BD4680BC704780B586B0C6
:10282C0000AF78607B68002B01D1012372E27B68DA
:10283C001B6803F00103002B00F08780924B5B6850
:10284C0003F00C03042B0CD08F4B5B6803F00C03D0
:10285C00082B12D18C4B5B6803F48033B3F5803FAB
:10286C000BD1894B1B6803F40033002B6CD07B68B5
:10287C005B68002B68D101234CE27B685B68B3F585
:10288C00803F06D1804B1B687F4A43F48033136032
:10289C002EE07B685B68002B0CD17B4B1B687A4A63
:1028AC0023F480331360784B1B68774A23F480231E
:1028BC0013601DE07B685B68B3F5A02F0CD1724BE5
:1028CC001B68714A43F4802313606F4B1B686E4A7C
:1028DC0043F4803313600BE06B4B1B686A4A23F4A0
:1028EC0080331360684B1B68674A23F480231360A2
:1028FC007B685B68002B13D0FFF702FC386108E0A3
:10290C00FFF7FEFB02463B69D31A642B01D9032364
:10291C0000E25D4B1B6803F40033002BF0D014E095
:10292C00FFF7EEFB386108E0FFF7EAFB02463B6974
:10293C00D31A642B01D90323ECE1534B1B6803F42A
:10294C000033002BF0D100E000BF7B681B6803F064
:10295C000203002B63D04C4B5B6803F00C03002B81
:10296C000BD0494B5B6803F00C03082B1CD1464B76
:10297C005B6803F48033002B16D1434B1B6803F0C8
:10298C000203002B05D07B681B69012B01D00123AE
:10299C00C0E13D4B1B6823F0F8027B685B69DB00F0
:1029AC00394913430B603AE07B681B69002B20D03C
:1029BC00364B01221A60FFF7A3FB386108E0FFF7E2
:1029CC009FFB02463B69D31A022B01D90323A1E1D9
:1029DC002D4B1B6803F00203002BF0D02A4B1B6815
:1029EC0023F0F8027B685B69DB00274913430B601B
:1029FC0015E0264B00221A60FFF782FB386108E0D5
:102A0C00FFF77EFB02463B69D31A022B01D9032345
:102A1C0080E11D4B1B6803F00203002BF0D17B6897
:102A2C001B6803F00803002B3AD07B689B69002BD2
:102A3C0019D0174B01221A60FFF762FB386108E0CE
:102A4C00FFF75EFB02463B69D31A022B01D9032325
:102A5C0060E10D4B5B6A03F00203002BF0D0012008
:102A6C0000F0CEFA1CE00A4B00221A60FFF748FB7C
:102A7C0038610FE0FFF744FB02463B69D31A022B87
:102A8C0008D9032346E100BF001002400000424277
:102A9C0080044242924B5B6A03F00203002BE9D1A3
:102AAC007B681B6803F00403002B00F0A680002356
:102ABC00FB758B4BDB6903F08053002B0DD1884BDE
:102ACC00DB69874A43F08053D361854BDB6903F0A4
:102ADC008053BB60BB680123FB75824B1B6803F4FE
:102AEC008073002B18D17F4B1B687E4A43F4807394
:102AFC001360FFF705FB386108E0FFF701FB0246A6
:102B0C003B69D31A642B01D9032303E1754B1B6872
:102B1C0003F48073002BF0D07B68DB68012B06D1AB
:102B2C006F4B1B6A6E4A43F0010313622DE07B6806
:102B3C00DB68002B0CD16A4B1B6A694A23F001033A
:102B4C001362674B1B6A664A23F0040313621CE092
:102B5C007B68DB68052B0CD1614B1B6A604A43F028
:102B6C00040313625E4B1B6A5D4A43F0010313625C
:102B7C000BE05B4B1B6A5A4A23F001031362584B60
:102B8C001B6A574A23F0040313627B68DB68002B33
:102B9C0015D0FFF7B5FA38610AE0FFF7B1FA024633
:102BAC003B69D31A41F28832934201D90323B1E035
:102BBC004B4B1B6A03F00203002BEED014E0FFF723
:102BCC009FFA38610AE0FFF79BFA02463B69D31A79
:102BDC0041F28832934201D903239BE0404B1B6A9C
:102BEC0003F00203002BEED1FB7D012B05D13C4BF6
:102BFC00DB693B4A23F08053D3617B68DB69002B94
:102C0C0000F08780364B5B6803F00C03082B61D017
:102C1C007B68DB69022B46D1334B00221A60FFF72D
:102C2C006FFA386108E0FFF76BFA02463B69D31A7A
:102C3C00022B01D903236DE0294B1B6803F00073B1
:102C4C00002BF0D17B681B6AB3F5803F08D1244B75
:102C5C005B6823F400327B689B68214913434B600B
:102C6C001F4B5B6823F474127B68196A7B685B6A80
:102C7C000B431B4913434B601B4B01221A60FFF79C
:102C8C003FFA386108E0FFF73BFA02463B69D31A7A
:102C9C00022B01D903233DE0114B1B6803F0007399
:102CAC00002BF0D035E0104B00221A60FFF728FA09
:102CBC00386108E0FFF724FA02463B69D31A022B6D
:102CCC0001D9032326E0064B1B6803F00073002B8D
:102CDC00F0D11EE07B68DB69012B07D1012319E0E1
:102CEC000010024000700040600042420B4B5B68D9
:102CFC00FB60FB6803F480327B681B6A9A4206D146
:102D0C00FB6803F470127B685B6A9A4201D0012362
:102D1C0000E0002318461837BD4680BD0010024065
:102D2C0080B584B000AF786039607B68002B01D12E
:102D3C000123D0E06A4B1B6803F007033A689A4200
:102D4C0010D9674B1B6823F0070265493B68134396
:102D5C000B60634B1B6803F007033A689A4201D07F
:102D6C000123B8E07B681B6803F00203002B20D022
:102D7C007B681B6803F00403002B05D0594B5B6880
:102D8C00584A43F4E06353607B681B6803F0080304
:102D9C00002B05D0534B5B68524A43F4605353608D
:102DAC00504B5B6823F0F0027B689B684D491343E2
:102DBC004B607B681B6803F00103002B40D07B68E1
:102DCC005B68012B07D1474B1B6803F40033002BC6
:102DDC0015D101237FE07B685B68022B07D1414B47
:102DEC001B6803F00073002B09D1012373E03D4BEA
:102DFC001B6803F00203002B01D101236BE0394B5C
:102E0C005B6823F003027B685B68364913434B60B5
:102E1C00FFF776F9F8600AE0FFF772F90246FB68F3
:102E2C00D31A41F28832934201D9032353E02D4B3C
:102E3C005B6803F00C027B685B689B009A42EBD1E9
:102E4C00274B1B6803F007033A689A4210D2244BB5
:102E5C001B6823F0070222493B6813430B60204B8D
:102E6C001B6803F007033A689A4201D0012332E051
:102E7C007B681B6803F00403002B08D0194B5B68BC
:102E8C0023F4E0627B68DB68164913434B607B6874
:102E9C001B6803F00803002B09D0124B5B6823F46A
:102EAC0060527B681B69DB000E4913434B6000F0DA
:102EBC0021F802460B4B5B681B0903F00F030A4910
:102ECC00CB5C22FA03F3094A1360094B1B681846C2
:102EDC00FFF7D4F8002318461037BD4680BD00BF5D
:102EEC0000200240001002407455000834000020FD
:102EFC006800002080B487B000AF0023FB60002383
:102F0C00BB6000237B6100237B6000233B611E4B75
:102F1C005B68FB60FB6803F00C03042B02D0082BEE
:102F2C0003D027E0194B3B6127E0FB689B0C03F0B7
:102F3C000F03174AD35C7B60FB6803F48033002BD0
:102F4C0010D0114B5B685B0C03F00103114AD35C8E
:102F5C00BB607B680D4A03FB02F2BB68B2FBF3F368
:102F6C007B6104E07B680C4A02FB03F37B617B69A9
:102F7C003B6102E0054B3B6100BF3B6918461C37C7
:102F8C00BD4680BC704700BF0010024000127A00A2
:102F9C008C5500089C55000800093D0080B400AF1A
:102FAC00024B1B681846BD4680BC7047340000209D
:102FBC0080B500AFFFF7F2FF0246054B5B681B0ABA
:102FCC0003F007030349CB5C22FA03F3184680BDD8
:102FDC00001002408455000880B500AFFFF7DEFFFB
:102FEC000246054B5B68DB0A03F007030349CB5C25
:102FFC0022FA03F3184680BD0010024084550008E5
:10300C0080B485B000AF78600A4B1B680A4AA2FBFB
:10301C0003235B0A7A6802FB03F3FB6000BFFB68C7
:10302C005A1EFA60002BF9D100BF00BF1437BD4601
:10303C0080BC704734000020D34D621080B582B044
:10304C0000AF78607B68002B01D1012341E07B68E5
:10305C0093F83D30DBB2002B06D17B68002283F85D
:10306C003C207868FEF74AFD7B68022283F83D20FD
:10307C007B681A687B6804331946104600F024FC00
:10308C007B68012283F846207B68012283F83E206E
:10309C007B68012283F83F207B68012283F8402063
:1030AC007B68012283F841207B68012283F842204F
:1030BC007B68012283F843207B68012283F844203B
:1030CC007B68012283F845207B68012283F83D2030
:1030DC00002318460837BD4680BD000080B485B07B
:1030EC0000AF78607B6893F83D30DBB2012B01D0E8
:1030FC00012335E07B68022283F83D207B681B6846
:10310C00DA687B681B6842F00102DA607B681B6836
:10311C00164A934209D07B681B68B3F1804F04D0E8
:10312C007B681B68124A934211D17B681B689B68B1
:10313C0003F00703FB60FB68062B10D07B681B6851
:10314C001A687B681B6842F001021A6007E07B6812
:10315C001B681A687B681B6842F001021A60002326
:10316C0018461437BD4680BC704700BF002C014088
:10317C000004004080B582B000AF78607B68002B03
:10318C0001D1012341E07B6893F83D30DBB2002B89
:10319C0006D17B68002283F83C20786800F039F86F
:1031AC007B68022283F83D207B681A687B680433B5
:1031BC001946104600F088FB7B68012283F84620F4
:1031CC007B68012283F83E207B68012283F83F2034
:1031DC007B68012283F840207B68012283F8412020
:1031EC007B68012283F842207B68012283F843200C
:1031FC007B68012283F844207B68012283F84520F8
:10320C007B68012283F83D20002318460837BD4611
:10321C0080BD80B483B000AF786000BF0C37BD4672
:10322C0080BC704780B584B000AF786039603B6873
:10323C00002B09D17B6893F83E30DBB2012B14BF15
:10324C0001230023DBB222E03B68042B09D17B680D
:10325C0093F83F30DBB2012B14BF01230023DBB208
:10326C0015E03B68082B09D17B6893F84030DBB242
:10327C00012B14BF01230023DBB208E07B6893F819
:10328C004130DBB2012B14BF01230023DBB2002B36
:10329C0001D0012359E03B68002B04D17B6802224A
:1032AC0083F83E2013E03B68042B04D17B68022298
:1032BC0083F83F200BE03B68082B04D17B6802228B
:1032CC0083F8402003E07B68022283F841207B686E
:1032DC001B6801223968184600F06CFD7B681B687E
:1032EC001C4A934207D17B681B685A6C7B681B682D
:1032FC0042F400425A647B681B68164A934209D018
:10330C007B681B68B3F1804F04D07B681B68124A42
:10331C00934211D17B681B689B6803F00703FB6029
:10332C00FB68062B10D07B681B681A687B681B68CF
:10333C0042F001021A6007E07B681B681A687B6820
:10334C001B6842F001021A60002318461037BD4674
:10335C0080BD00BF002C01400004004080B582B04D
:10336C0000AF78607B681B681B6903F00203022BBB
:10337C0022D17B681B68DB6803F00203022B1BD194
:10338C007B681B686FF002021A617B6801221A7756
:10339C007B681B689B6903F00303002B03D07868E0
:1033AC0000F076FA05E0786800F069FA786800F0C9
:1033BC0078FA7B6800221A777B681B681B6903F01C
:1033CC000403042B22D17B681B68DB6803F0040325
:1033DC00042B1BD17B681B686FF004021A617B689D
:1033EC0002221A777B681B689B6903F44073002BDD
:1033FC0003D0786800F04CFA05E0786800F03FFAEA
:10340C00786800F04EFA7B6800221A777B681B689C
:10341C001B6903F00803082B22D17B681B68DB684F
:10342C0003F00803082B1BD17B681B686FF00802A4
:10343C001A617B6804221A777B681B68DB6903F0CE
:10344C000303002B03D0786800F022FA05E07868BB
:10345C0000F015FA786800F024FA7B6800221A77DD
:10346C007B681B681B6903F01003102B22D17B684F
:10347C001B68DB6803F01003102B1BD17B681B68E7
:10348C006FF010021A617B6808221A777B681B6840
:10349C00DB6903F44073002B03D0786800F0F8F973
:1034AC0005E0786800F0EBF9786800F0FAF97B68D1
:1034BC0000221A777B681B681B6903F00103012B40
:1034CC000ED17B681B68DB6803F00103012B07D16D
:1034DC007B681B686FF001021A617868FDF76AFE61
:1034EC007B681B681B6903F08003802B0ED17B6803
:1034FC001B68DB6803F08003802B07D17B681B689B
:10350C006FF080021A61786800F0D9FC7B681B6848
:10351C001B6903F04003402B0ED17B681B68DB68F2
:10352C0003F04003402B07D17B681B686FF040020F
:10353C001A61786800F0BEF97B681B681B6903F0A0
:10354C002003202B0ED17B681B68DB6803F0200363
:10355C00202B07D17B681B686FF020021A617868FA
:10356C0000F0A4FC00BF0837BD4680BD80B586B016
:10357C0000AFF860B9607A600023FB75FB6893F8C4
:10358C003C30012B01D10223AEE0FB68012283F811
:10359C003C207B680C2B00F29F8001A252F823F098
:1035AC00E1350008E5360008E5360008E536000888
:1035BC0021360008E5360008E5360008E536000837
:1035CC0063360008E5360008E5360008E5360008E5
:1035DC00A3360008FB681B68B968184600F0CCF9E4
:1035EC00FB681B689A69FB681B6842F008029A61C9
:1035FC00FB681B689A69FB681B6822F004029A61DD
:10360C00FB681B689969BB681A69FB681B680A43ED
:10361C009A6164E0FB681B68B968184600F012FAFE
:10362C00FB681B689A69FB681B6842F400629A612C
:10363C00FB681B689A69FB681B6822F480629A61BC
:10364C00FB681B689969BB681B691A02FB681B68DD
:10365C000A439A6143E0FB681B68B968184600F09E
:10366C005BFAFB681B68DA69FB681B6842F00802AE
:10367C00DA61FB681B68DA69FB681B6822F00402DC
:10368C00DA61FB681B68D969BB681A69FB681B683F
:10369C000A43DA6123E0FB681B68B968184600F03E
:1036AC00A5FAFB681B68DA69FB681B6842F40062C8
:1036BC00DA61FB681B68DA69FB681B6822F48062BC
:1036CC00DA61FB681B68D969BB681B691A02FB6865
:1036DC001B680A43DA6102E00123FB7500BFFB683B
:1036EC00002283F83C20FB7D18461837BD4680BD70
:1036FC0080B584B000AF786039600023FB737B68C1
:10370C0093F83C30012B01D10223B4E07B680122F9
:10371C0083F83C207B68022283F83D207B681B6881
:10372C009B68BB60BB6823F07703BB60BB6823F46A
:10373C007F43BB607B681B68BA689A603B681B68F8
:10374C00B3F5005F3ED0B3F5005F00F28780B3F5B0
:10375C00805F00F08680B3F5805F7FD8702B1AD025
:10376C00702B7BD8602B50D0602B77D8502B3CD053
:10377C00502B73D8402B58D0402B6FD8302B64D0A3
:10378C00302B6BD8202B60D0202B67D8002B5CD033
:10379C00102B5AD062E07B6818683B6899683B68CC
:1037AC005A683B68DB6800F0E6FA7B681B689B682C
:1037BC00BB60BB6843F07703BB607B681B68BA686F
:1037CC009A604FE07B6818683B6899683B685A6858
:1037DC003B68DB6800F0CFFA7B681B689A687B68F3
:1037EC001B6842F480429A603CE07B6818683B6836
:1037FC0059683B68DB681A4600F046FA7B681B6820
:10380C005021184600F09DFA2CE07B6818683B6844
:10381C0059683B68DB681A4600F064FA7B681B68E1
:10382C006021184600F08DFA1CE07B6818683B6834
:10383C0059683B68DB681A4600F026FA7B681B68FF
:10384C004021184600F07DFA0CE07B681A683B6852
:10385C001B681946104600F074FA03E00123FB7351
:10386C0000E000BF7B68012283F83D207B680022CA
:10387C0083F83C20FB7B18461037BD4680BD80B4D6
:10388C0083B000AF786000BF0C37BD4680BC70477A
:10389C0080B483B000AF786000BF0C37BD4680BCED
:1038AC00704780B483B000AF786000BF0C37BD4662
:1038BC0080BC704780B483B000AF786000BF0C3719
:1038CC00BD4680BC7047000080B485B000AF786006
:1038DC0039607B681B68FB607B68254A934207D084
:1038EC007B68B3F1804F03D07B68224A934208D1A6
:1038FC00FB6823F07003FB603B685B68FA6813435A
:10390C00FB607B681A4A934207D07B68B3F1804F07
:10391C0003D07B68174A934208D1FB6823F44073A9
:10392C00FB603B68DB68FA681343FB60FB6823F0C1
:10393C0080023B685B691343FB607B68FA681A6022
:10394C003B689A687B68DA623B681A687B689A62A3
:10395C007B68074A934203D13B681A697B681A63F8
:10396C007B6801225A6100BF1437BD4680BC70478A
:10397C00002C01400004004080B487B000AF786098
:10398C0039607B681B6A7B617B681B6A23F00102D0
:10399C007B681A627B685B683B617B689B69FB6038
:1039AC00FB6823F07003FB60FB6823F00303FB60F0
:1039BC003B681B68FA681343FB607B6923F00203C6
:1039CC007B613B689B687A6913437B617B681C4A0B
:1039DC0093420CD17B6923F008037B613B68DB6865
:1039EC007A6913437B617B6923F004037B617B68F9
:1039FC00134A934211D13B6923F480733B613B69B9
:103A0C0023F400733B613B685B693A6913433B6188
:103A1C003B689B693A6913433B617B683A695A601E
:103A2C007B68FA689A613B685A687B685A637B6862
:103A3C007A691A6200BF1C37BD4680BC704700BF54
:103A4C00002C014080B487B000AF786039607B688F
:103A5C001B6A7B617B681B6A23F010027B681A620D
:103A6C007B685B683B617B689B69FB60FB6823F44C
:103A7C00E043FB60FB6823F44073FB603B681B680E
:103A8C001B02FA681343FB607B6923F020037B6104
:103A9C003B689B681B017A6913437B617B681D4AF9
:103AAC0093420DD17B6923F080037B613B68DB681B
:103ABC001B017A6913437B617B6923F040037B61B3
:103ACC007B68144A934213D13B6923F480633B61B6
:103ADC003B6923F400633B613B685B699B003A697B
:103AEC0013433B613B689B699B003A6913433B6101
:103AFC007B683A695A607B68FA689A613B685A68D5
:103B0C007B689A637B687A691A6200BF1C37BD4672
:103B1C0080BC7047002C014080B487B000AF786047
:103B2C0039607B681B6A7B617B681B6A23F480723B
:103B3C007B681A627B685B683B617B68DB69FB6056
:103B4C00FB6823F07003FB60FB6823F00303FB604E
:103B5C003B681B68FA681343FB607B6923F40073B2
:103B6C007B613B689B681B027A6913437B617B68B2
:103B7C001D4A93420DD17B6923F400637B613B6842
:103B8C00DB681B027A6913437B617B6923F48063D6
:103B9C007B617B68144A934213D13B6923F48053B5
:103BAC003B613B6923F400533B613B685B691B0140
:103BBC003A6913433B613B689B691B013A691343A8
:103BCC003B617B683A695A607B68FA68DA613B68EA
:103BDC005A687B68DA637B687A691A6200BF1C37A3
:103BEC00BD4680BC704700BF002C014080B487B03C
:103BFC0000AF786039607B681B6A3B617B681B6A2D
:103C0C0023F480527B681A627B685B687B617B68FB
:103C1C00DB69FB60FB6823F4E043FB60FB6823F487
:103C2C004073FB603B681B681B02FA681343FB6024
:103C3C003B6923F400533B613B689B681B033A6967
:103C4C0013433B617B680F4A934209D17B6923F490
:103C5C0080437B613B685B699B017A6913437B61A1
:103C6C007B687A695A607B68FA68DA613B685A68E3
:103C7C007B681A647B683A691A6200BF1C37BD46C0
:103C8C0080BC7047002C014080B487B000AFF86056
:103C9C00B9607A60FB681B6A7B61FB681B6A23F066
:103CAC000102FB681A62FB689B693B613B6923F06C
:103CBC00F0033B617B681B013A6913433B617B69F1
:103CCC0023F00A037B617A69BB6813437B61FB6851
:103CDC003A699A61FB687A691A6200BF1C37BD4663
:103CEC0080BC704780B487B000AFF860B9607A6070
:103CFC00FB681B6A7B61FB681B6A23F01002FB6884
:103D0C001A62FB689B693B613B6923F470433B611E
:103D1C007B681B033A6913433B617B6923F0A00367
:103D2C007B61BB681B017A6913437B61FB683A6951
:103D3C009A61FB687A691A6200BF1C37BD4680BC69
:103D4C00704780B485B000AF786039607B689B6841
:103D5C00FB60FB6823F07003FB603A68FB6813435D
:103D6C0043F00703FB607B68FA689A6000BF143766
:103D7C00BD4680BC704780B487B000AFF860B960B6
:103D8C007A603B60FB689B687B617B6923F47F43B3
:103D9C007B613B681A027B681A43BB6813437A69E0
:103DAC0013437B61FB687A699A6000BF1C37BD4680
:103DBC0080BC704780B487B000AFF860B9607A609F
:103DCC00BB6803F01F03012202FA03F37B61FB685B
:103DDC001A6A7B69DB431A40FB681A62FB681A6A31
:103DEC00BB6803F01F03796801FA03F31A43FB68FD
:103DFC001A6200BF1C37BD4680BC704780B485B0CA
:103E0C0000AF786039607B6893F83C30012B01D1AE
:103E1C00022341E07B68012283F83C207B6802226C
:103E2C0083F83D207B681B685B68FB607B681B68C4
:103E3C009B68BB60FB6823F07003FB603B681B68EE
:103E4C00FA681343FB607B681B68FA685A607B68EE
:103E5C001B68144A934209D07B681B68B3F1804FEE
:103E6C0004D07B681B68104A93420CD1BB6823F0CA
:103E7C008003BB603B685B68BA681343BB607B68BC
:103E8C001B68BA689A607B68012283F83D207B68C6
:103E9C00002283F83C20002318461437BD4680BC12
:103EAC00704700BF002C01400004004080B483B078
:103EBC0000AF786000BF0C37BD4680BC704780B443
:103ECC0083B000AF786000BF0C37BD4680BC704734
:103EDC0080B582B000AF78607B68002B01D10123E4
:103EEC0042E07B6893F84130DBB2002B06D17B6853
:103EFC00002283F840207868FDF772FE7B6824224C
:103F0C0083F841207B681B68DA687B681B6822F4A5
:103F1C000052DA60786800F0C5FD7B681B681A698E
:103F2C007B681B6822F490421A617B681B685A6993
:103F3C007B681B6822F02A025A617B681B68DA686E
:103F4C007B681B6842F40052DA607B6800225A647A
:103F5C007B68202283F841207B68202283F8422052
:103F6C007B6800225A63002318460837BD4680BD83
:103F7C0080B58AB002AFF860B9603B601346FB8035
:103F8C0000237B61FB6893F84130DBB2202B6DD1B1
:103F9C00BB68002B02D0FB88002B01D1012366E00B
:103FAC00FB6800225A64FB68212283F84120FEF74B
:103FBC00A7F87861FB68FA889A84FB68FA88DA8437
:103FCC00FB689B68B3F5805F08D1FB681B69002B0D
:103FDC0004D10023FB61BB68BB6103E0BB68FB61E0
:103FEC000023BB612AE03B6800937B69002280219F
:103FFC00F86800F014FB0346002B01D0032336E0D5
:10400C00FB69002B0BD1BB691B881A46FB681B682C
:10401C00C2F308025A60BB690233BB6107E0FB695B
:10402C001A78FB681B685A60FB690133FB61FB68FB
:10403C00DB8C9BB2013B9AB2FB68DA84FB68DB8CAD
:10404C009BB2002BCFD13B6800937B6900224021AF
:10405C00F86800F0E4FA0346002B01D0032306E0D5
:10406C00FB68202283F84120002300E0022318463D
:10407C002037BD4680BD80B584B000AFF860B96014
:10408C001346FB80FB6893F84230DBB2202B12D135
:10409C00BB68002B02D0FB88002B01D101230BE065
:1040AC00FB6800221A63FB881A46B968F86800F0AE
:1040BC0024FB034600E0022318461037BD4680BDA2
:1040CC0080B5BAB000AF78607B681B681B68C7F816
:1040DC00E4307B681B68DB68C7F8E0307B681B68E2
:1040EC005B69C7F8DC300023C7F8D8300023C7F869
:1040FC00D430D7F8E43003F00F03C7F8D830D7F832
:10410C00D830002B0FD1D7F8E43003F02003002B6C
:10411C0009D0D7F8E03003F02003002B03D07868E7
:10412C0000F001FC5BE2D7F8D830002B00F0DE8009
:10413C00D7F8DC3003F00103002B06D1D7F8E030C0
:10414C0003F49073002B00F0D180D7F8E43003F027
:10415C000103002B0BD0D7F8E03003F48073002B55
:10416C0005D07B685B6C43F001027B685A64D7F81E
:10417C00E43003F00403002B0BD0D7F8DC3003F051
:10418C000103002B05D07B685B6C43F002027B685B
:10419C005A64D7F8E43003F00203002B0BD0D7F8A5
:1041AC00DC3003F00103002B05D07B685B6C43F023
:1041BC0004027B685A64D7F8E43003F00803002B40
:1041CC0011D0D7F8E03003F02003002B05D1D7F83D
:1041DC00DC3003F00103002B05D07B685B6C43F0F3
:1041EC0008027B685A647B685B6C002B00F0F281E0
:1041FC00D7F8E43003F02003002B08D0D7F8E030D8
:10420C0003F02003002B02D0786800F08CFB7B6855
:10421C001B685B6903F04003002B14BF01230023D0
:10422C00DBB2C7F8D4307B685B6C03F00803002B5F
:10423C0003D1D7F8D430002B4FD0786800F096FA21
:10424C007B681B685B6903F04003002B41D07B68E3
:10425C001B681433C7F89C30D7F89C3053E8003FE8
:10426C00C7F89830D7F8983023F04003C7F8D0300F
:10427C007B681B681433D7F8D020C7F8A820C7F880
:10428C00A430D7F8A410D7F8A82041E80023C7F829
:10429C00A030D7F8A030002BD9D17B68DB6B002B7A
:1042AC0013D07B68DB6B7E4A5A637B68DB6B1846EA
:1042BC00FEF778F80346002B16D07B68DB6B5B6B44
:1042CC007A68D26B104698470EE0786800F093F944
:1042DC000AE0786800F08FF906E0786800F08BF956
:1042EC007B6800225A6475E100BF73E17B681B6B2D
:1042FC00012B40F04F81D7F8E43003F01003002B72
:10430C0000F04881D7F8E03003F01003002B00F0E8
:10431C0041810023BB607B681B681B68BB607B68AA
:10432C001B685B68BB60BB687B681B685B6903F0E0
:10433C004003002B00F0B6807B68DB6B1B685B686E
:10434C00A7F8BE30B7F8BE30002B00F045817B6873
:10435C009B8DB7F8BE209A4280F03E817B68B7F8FF
:10436C00BE20DA857B68DB6B9B69202B00F0888094
:10437C007B681B680C33C7F88830D7F8883053E853
:10438C00003FC7F88430D7F8843023F48073C7F823
:10439C00B8307B681B680C33D7F8B820C7F894206A
:1043AC00C7F89030D7F89010D7F8942041E8002344
:1043BC00C7F88C30D7F88C30002BD9D17B681B68B0
:1043CC0014337B677B6F53E8003F3B673B6F23F0F5
:1043DC000103C7F8B4307B681B681433D7F8B420DA
:1043EC00C7F88020FB67F96FD7F8802041E80023DD
:1043FC00BB67BB6F002BE1D17B681B6814333B663A
:10440C003B6E53E8003FFB65FB6D23F04003C7F8A0
:10441C00B0307B681B681433D7F8B020FA66BB66E3
:10442C00B96EFA6E41E800237B667B6E002BE3D1FC
:10443C007B68202283F842207B6800221A637B6809
:10444C001B680C33FB64FB6C53E8003FBB64BB6C18
:10445C0023F01003C7F8AC307B681B680C33D7F81B
:10446C00AC20BA657B65796DBA6D41E800233B657C
:10447C003B6D002BE3D17B68DB6B1846FDF757FFD8
:10448C007B6802225A637B689A8D7B68DB8D9BB2BA
:10449C00D31A9BB21946786800F0B6F89CE000BFBE
:1044AC003D4800087B689A8D7B68DB8D9BB2D31AE4
:1044BC00A7F8CE307B68DB8D9BB2002B00F08E8092
:1044CC00B7F8CE30002B00F089807B681B680C336A
:1044DC00BB63BB6B53E8003F7B637B6B23F4907334
:1044EC00C7F8C8307B681B680C33D7F8C8207A64CF
:1044FC003B64396C7A6C41E80023FB63FB6B002B4B
:10450C00E3D17B681B6814337B627B6A53E8003F02
:10451C003B623B6A23F00103C7F8C4307B681B681D
:10452C001433D7F8C4203A63FB62F96A3A6B41E85A
:10453C000023BB62BB6A002BE3D17B68202283F88B
:10454C0042207B6800221A637B681B680C333B613A
:10455C003B6953E8003FFB60FB6823F01003C7F88E
:10456C00C0307B681B680C33D7F8C020FA61BB6184
:10457C00B969FA6941E800237B617B69002BE3D1BF
:10458C007B6802225A63B7F8CE301946786800F07F
:10459C003BF823E0D7F8E43003F08003002B09D07C
:1045AC00D7F8E03003F08003002B03D0786800F0DC
:1045BC0053F914E0D7F8E43003F04003002B0ED08D
:1045CC00D7F8E03003F04003002B08D0786800F0F7
:1045DC0092F904E000BF02E000BF00E000BFE83742
:1045EC00BD4680BD80B483B000AF786000BF0C378F
:1045FC00BD4680BC704780B483B000AF786000BF0C
:10460C000C37BD4680BC704780B483B000AF786077
:10461C000B467B8000BF0C37BD4680BC704780B515
:10462C0090B000AFF860B9603B601346FB7150E08E
:10463C00BB6CB3F1FF3F4CD0BB6C002B07D0FDF72C
:10464C005FFD02463B68D31ABA6C9A4241D2FB68B2
:10465C001B680C33BB62BB6A53E8003F7B627B6A0E
:10466C0023F4D073FB63FB681B680C33FA6B7A631F
:10467C003B63396B7A6B41E80023FB62FB6A002BCE
:10468C00E5D1FB681B6814337B617B6953E8003F01
:10469C003B613B6923F00103BB63FB681B6814336C
:1046AC00BA6B3A62FB61F9693A6A41E80023BB6173
:1046BC00BB69002BE5D1FB68202283F84120FB6805
:1046CC00202283F84220FB68002283F84020032339
:1046DC000FE0FB681B681A68BB681340BA689A4203
:1046EC000CBF01230023DBB21A46FB799A429FD000
:1046FC00002318464037BD4680BD80B485B000AF5E
:10470C00F860B9601346FB80FB68BA689A62FB6874
:10471C00FA889A85FB68FA88DA85FB6800225A6465
:10472C00FB68222283F84220FB681B69002B07D010
:10473C00FB681B68DA68FB681B6842F48072DA60FD
:10474C00FB681B685A69FB681B6842F001025A61DE
:10475C00FB681B68DA68FB681B6842F02002DA60B1
:10476C00002318461437BD4680BC704780B495B002
:10477C0000AF78607B681B680C337B637B6B53E802
:10478C00003F3B633B6B23F49073FB647B681B68BB
:10479C000C33FA6C3A64FB63F96B3A6C41E8002316
:1047AC00BB63BB6B002BE5D17B681B6814333B628E
:1047BC003B6A53E8003FFB61FB6923F00103BB64D8
:1047CC007B681B681433BA6CFA62BB62B96AFA6A0A
:1047DC0041E800237B627B6A002BE5D17B681B6B75
:1047EC00012B19D17B681B680C33FB60FB6853E809
:1047FC00003FBB60BB6823F010037B647B681B68C5
:10480C000C337A6CBA617B617969BA6941E800232F
:10481C003B613B69002BE5D17B68202283F8422069
:10482C007B6800221A6300BF5437BD4680BC7047BA
:10483C0080B584B000AF78607B685B6AFB60FB6816
:10484C000022DA85FB680022DA84F868FFF7D3FED1
:10485C0000BF1037BD4680BD80B485B000AF786016
:10486C007B6893F84130DBB2212B3ED17B689B688F
:10487C00B3F5805F14D17B681B69002B10D17B686A
:10488C001B6AFB60FB681B881A467B681B68C2F3BB
:10489C0008025A607B681B6A9A1C7B681A6208E0E3
:1048AC007B681B6A591C7A6811621A787B681B68D2
:1048BC005A607B68DB8C9BB2013B9BB27A681946D1
:1048CC00D184002B0FD17B681B68DA687B681B686E
:1048DC0022F08002DA607B681B68DA687B681B68F0
:1048EC0042F04002DA60002300E00223184614373D
:1048FC00BD4680BC704780B582B000AF78607B68E5
:10490C001B68DA687B681B6822F04002DA607B68FF
:10491C00202283F841207868FFF764FE00231846B4
:10492C000837BD4680BD80B58CB000AF78607B6821
:10493C0093F84230DBB2222B40F0AE807B689B6850
:10494C00B3F5805F17D17B681B69002B13D1002353
:10495C00FB627B689B6ABB627B681B685B689BB273
:10496C00C3F308039AB2BB6A1A807B689B6A9A1CD1
:10497C007B689A6226E07B689B6AFB620023BB62C1
:10498C007B689B68B3F5805F07D07B689B68002BC6
:10499C000AD17B681B69002B06D17B681B685B689E
:1049AC00DAB2FB6A1A7008E07B681B685B68DBB2E2
:1049BC0003F07F03DAB2FB6A1A707B689B6A5A1C9D
:1049CC007B689A627B68DB8D9BB2013B9BB27A68F9
:1049DC001946D185002B5DD17B681B68DA687B6832
:1049EC001B6822F02002DA607B681B68DA687B683F
:1049FC001B6822F48072DA607B681B685A697B68DA
:104A0C001B6822F001025A617B68202283F8422045
:104A1C007B6800225A637B681B6B012B35D17B684A
:104A2C0000221A637B681B680C337B617B6953E83B
:104A3C00003F3B613B6923F010037B627B681B6882
:104A4C000C337A6A3A62FB61F9693A6A41E80023ED
:104A5C00BB61BB69002BE5D17B681B681B6803F04D
:104A6C001003102B0AD10023FB607B681B681B68AA
:104A7C00FB607B681B685B68FB60FB687B689B8DDD
:104A8C0019467868FFF7C0FD02E07868FCF742F938
:104A9C00002302E0002300E0022318463037BD4615
:104AAC0080BD000080B584B000AF78607B681B6867
:104ABC001B6923F440517B68DA687B681B680A43E6
:104ACC001A617B689A687B681B691A437B685B690F
:104ADC001343BB607B681B68DB6823F4B05323F083
:104AEC000C037A681268B9680B43D3607B681B6847
:104AFC005B6923F440717B689A697B681B680A4385
:104B0C005A617B681B682C4A934203D1FEF764FA06
:104B1C00F86002E0FEF74CFAF860FA6813469B0066
:104B2C0013449A001A447B685B689B00B2FBF3F356
:104B3C00224AA2FB03235B091901FA6813469B0066
:104B4C0013449A001A447B685B689B00B2FBF3F237
:104B5C001A4BA3FB02035B09642000FB03F3D31A7B
:104B6C001B013233154AA2FB03235B0903F0F0034C
:104B7C001944FA6813469B0013449A001A447B6844
:104B8C005B689B00B2FBF3F20C4BA3FB02035B09CB
:104B9C00642000FB03F3D31A1B013233074AA2FB38
:104BAC0003235B0903F00F027B681B680A449A60BD
:104BBC0000BF1037BD4680BD003801401F85EB514A
:104BCC000EB46FF0004100B59CB01DAB0290069086
:104BDC00079104910848094953F8042B0591006882
:104BEC0002A9019300F08EF90022029B1A701CB0EE
:104BFC005DF804EB03B07047BC0000200802FFFF17
:104C0C0003460244934200D1704703F8011BF9E7B5
:104C1C00014B1868704700BFBC00002070B500261F
:104C2C000C4D0D4C641BA410A64209D100F07AFC6B
:104C3C0000260A4D0A4C641BA410A64205D170BD77
:104C4C0055F8043B98470136EEE755F8043B984776
:104C5C000136F2E7D4550008D4550008D4550008A5
:104C6C00D85500087047704738B50546002940D024
:104C7C0051F8043C0C1F002BB8BFE41800F0DCF812
:104C8C001C4A136833B9636014602846BDE8384089
:104C9C0000F0D8B8A34208D9206821188B4201BF74
:104CAC0019685B6809182160EDE71A465B680BB15F
:104CBC00A342FAD911685018A0420BD120680144C4
:104CCC00501883421160E0D118685B68084410608A
:104CDC005360DAE702D90C232B60D6E72068211841
:104CEC008B4201BF19685B680918216063605460CE
:104CFC00CBE738BD9004002070B50E4E0C463168E1
:104D0C00054611B900F0AAFB30602146284600F098
:104D1C00A5FB431C0AD0C41C24F00304A04207D0FA
:104D2C00211A284600F09AFB013001D14FF0FF34D4
:104D3C00204670BD940400202DE9F843CD1C25F0CD
:104D4C00030508350C2D38BF0C25002D074601DB5B
:104D5C00A94205D90C2300263B603046BDE8F883F8
:104D6C00DFF8D08000F068F8D8F800301C465CBB47
:104D7C0029463846FFF7C0FF431C044655D1D8F8E6
:104D8C0000402646002E45D1002C48D023683146E1
:104D9C00384604EB030900F061FB81453FD12168E3
:104DAC0038466D1A2946FFF7A7FF013037D0236824
:104DBC002B442360D8F80030002B38D05A68A2421C
:104DCC002BD100225A600FE02268521B1FD40B2AF1
:104DDC0017D96119A342256018BF5960636808BFD1
:104DEC00C8F8001062514B60384604F10B0600F015
:104DFC0029F826F00706231DF21AAED09B1BA350F0
:104E0C00ABE7A3426268DDD1C8F80020ECE723468B
:104E1C006468ACE734467668B4E71346CCE70C23F9
:104E2C0038463B6000F00EF897E72560DCE75B60E6
:104E3C00FFDE00BF900400200148FFF713BF00BF46
:104E4C008C0400200148FFF70EBF00BF8C0400202B
:104E5C002DE9F0471F468E688246BE420C469046AE
:104E6C000B682CD88A8912F4906F26D06569096971
:104E7C0005EB4505A3EB010905EBD5757B1C4B44F4
:104E8C006D109D4238BF1D46530527D52946FFF7A7
:104E9C0053FF064660B34A46216900F0FDFAA38928
:104EAC0023F4906343F08003A38126614E44266073
:104EBC003E466561A5EB0905A560BE4200D93E469C
:104ECC0032464146206800F0AFFA0020A3689B1BD5
:104EDC00A360236833442360BDE8F0872A4600F0C2
:104EEC00E9FA06460028E0D150462169FFF7BCFEDE
:104EFC000C23CAF80030A3894FF0FF3043F0400375
:104F0C00A381E9E72DE9F04F98468B8907461B06EC
:104F1C000D4614469DB00ED50B6963B94021FFF7C1
:104F2C000BFF2860286120B90C233B604FF0FF3049
:104F3C00D0E040236B610023099320238DF82930A6
:104F4C0030234FF00109CDF80C80DFF8A0818DF8EB
:104F5C002A3023469A4613F8012B0AB1252AF9D197
:104F6C00BAEB040B0BD05B46224629463846FFF7BA
:104F7C006FFF013000F0A980099A5A4409929AF8FF
:104F8C000030002B00F0A18000234FF0FF32CDE960
:104F9C0005230AF1010A049307938DF853301A93F1
:104FAC005446052214F8011B504800F067FA049A85
:104FBC00D8B9D00644BF20238DF85330110744BF15
:104FCC002B238DF853309AF800302A2B15D05446E9
:104FDC0000204FF00A0C079A214611F8013B303B98
:104FEC00092B4DD9B0B1079214E0A0EB080309FAD4
:104FFC0003F31343A2460493D2E7039B191D1B68CA
:10500C000391002BBBBF5B4242F002020793079354
:10501C00B8BF049223782E2B0CD163782A2B34D171
:10502C00039B02341A1D1B680392002BB8BF4FF070
:10503C00FF330593DFF8B8A003225046217800F027
:10504C001DFA38B14022049BA0EB0A0082401343A6
:10505C000134049314F8011B062226488DF82810FD
:10506C0000F00CFA002838D0234B1BBB039B0733F2
:10507C0023F0070308330393099B3344099368E730
:10508C000C4601200CFB0232A6E700234FF00A0C61
:10509C00194601340593204610F8012B303A092AA1
:1050AC0003D9002BC6D00591C4E7044601230CFBA1
:1050BC000121F0E703AB00932A4638460F4B04A9B5
:1050CC00AFF30080421C0646D6D1AB895B063FF598
:1050DC002DAF09981DB0BDE8F08F03AB00932A46A5
:1050EC003846064B04A900F07DF8EBE79E55000806
:1050FC00A4550008A8550008000000005D4E0008EB
:10510C002DE9F047164699468A680B690746934283
:10511C00B8BF1346336091F843200C46DDF820806D
:10512C000AB1013333602368990642BF33680233F6
:10513C003360256815F0060506D104F1190AE368F9
:10514C0032689B1AAB422BDC94F84320131E226866
:10515C0018BF0123920630D44946384604F1430265
:10516C00C047013023D02368226903F00603042BC7
:10517C0014BF002533684FF0000608BFE56804F142
:10518C001A0408BFED1A54F8123C08BF25EAE5755D
:10519C009342C4BF9B1AED18B5421AD1002008E007
:1051AC000123524649463846C047013003D14FF0DF
:1051BC00FF30BDE8F0870135C1E73020E11881F8F8
:1051CC0043005A1C94F845102244023382F84310D1
:1051DC00C2E70123224649463846C0470130E6D093
:1051EC000136D9E72DE9FF470F7E9146782F80468F
:1051FC000C469A460C9D01F1430207D8622F0AD83F
:10520C00002F00F0D580582F00F0C18004F142052A
:10521C0084F842703AE0A7F16303152BF6D801A18C
:10522C0051F823F0895200089D52000819520008C9
:10523C001952000819520008195200089D52000812
:10524C001952000819520008195200081952000886
:10525C00A3530008C95200085D53000819520008F6
:10526C0019520008C553000819520008C952000809
:10527C001952000819520008655300082B681A1DB2
:10528C001B682A6004F1420584F842300123A0E037
:10529C0020682B68070603F10401296001D51E68FC
:1052AC0003E04606FBD5B3F90060002E03DA2D238C
:1052BC00764284F843300A23594812E02B68206860
:1052CC00191D2960050601D51E6802E04106FBD5B3
:1052DC001E886F2F0CBF08230A235148002184F825
:1052EC0043106568002DA8BF2168A560A4BF21F0FC
:1052FC00040121600EB9002D4BD01546B6FBF3F11D
:10530C0003FB1167C75D05F8017D3746BB420E46AE
:10531C00F4D9082B0BD12368DE0708D52369616803
:10532C009942DEBF302305F8013C05F1FF35521BD5
:10533C0022614B4621464046CDF800A003AAFFF758
:10534C00DFFE01304AD14FF0FF3004B0BDE8F087EA
:10535C00236843F0200323607827324884F8457093
:10536C00236829681F0651F8046B02D45F0648BFF6
:10537C00B6B2DF0748BF43F02003296048BF236063
:10538C001EB9236823F0200323601023A6E72448CA
:10539C00E4E71546BDE72B682668181D616928608F
:1053AC0035061B6801D5196002E07006FBD5198023
:1053BC00002315462361BCE72B6800211A1D2A60C7
:1053CC001D686268284600F059F808B1401B6060FF
:1053DC0063682361002384F84330AAE72A464946D0
:1053EC0040462369D0470130ADD023689B0713D4C6
:1053FC00E068039B9842B8BF1846A6E701233246E3
:10540C0049464046D04701309DD00135E3680399A9
:10541C005B1AAB42F2DCEBE7002504F11906F5E769
:10542C00AF550008C0550008884210B501EB0204C6
:10543C0002D98442234607D8431EA14208D011F852
:10544C00012B03F8012FF8E7014602448A4200D1F0
:10545C0010BD13F8014D02F8014DF7E738B50023E4
:10546C00054D044608462B60FCF752FC431C02D148
:10547C002B6803B1236038BD88040020034610B5A7
:10548C00C9B202449342184601D1002003E00478CB
:10549C0001338C42F6D110BD0A44914200F1FF3326
:1054AC0000D1704710B511F8014B914203F8014F30
:1054BC00F9D110BD2DE9F041804614460E4621B9B4
:1054CC001146BDE8F041FFF737BC2AB9FFF7CCFB1A
:1054DC0025462846BDE8F08100F01BF884420746BB
:1054EC0002D8B4EB500F12D821464046FFF724FCEB
:1054FC0005460028EDD0BC422246314628BF3A462C
:10550C00FFF7CAFF31464046FFF7AEFBE1E73546F1
:10551C00DFE751F8043C181F002BBCBF0B58C01818
:10552C0070470000F8B500BFF8BC08BC9E46704739
:0C553C00F8B500BFF8BC08BC9E467047E4
:105548000D0A5461736B733A2025750D0A0000002B
:1055580054696D653A20256C750D0A00436F756EA8
:105568007465723A20256C750D0A00000000000071
:1055780000000000010203040607080900000000FB
:105588000102030402030405060708090A0B0C0DAF
:105598000E0F10100102232D302B2000686C4C00D8
:1055A800656667454647003031323334353637381B
:1055B8003941424344454600303132333435363779
:0C55C80038396162636465660000000011
:0455D4003101000899
:0455D8000D010008B9
:1055DC00000801400008014000080140000801409B
:1055EC00000100020004000801000000000C014052
:1055FC00000C0140000C0140000C014001000001B6
:10560C00020000020024F40088130000B80B000014
:10561C00D0070000000C0140000C0140000C0140C0
:10562C00000C0140000C0140000C01401000001067
:10563C00400000402000002010000000010000008D
:10564C000000000050030020B803002020040020BC
:10565C00000000000000000000000000000000003E
:10566C00000000000000000000000000000000002E
:10567C00000000000000000000000000000000001E
:10568C00000000000000000000000000700000207E
:0400000508002011BE
:00000001FF
